:020000040800F2
:1000000000000120151A0008ED160008EF16000880
:10001000F1160008F3160008F516000800000000AD
:10002000000000000000000000000000F7160008BB
:10003000F916000800000000FB160008FD16000875
:100040005D1A00085D1A00085D1A00085D1A0008B4
:100050005D1A00085D1A00085D1A00085D1A0008A4
:100060005D1A00085D1A00085D1A00085D1A000894
:100070005D1A00085D1A00085D1A00085D1A000884
:100080005D1A00085D1A00085D1A00085D1A000874
:100090005D1A00085D1A00085D1A00085D1A000864
:1000A0005D1A00085D1A00085D1A00085D1A000854
:1000B0005D1A00085D1A00085D1A00085D1A000844
:1000C0005D1A00085D1A00085D1A00085D1A000834
:1000D0005D1A0008051700082D180008FD18000813
:1000E0005D1A00085D1A00085D1A00085D1A000814
:1000F0005D1A00085D1A00085D1A00085D1A000804
:100100005D1A00085D1A00085D1A00085D1A0008F3
:100110005D1A00085D1A00085D1A00085D1A0008E3
:100120005D1A00085D1A00085D1A00085D1A0008D3
:1001300000000000000000000000000000000000BF
:1001400000000000000000000000000000000000AF
:10015000000000000000000000000000000000009F
:10016000000000000000000000000000000000008F
:10017000000000000000000000000000000000007F
:10018000000000000000000000000000000000006F
:10019000000000000000000000000000000000005F
:1001A000000000000000000000000000000000004F
:1001B000000000000000000000000000000000003F
:1001C000000000000000000000000000000000002F
:1001D000000000000000000000000000000000001F
:0401E0005FF8E0F1F3
:1001E80010B5054C237833B9044B13B10448AFF369
:1001F80000800123237010BDB00D00200000000016
:10020800F4D3000808B5034B1BB103490348AFF307
:10021800008008BD00000000B40D0020F4D30008E1
:1002280081F0004102E000BF83F0004330B54FEA9F
:1002380041044FEA430594EA050F08BF90EA020F0C
:100248001FBF54EA000C55EA020C7FEA645C7FEA9F
:10025800655C00F0E2804FEA5454D4EB5555B8BFC2
:100268006D420CDD2C4480EA020281EA030382EA33
:10027800000083EA010180EA020281EA0303362DC5
:1002880088BF30BD11F0004F4FEA01314FF4801C98
:100298004CEA113102D0404261EB410113F0004FAA
:1002A8004FEA03334CEA133302D0524263EB430361
:1002B80094EA050F00F0A780A4F10104D5F1200EFF
:1002C8000DDB02FA0EFC22FA05F2801841F100015A
:1002D80003FA0EF2801843FA05F359410EE0A5F12E
:1002E80020050EF1200E012A03FA0EFC28BF4CF05F
:1002F800020C43FA05F3C01851EBE37101F0004515
:1003080007D54FF0000EDCF1000C7EEB00006EEB21
:100318000101B1F5801F1BD3B1F5001F0CD34908AB
:100328005FEA30004FEA3C0C04F101044FEA445202
:1003380012F5800F80F09A80BCF1004F08BF5FEA89
:10034800500C50F1000041EB045141EA050130BD69
:100358005FEA4C0C404141EB0101013C28BFB1F57B
:10036800801FE9D291F0000F04BF01460020B1FAC6
:1003780081F308BF2033A3F10B03B3F120020CDA99
:100388000C3208DD02F1140CC2F10C0201FA0CF077
:1003980021FA02F10CE002F11402D8BFC2F1200CDC
:1003A80001FA02F120FA0CFCDCBF41EA0C01904092
:1003B800E41AA2BF01EB0451294330BD6FEA0404DB
:1003C8001F3C1CDA0C340EDC04F11404C4F12002C6
:1003D80020FA04F001FA02F340EA030021FA04F3D8
:1003E80045EA030130BDC4F10C04C4F1200220FA2F
:1003F80002F001FA04F340EA0300294630BD21FA6D
:1004080004F0294630BD94F0000F83F4801306BF32
:1004180081F480110134013D4EE77FEA645C18BF26
:100428007FEA655C29D094EA050F08BF90EA020FBD
:1004380005D054EA000C04BF1946104630BD91EAB5
:10044800030F1EBF0021002030BD5FEA545C05D1B8
:100458004000494128BF41F0004130BD14F58004F7
:100468003CBF01F5801130BD01F0004545F0FE416B
:1004780041F470014FF0000030BD7FEA645C1ABFA0
:10048800194610467FEA655C1CBF0B46024650EAD7
:10049800013406BF52EA033591EA030F41F4002103
:1004A80030BD00BF90F0000F04BF0021704730B589
:1004B8004FF4806404F132044FF000054FF000015E
:1004C80050E700BF90F0000F04BF0021704730B51F
:1004D8004FF4806404F1320410F0004548BF4042F4
:1004E8004FF000013EE700BF42004FEAE2014FEA49
:1004F80031014FEA02701FBF12F07F4393F07F4F24
:1005080081F06051704732F07F4208BF704793F026
:100518007F4F04BF41F40021704730B54FF4607439
:1005280001F0004521F000411CE700BF50EA01023C
:1005380008BF704730B54FF000050AE050EA0102E5
:1005480008BF704730B511F0004502D5404261EB55
:1005580041014FF4806404F132045FEA915C3FF496
:10056800D8AE4FF003025FEADC0C18BF03325FEA33
:10057800DC0C18BF033202EBDC02C2F1200300FAE4
:1005880003FC20FA02F001FA03FE40EA0E0021FA09
:1005980002F11444BDE600BF70B54FF0FF0C4CF4F7
:1005A800E06C1CEA11541DBF1CEA135594EA0C0FA9
:1005B80095EA0C0F00F0DEF82C4481EA030621EAE4
:1005C8004C5123EA4C5350EA013518BF52EA03351F
:1005D80041F4801143F4801338D0A0FB02CE4FF0D1
:1005E8000005E1FB02E506F00042E0FB03E54FF001
:1005F8000006E1FB03569CF0000F18BF4EF0010EF9
:10060800A4F1FF04B6F5007F64F5407404D25FEAF4
:100618004E0E6D4146EB060642EAC62141EA5551A7
:100628004FEAC52040EA5E504FEACE2EB4F1FD0CE9
:1006380088BFBCF5E06F1ED8BEF1004F08BF5FEA67
:10064800500E50F1000041EB045170BD06F0004619
:1006580046EA010140EA020081EA0301B4EB5C04C6
:10066800C2BFD4EB0C0541EA045170BD41F48011BE
:100678004FF0000E013C00F3AB8014F1360FDEBFE3
:10068800002001F0004170BDC4F10004203C35DABF
:100698000C341BDC04F11404C4F1200500FA05F342
:1006A80020FA04F001FA05F240EA020001F00042E3
:1006B80021F0004110EBD37021FA04F642EB060159
:1006C8005EEA430E08BF20EAD37070BDC4F10C0483
:1006D800C4F1200500FA04F320FA05F001FA04F247
:1006E80040EA020001F0004110EBD37041F1000133
:1006F8005EEA430E08BF20EAD37070BDC4F120053E
:1007080000FA05F24EEA020E20FA04F301FA05F2A5
:1007180043EA020321FA04F001F0004121FA04F24D
:1007280020EA020000EBD3705EEA430E08BF20EA1D
:10073800D37070BD94F0000F0FD101F00046400057
:1007480041EB010111F4801F08BF013CF7D041EAD9
:10075800060195F0000F18BF704703F000465200DD
:1007680043EB030313F4801F08BF013DF7D043EAAE
:100778000603704794EA0C0F0CEA135518BF95EA64
:100788000C0F0CD050EA410618BF52EA4306D1D1EB
:1007980081EA030101F000414FF0000070BD50EA0A
:1007A800410606BF1046194652EA430619D094EA94
:1007B8000C0F02D150EA013613D195EA0C0F05D17E
:1007C80052EA03361CBF104619460AD181EA0301D2
:1007D80001F0004141F0FE4141F470014FF000008A
:1007E80070BD41F0FE4141F4780170BD70B54FF025
:1007F800FF0C4CF4E06C1CEA11541DBF1CEA1355A5
:1008080094EA0C0F95EA0C0F00F0A7F8A4EB050486
:1008180081EA030E52EA03354FEA013100F088807D
:100828004FEA03334FF0805545EA131343EA126346
:100838004FEA022245EA111545EA10654FEA0026FB
:100848000EF000419D4208BF964244F1FD0404F5B4
:10085800407402D25B084FEA3202B61A65EB030510
:100868005B084FEA32024FF480104FF4002CB6EBCD
:10087800020E75EB030E22BFB61A754640EA0C004D
:100888005B084FEA3202B6EB020E75EB030E22BF8D
:10089800B61A754640EA5C005B084FEA3202B6EBCE
:1008A800020E75EB030E22BFB61A754640EA9C008D
:1008B8005B084FEA3202B6EB020E75EB030E22BF5D
:1008C800B61A754640EADC0055EA060E18D04FEA1B
:1008D800051545EA16754FEA06164FEAC30343EABB
:1008E80052734FEAC2025FEA1C1CC0D111F4801F88
:1008F8000BD141EA00014FF000004FF0004CB6E781
:1009080011F4801F04BF01430020B4F1FD0C88BF1F
:10091800BCF5E06F3FF6AFAEB5EB030C04BFB6EB2A
:10092800020C5FEA500C50F1000041EB045170BD1D
:100938000EF0004E4EEA113114EB5C04C2BFD4EB4A
:100948000C0541EA045170BD41F480114FF0000ECE
:10095800013C90E645EA060E8DE60CEA135594EA4A
:100968000C0F08BF95EA0C0F3FF43BAF94EA0C0F4D
:100978000AD150EA01347FF434AF95EA0C0F7FF4C2
:1009880025AF104619462CE795EA0C0F06D152EA16
:1009980003353FF4FDAE1046194622E750EA4106FA
:1009A80018BF52EA43067FF4C5AE50EA41047FF40B
:1009B8000DAF52EA43057FF4EBAE12E74A0011D2BD
:1009C80012F5001211D20DD56FF47873B3EB6252A1
:1009D8000ED44FEAC12343F0004343EA505323FAAD
:1009E80002F070474FF00000704750EA013002D122
:1009F8004FF0FF3070474FF000007047844641EADF
:100A0800000313F0030349D1403A23D30B68036072
:100A18004B6843608B688360CB68C3600B69036174
:100A28004B6943618B698361CB69C3610B6A03625C
:100A38004B6A43628B6A8362CB6AC3620B6B036344
:100A48004B6B43638B6B8363CB6BC3634030403129
:100A5800403ADBD230320BD30B6803604B684360FB
:100A68008B688360CB68C36010301031103AF3D2C2
:100A78000C3205D351F8043B40F8043B043AF9D250
:100A8800043208D0D2071CBF11F8013B00F8013B23
:100A980001D30B8803806046704700BF082A13D330
:100AA8008B07B1D010F00303AED0C3F10403D21A00
:100AB800DB071CBF11F8013B00F8013BA4D331F858
:100AC800023B20F8023B9FE7043AD9D3013A11F8D8
:100AD800013B00F8013BF9D20B7803704B78437067
:100AE8008B788370604670474FF0FF3C06E000BF8C
:100AF8004FF0010C02E000BF4FF0010C4DF804CD9F
:100B08004FEA410C7FEA6C5C4FEA430C18BF7FEA5E
:100B18006C5C1BD001B050EA410C0CBF52EA430C8C
:100B280091EA030F02BF90EA020F0020704710F10C
:100B3800000F91EA030F58BF994208BF90422CBF9B
:100B4800D8176FEAE37040F0010070474FEA410C94
:100B58007FEA6C5C02D150EA013C07D14FEA430CB2
:100B68007FEA6C5CD6D152EA033CD3D05DF8040B23
:100B7800704700BF8446104662468C461946634655
:100B880000E000BF01B5FFF7B7FF002848BF10F12C
:100B9800000F01BD4DF808EDFFF7F4FF0CBF012071
:100BA80000205DF808FB00BF4DF808EDFFF7EAFFED
:100BB80034BF012000205DF808FB00BF4DF808EDA8
:100BC800FFF7E0FF94BF012000205DF808FB00BF9D
:100BD8004DF808EDFFF7CEFF94BF012000205DF827
:100BE80008FB00BF4DF808EDFFF7C4FF34BF012034
:100BF80000205DF808FB00BF4FEA410C7FEA6C5CFF
:100C080002D150EA013C0AD14FEA430C7FEA6C5CFE
:100C180002D152EA033C02D14FF0000070474FF076
:100C2800010070474FEA410212F5001215D211D5A2
:100C38006FF47873B3EB625212D94FEAC12343F0D1
:100C4800004343EA505311F0004F23FA02F018BF53
:100C5800404270474FF00000704750EA013005D11C
:100C680011F0004008BF6FF0004070474FF00000DF
:100C7800704700BF4FEA4102B2F1E04324BFB3F529
:100C8800001CDCF1FE5C0DD901F0004C4FEAC002FB
:100C98004CEA5070B2F1004F40EB830008BF20F0DF
:100CA8000100704711F0804F21D113F13872BCBF99
:100CB80001F00040704741F480114FEA5252C2F1EE
:100CC8001802C2F1200C10FA0CF320FA02F018BF37
:100CD80040F001004FEAC1234FEAD32303FA0CFC8A
:100CE80040EA0C0023FA02F34FEA4303CCE77FEA19
:100CF800625307D150EA01331EBF4FF0FE4040F463
:100D08004000704701F0004040F0FE4040F4000011
:100D1800704700BF53B94AB9002908BF00281CBF53
:100D28004FF0FF314FF0FF3000F0AEB9ADF1080CD5
:100D38006DE904CE00F03EF8DDF804E0DDE90223B9
:100D480004B0704738B505460C46002200232846F3
:100D58002146FFF729FF28B928462146BDE8384033
:100D680000F00AB8284604F1004100F005F84042B6
:100D780061EB410138BD00BFD0B500220B4B0646E0
:100D88000F46FFF709FCFFF719FE0446FFF78AFB39
:100D98000022074BFFF700FC02460B463046394657
:100DA800FFF742FAFFF70AFE2146D0BD0000F03DEA
:100DB8000000F0412DE9F047089E0D46044688469C
:100DC800002B4DD18A42944668D9B2FA82F252B1C8
:100DD80001FA02F3C2F1200120FA01F10CFA02FC37
:100DE80041EA030894404FEA1C41B8FBF1F71FFAA7
:100DF8008CFE01FB178807FB0EF0230C43EA08431F
:100E080098420AD91CEB030307F1FF3580F01E81D5
:100E1800984240F21B81023F63441B1AB3FBF1F076
:100E280001FB103300FB0EFEA4B244EA0344A645BE
:100E38000AD91CEB040400F1FF3380F00981A645B0
:100E480040F20681644402380021A4EB0E0440EA13
:100E580007401EB10023D440C6E90043BDE8F0872F
:100E68008B4208D9002E00F0EE800021C6E900056B
:100E78000846BDE8F087B3FA83F100294AD1AB42AE
:100E880002D3824200F2FC80841A65EB030301203E
:100E98009846002EE2D0C6E90048DFE702B9FFDE37
:100EA800B2FA82F2002A40F09180A1EB0C000121F5
:100EB8004FEA1C471FFA8CFEB0FBF7F307FB130041
:100EC800250C45EA00450EFB03F0A84208D91CEBA7
:100ED800050503F1FF3802D2A84200F2CE8043464E
:100EE8002D1AB5FBF7F007FB10550EFB00FEA4B258
:100EF80044EA0544A64508D91CEB040400F1FF3573
:100F080002D2A64500F2B6802846A4EB0E0440EAB9
:100F180003409EE7C1F120078B4022FA07FC4CEA08
:100F2800030C25FA07FA4FEA1C49BAFBF9F820FA2C
:100F380007F309FB18AA8D401FFA8CFE1D4300FA1F
:100F480001F308FB0EF02C0C44EA0A44A04202FA12
:100F580001F20BD91CEB040408F1FF3A80F08880F9
:100F6800A04240F28580A8F102086444241AB4FB28
:100F7800F9F009FB104400FB0EFEADB245EA04444B
:100F8800A64508D91CEB040400F1FF356CD2A64530
:100F98006AD90238644440EA0840A0FB0295A4EBF1
:100FA8000E04AC42C846AE4656D353D0002E69D084
:100FB800B3EB080264EB0E0422FA01F304FA07F714
:100FC8001F43CC40C6E90074002147E70CFA02FC35
:100FD800C2F1200125FA01F34FEA1C4720FA01F17A
:100FE80095400D43B3FBF7F107FB11331FFA8CFE55
:100FF800280C40EA034001FB0EF3834204FA02F492
:1010080008D91CEB000001F1FF382FD283422DD9FB
:1010180002396044C01AB0FBF7F307FB1300ADB206
:1010280045EA004503FB0EF0A84208D91CEB05056C
:1010380003F1FF3816D2A84214D9023B6544281A96
:1010480043EA014138E73146304607E72F46E4E6F0
:101058001846F9E64B45A9D2B9EB020865EB0C0E28
:101068000138A3E74346EAE7284694E74146D1E733
:10107800D0467BE76444023847E7023B65442FE7E4
:10108800084606E73146E9E6704700BF82B00A4BDA
:101098009A6942F004029A619A6902F00402009285
:1010A800009A9A6942F008029A619B6903F0080362
:1010B8000193019B02B0704700100240F0B59FB049
:1010C80013AC454D0FCD0FC40FCD0FC495E80700E5
:1010D80003C42280002306E003F178026A44002159
:1010E80002F8681C01333B2BF6DD002410E04C238A
:1010F8008DF8143046238DF815304FF0FF333C221D
:1011080004A9364801F093FB322000F0EFFC0334C9
:10111800112C5EDC324B03EBC401621C03EBC202F0
:10112800D2E90067A21C03EBC203D3E90023CDE98F
:101138000223CDE90067D1E900232A4904A802F077
:1011480043FC0F2CD9D801A353F824F0F71000085A
:101158000311000803110008951100080311000885
:1011680003110008A3110008031100080311000867
:10117800B11100080311000803110008BF1100088D
:101188000311000803110008CD11000852238DF83F
:1011980014304D238DF81530AFE74C238DF81430FB
:1011A80048238DF81530A8E752238DF814304623CC
:1011B8008DF81530A1E74C238DF814304D238DF8A8
:1011C80015309AE752238DF8143048238DF81530DE
:1011D80093E71FB0F0BD00BF40D40008CC0D00203D
:1011E8009010002010D4000872B6FEE708B50A482F
:1011F8000A4B03604FF41653436000238360C360B7
:1012080003610C2242618361C36101F0E1FA00B914
:1012180008BDFFF7E9FF00BF840E00200038014039
:1012280008B50A480A4B03604FF41653436000237D
:101238008360C36003610C2242618361C36101F072
:10124800C7FA00B908BDFFF7CFFF00BFCC0D0020DB
:101258000044004008B50A480A4B03604FF416538F
:10126800436000238360C36003610C224261836191
:10127800C36101F0ADFA00B908BDFFF7B5FF00BFC3
:10128800100E00200048004000B591B0282200212F
:1012980006A802F047FB00230193029303930493EB
:1012A80005930223069301230A9310230B9306A8A0
:1012B80000F0A8FE68B90F23019300210291039161
:1012C8000491059101A801F0DDF820B911B05DF88D
:1012D80004FBFFF789FFFFF787FF00002DE9F041C6
:1012E80086B000F0DFFBFFF7CFFFFFF7CFFEFFF779
:1012F8007DFFFFF795FFFFF7ADFF7F4D4FF0FF3301
:101308000D227E49284601F092FA002604967C4C6C
:1013180023681A6804925A680492049ADA6842F0B8
:101328003002DA6064227749204601F000FD059614
:101338002B681A6805925A680592059ADA6842F08D
:101348003002DA6064227049284601F0F0FC204639
:1013580001F068FF6D4801F0DFFD06E06C496D485B
:1013680001F058FE6C4B01221A606B4B1B68023B64
:10137800082BFAD801A252F823F000BF6513000821
:10138800A9130008B5130008C1130008D1130008F9
:1013980025140008611400087B140008951400083F
:1013A80001F046FD5C4B01221A60DEE701F0C8FD42
:1013B800594B01221A60D8E701F0ECFCFFF77EFEDA
:1013C800554B01221A60D0E7544B1B68052B08D8EF
:1013D800DFE803F0030B10151A1F00214B4801F03A
:1013E80015FD4D4B01221A60BFE70121474801F066
:1013F8000DFDF6E70221454801F008FDF1E703215C
:10140800424801F003FDECE70421404801F0FEFCEE
:10141800E7E705213D4801F0F9FCE2E73F4B1C688E
:101428009D68D3F80C805868FFF74CF806460F46BD
:10143800E4B24046FFF746F8CDE902012846FFF737
:1014480041F8CDE9000132463B46204601F0A2FDB5
:10145800314B01221A6088E7304B1868FFF732F8E1
:1014680002460B462B4801F04BFE2B4B01221A601B
:101478007BE72A4B1868FFF725F802460B462548F4
:1014880001F087FE244B01221A606EE7214C2449A3
:10149800204601F0BFFD4FF47A7000F027FB214988
:1014A800204601F0B7FD4FF47A7000F01FFB1E498B
:1014B800204601F0AFFD4FF47A7000F017FB1B498E
:1014C800204601F0A7FD4FF47A7000F00FFB184991
:1014D800204601F09FFD4FF47A7000F007FB154994
:1014E800204601F097FD4FF47A7000F0FFFA0A4B9E
:1014F80001221A6039E700BFCC0D00206CD4000827
:10150800100E002020110020EC0E0020540E0020A8
:1015180000000020C80E00208C1000207C10002045
:101528009000002020010020B0010020400200208F
:10153800D00200206003002082B00E4B9A6942F06E
:1015480001029A619A6902F001020092009ADA692E
:1015580042F08052DA61DB6903F080530193019B0A
:10156800054A536823F0E06343F00073536002B008
:10157800704700BF001002400000014030B58BB03A
:101588000023069307930893099303684F4A9342ED
:1015980007D04F4A934236D04E4A934263D00BB09D
:1015A80030BD4D4B9A6942F480429A619A6902F4BF
:1015B80080420092009A9A6942F004029A619B69FB
:1015C80003F004030193019B4FF400730693022375
:1015D800079303230993414D06A9284600F0DCFB35
:1015E8004FF48063069300240794089406A92846BC
:1015F80000F0D2FB22462146252000F09DFA252046
:1016080000F0D2FACBE7344BDA6942F40032DA61FF
:10161800DA6902F400320292029A9A6942F00402EC
:101628009A619B6903F004030393039B04230693C5
:101638000223079303230993284D06A9284600F09F
:10164800ABFB0823069300240794089406A92846B0
:1016580000F0A2FB22462146262000F06DFA262043
:1016680000F0A2FA9BE71C4BDA6942F48022DA61A7
:10167800DA6902F480220492049A9A6942F0080214
:101688009A619B6903F008030593059B4FF48063F7
:1016980006930223079303230993114D06A92846AD
:1016A80000F07AFB4FF40063069300240794089433
:1016B80006A9284600F070FB22462146272000F0A4
:1016C8003BFA272000F070FA69E700BF00380140B4
:1016D800004400400048004000100240000801405B
:1016E800000C0140FEE7FEE7FEE7FEE7FEE7704775
:1016F8007047704708B500F0E7F908BD08B502481B
:1017080001F0F8F908BD00BF840E00200378012B12
:101718007ED010B586B05AB2002A73D0752B71D816
:10172800322B6FD3323B432B6CD8DFE803F02227F0
:101738002B2F6B6B6B6B6B6B6B6B6B6B6B6B6B6B6D
:101748006B6B6B6B6B6B6B6B6B6B6B6B6B6B6B6BE1
:101758006B6B6B6B6B6B6B6B6B6B6B6B6B676B6BD5
:101768006B5C6B6B6B6B6B6B6B516B6B6B6B6B3E17
:101778006B330220274B186006B010BD0320254BA1
:101788001860F9E70420234B1860F5E70520214B82
:101798001860F1E706241F4B1C601F4B0DF1170260
:1017A8001E4902F033F92046E6E70724194B1C606E
:1017B800194B03F10C02029203F1080201921A1D5F
:1017C80000920DF11702164902F020F92046D3E7DE
:1017D8000824104B1C60104B0DF117020F4902F042
:1017E80015F92046C8E709240A4B1C600A4B0DF17D
:1017F80017020A4902F00AF92046BDE70A20054BFC
:101808001860B9E7034B01221A606FF00100B3E7D3
:10181800012070478C1000207C1000207CD4000828
:1018280084D4000830B583B0134C204601F062F927
:1018380023681A6812F0100F03D0DA6812F0100F3C
:1018480001D103B030BD002201921A6801925B6891
:101858000193019B204601F095F8084D2846FFF7B3
:1018680055FF11220649204601F04DF86422294609
:10187800204601F05CFAE4E7CC0D0020EC0E0020D5
:1018880094D40008194B00221A600378552B27D1ED
:101898004378552B24D1C378152B05D0134B01223F
:1018A8001A604FF0FF30704700B590F804E010E080
:1018B80002EB4203591D415C03F1060C10F80CC001
:1018C8000733C35C4CEA032C4B1E094921F813C0AB
:1018D80001327245ECDB0120044B18605DF804FB13
:1018E800024B01221A604FF0FF307047B0120020FF
:1018F800C80E002030B583B0114C204601F0FAF82C
:1019080023681A6812F0100F03D0DA6812F0100F6B
:1019180001D103B030BD002201921A6801925B68C0
:101928000193019B204601F02DF8064D2846FFF74C
:10193800A9FF64222946204601F0F9F9E9E700BF2A
:10194800100E00202011002070470120704708B5B4
:1019580001F0BEFF162303604FF0FF3008BD08B545
:101968004FF0FF31FFF7F3FFFEE770B50C46164660
:10197800002506E0AFF30080214601F8010B013590
:101988000C46B542F6DB304670BD70B50C461646BF
:10199800002504E014F8010BAFF300800135B542CF
:1019A800F8DB304670BD4FF0FF3070474FF40053FE
:1019B8004B600020704701207047002070470000EE
:1019C80010B503460C4A0D490D48006840B10C4853
:1019D80000680344521A934206D8094A136010BD9E
:1019E8000748084C0460F2E701F072FF0C2303601B
:1019F8004FF0FF30F3E700BF0000012000040000B3
:101A0800B412002088130020704700000C480D49CC
:101A18000D4A002302E0D458C4500433C4188C4241
:101A2800F9D30A4A0A4C002301E013600432A242A7
:101A3800FBD3FFF7E9FF01F051FFFFF74FFC7047B9
:101A480000000020AC0D002008DB0008B00D0020CD
:101A580088130020FEE7000010B504460E4B1878E6
:101A68004FF47A73B3FBF0F30C4A1068B0FBF3F051
:101A780000F0A8F868B90F2C01D901200AE000226B
:101A880021464FF0FF3000F057F8054B1C6000204E
:101A980000E0012010BD00BFF4030020F003002087
:101AA800F803002008B5074A136843F010031360D1
:101AB800032000F02FF80F20FFF7CEFFFFF73CFDC3
:101AC800002008BD00200240034A1168034B1B7820
:101AD8000B441360704700BFB8120020F4030020C5
:101AE800014B1868704700BFB812002038B504468B
:101AF800FFF7F6FF0546B4F1FF3F02D0044B1B7811
:101B08001C44FFF7EDFF401BA042FAD338BD00BFCD
:101B1800F4030020074AD36823F4E0631B041B0C7A
:101B2800000200F4E060034343F0BF6343F4003372
:101B3800D360704700ED00E000B5194BDB68C3F3D4
:101B48000223C3F1070CBCF1040F28BF4FF0040CAB
:101B580003F1040EBEF1060F18D9033B4FF0FF3E08
:101B68000EFA0CFC21EA0C0199400EFA03F322EA62
:101B78000303194300280BDB0901C9B200F16040D7
:101B880000F5614080F800135DF804FB0023E5E7E9
:101B980000F00F000901C9B2024B1954F4E700BF65
:101BA80000ED00E014ED00E0002807DB00F01F0264
:101BB800400901239340024A42F82030704700BF91
:101BC80000E100E00138B0F1807F0BD24FF0E02354
:101BD8005861054AF02182F82310002098610722F5
:101BE8001A6170470120704700ED00E090F821303D
:101BF800022B06D004238363002380F820300120C1
:101C080070470268136823F00E03136002681368B4
:101C180023F001031360036CC16B012202FA03F382
:101C28004B6080F82120002380F820301846704748
:101C380008B590F82130022B03D0042383630120D8
:101C480008BD0268136823F00E0313600268136866
:101C580023F00103136003684B4A93424ED9783A44
:101C6800934224D01432934230D0143293422FD06E
:101C7800143293422FD0143293422FD0143293420D
:101C88002FD0143293422FD002F5627293422ED095
:101C9800143293422DD0143293422CD014329342F2
:101CA80002D04FF4803203E04FF4805200E001226A
:101CB800364B5A60012380F82130002380F8203009
:101CC800436B002B5ED098470020B9E71022EFE75E
:101CD8004FF48072ECE74FF48052E9E74FF480321A
:101CE800E6E74FF48012E3E74FF08072E0E7012265
:101CF800DEE71022DCE74FF48072D9E7244A9342EA
:101D080024D01432934225D01432934224D0143272
:101D1800934224D01432934224D01432934224D0D4
:101D28001432934224D002F56272934223D01432C3
:101D3800934222D01432934221D01432934202D0DB
:101D48004FF4803203E04FF4805200E00122114B3F
:101D58005A60AFE71022FAE74FF48072F7E74FF4C2
:101D68008052F4E74FF48032F1E74FF48012EEE747
:101D78004FF08072EBE70122E9E71022E7E74FF422
:101D88008072E4E700205BE7800002400004024024
:101D9800080002400000024070B582B00024A4464A
:101DA800B0E0874DAA4210D007D9864DAA420CD080
:101DB80005F58035AA4208D013E0A5F58015AA429A
:101DC80003D005F57025AA4207D18A68002A62D097
:101DD800012A5BD04361082403E0A5F58015AA42D7
:101DE800F3D0BEF1FF0F58D80646BEF1FF0F56D804
:101DF8004FEA8C0233680F25954023EA050304FA5D
:101E080002F2134333604B6813F0805F78D06E4B57
:101E18009A6942F001029A619B6903F001030193F8
:101E2800019B4FEA9C02951C684B53F825600CF007
:101E380003039D000F23AB4026EA0306644B984238
:101E480033D003F58063984200F0988003F58063EF
:101E5800984200F0958003F58063984200F09280E4
:101E680003F58063984200F08F8003F58063984201
:101E780019D006231AE0CC68B3E7CC680434B0E77D
:101E8800CC680834ADE7CC680C34AAE703610824B1
:101E9800A7E70024A5E70424A3E7061DA5E7ACF1FE
:101EA80008029200A6E7052300E00023AB40334375
:101EB8000232464D45F822304B6813F4803F65D016
:101EC800444A136843EA0E0313604B6813F4003F57
:101ED80062D0404A536843EA0E0353604B6813F4D8
:101EE800801F5FD03B4A936843EA0E0393604B68B8
:101EF80013F4001F5CD0374AD36843EA0E03D3605B
:101F08000CF1010C0A6832FA0CF357D0012303FADA
:101F18000CF302EA030E33EA0202F1D14A68122AEC
:101F28003FF63FAF122A3FF65CAF01A555F822F005
:101F3800D31D00087F1E0008891E00089B1E00088C
:101F4800EB1D0008EB1D0008EB1D0008EB1D000849
:101F5800EB1D0008EB1D0008EB1D0008EB1D000839
:101F6800EB1D0008EB1D0008EB1D0008EB1D000829
:101F7800EB1D0008831E00088F1E0008012395E74B
:101F8800022393E7032391E704238FE7114A136899
:101F980023EA0E03136098E70E4A536823EA0E03F8
:101FA80053609BE70B4A936823EA0E0393609EE70E
:101FB800084AD36823EA0E03D360A1E702B070BDD4
:101FC8000000221000003110001002400000014003
:101FD800000801400004014082B0084B1B68084A11
:101FE800A2FB03235B0A00FB03F3019300BF019BE1
:101FF8005A1E0192002BF9D102B07047F00300205D
:10200800D34D6210002800F0F18170B582B004460B
:10201800036813F0010F2CD0994B5B6803F00C0395
:10202800042B1DD0964B5B6803F00C03082B12D0D1
:102038006368B3F5803F41D0002B55D103F180434D
:1020480003F504331A6822F480321A601A6822F4FD
:1020580080221A6037E08A4B5B6813F4803FE7D030
:10206800874B1B6813F4003F03D06368002B00F014
:10207800BF81236813F0020F75D0814B5B6813F0A2
:102088000C0F5FD07E4B5B6803F00C03082B54D019
:102098002369002B00F08A807A4B01221A60FFF72F
:1020A8001FFD0546764B1B6813F0020F75D1FFF72D
:1020B80017FD401B0228F5D903209EE1704A1368DA
:1020C80043F480331360636843B3FFF709FD0546A3
:1020D8006B4B1B6813F4003FCBD1FFF701FD401B8E
:1020E8006428F5D9032088E1B3F5A02F09D0644B03
:1020F8001A6822F480321A601A6822F480221A6060
:10210800E1E703F18043A3F53C331A6842F48022E7
:102118001A601A6842F480321A60D4E7FFF7E0FCCC
:102128000546574B1B6813F4003FA2D0FFF7D8FCB5
:10213800401B6428F5D903205FE1514B5B6813F419
:10214800803FA5D14E4B1B6813F0020F03D02369C3
:10215800012B40F04F814A4A136823F0F803616964
:1021680043EAC1031360236813F0080F33D0A3694F
:10217800002B5CD0434B0122C3F88024FFF7B0FC4E
:1021880005463F4B5B6A13F0020F21D1FFF7A8FC0D
:10219800401B0228F5D903202FE1394A136823F0A0
:1021A800F803616943EAC1031360DCE7354B002299
:1021B8001A60FFF795FC0546314B1B6813F0020FB8
:1021C800D1D0FFF78DFC401B0228F5D9032014E17C
:1021D8000120FFF701FF236813F0040F00F0968039
:1021E800274BDB6913F0805F34D1254BDA6942F065
:1021F8008052DA61DB6903F080530193019B01256A
:10220800214B1B6813F4807F26D0E368012B3DD057
:10221800002B53D103F1804303F504331A6A22F0EB
:1022280001021A621A6A22F004021A6233E0154B9C
:102238000022C3F88024FFF753FC0546104B5B6A65
:1022480013F0020FC7D0FFF74BFC401B0228F5D94B
:102258000320D2E00025D3E70B4A136843F48073C8
:102268001360FFF73DFC0646074B1B6813F4807F9D
:10227800CBD1FFF735FC801B6428F5D90320BCE0DF
:102288000010024000004242007000405F4A136A9A
:1022980043F001031362E36833B3FFF721FC0646FA
:1022A8005A4B1B6A13F0020F2FD1FFF719FC801B42
:1022B80041F288339842F3D903209EE0052B09D0D8
:1022C800524B1A6A22F001021A621A6A22F00402B8
:1022D8001A62E0E74D4B1A6A42F004021A621A6A5F
:1022E80042F001021A62D6E7FFF7FAFB0646474BAF
:1022F8001B6A13F0020F08D0FFF7F2FB801B41F2B4
:1023080088339842F3D9032077E0E5B9E369002BD5
:1023180072D03E4A526802F00C02082A56D0022BAC
:1023280017D03B4B00221A66FFF7DAFB0446374BFF
:102338001B6813F0007F47D0FFF7D2FB001B022871
:10234800F5D9032059E0314AD36923F08053D3618A
:10235800DCE72F4B00221A66FFF7C2FB05462B4B22
:102368001B6813F0007F06D0FFF7BAFB401B02285A
:10237800F5D9032041E0236AB3F5803F1AD02349F9
:102388004B6823F47413226A606A024313434B6058
:102398001F4B01221A66FFF7A3FB04461B4B1B6861
:1023A80013F0007F0ED1FFF79BFB001B0228F5D925
:1023B800032022E0154A536823F40033A1680B4335
:1023C8005360DCE7002018E0002016E0012B16D04F
:1023D8000E4B5B6803F48031226A914211D103F4F9
:1023E8007013626A93420ED1002006E00120704704
:1023F800012002E0012000E0002002B070BD0120B1
:10240800FBE70120F9E70120F7E700BF00100240D1
:102418000000424286B0174B0FCB0DF1180C0CE9A7
:102428000F0040F20123ADF80430134B5B6803F052
:102438000C02082A02D0114806B07047C3F3834241
:1024480018326A4412F8100C13F4803F0DD00A4B6E
:102458005B68C3F3404318336B4413F8143C074AD2
:1024680002FB00F0B0FBF3F0E6E7054B03FB00F0DE
:10247800E2E700BFC0D400080010024000127A0052
:1024880000093D00002800F0A08070B50D46044604
:10249800524B1B6803F007038B420BD24F4A136859
:1024A80023F007030B431360136803F007038B4201
:1024B80040F08D80236813F0020F17D013F0040F3B
:1024C80004D0474A536843F4E0635360236813F029
:1024D800080F04D0424A536843F460535360404A9B
:1024E800536823F0F003A1680B435360236813F08B
:1024F800010F31D06368012B20D0022B25D0384A38
:10250800126812F0020F64D035494A6822F00302BB
:1025180013434B60FFF7E4FA0646314B5B6803F060
:102528000C036268B3EB820F16D0FFF7D9FA801B51
:1025380041F288339842F0D9032045E0284A1268CE
:1025480012F4003FE0D101203EE0254A126812F063
:10255800007FD9D1012037E0204B1B6803F0070327
:10256800AB420AD91D4A136823F007032B431360B3
:10257800136803F00703AB422DD1236813F0040F4F
:1025880006D0174A536823F4E063E1680B435360AD
:10259800236813F0080F07D0114A536823F46053D7
:1025A800216943EAC1035360FFF734FF0C4B5B68B2
:1025B800C3F303130B4AD35CD8400B4B18600B4B87
:1025C8001868FFF749FA002070BD01207047012004
:1025D800FAE70120F8E70120F6E700BF00200240F3
:1025E80000100240A8D40008F0030020F8030020DF
:1025F800014B1868704700BFF003002008B5FFF7CB
:10260800F7FF044B5B68C3F30223034AD35CD8404B
:1026180008BD00BF00100240B8D4000808B5FFF795
:10262800E7FF044B5B68C3F3C223034AD35CD8407B
:1026380008BD00BF00100240B8D400080268D36883
:1026480023F49073D3600268536923F00103536144
:10265800036B012B05D0202380F83E300023036351
:1026680070470268D36823F01003D360F3E790F84B
:102678003D30DBB2212B01D0022070478368B3F5CF
:10268800805F17D0036A5A1C02621A7803685A607E
:10269800C38C9BB2013B9BB2C3844BB90268D3681D
:1026A80023F08003D3600268D36843F04003D3600B
:1026B800002070470369002BE4D1036A1B88026875
:1026C800C3F308035360036A02330362E0E70000C0
:1026D80010B504460268136923F44053C1680B43DC
:1026E800136183680269134342691A430168CB681E
:1026F80023F4B05323F00C031343CB6002685369EF
:1027080023F4407381690B4353610268134B9A4267
:1027180020D0FFF773FF024602EB820202EB82022F
:1027280063689B00B2FBF3F20D48A0FB0231490934
:10273800642303FB11231B013233A0FB03235B0932
:1027480003F0F00202EB011203F00F0321681344B7
:102758008B6010BDFFF762FF0246DDE700380140DD
:102768001F85EB512DE9F84305460F461646994655
:10277800DDF820802C68246837EA04030CBF4FF08A
:10278800010C4FF0000CB4451FD1B8F1FF3FF1D058
:10279800B8F1000F05D0FFF7A3F9A0EB09004045F9
:1027A800E8D92A68D36823F4D073D3602A685369B8
:1027B80023F001035361202385F83D3085F83E302E
:1027C800002385F83C30032000E00020BDE8F883B2
:1027D80058B310B5044690F83D300BB3242384F861
:1027E8003D302268D36823F40053D3602046FFF7B6
:1027F8006FFF2268136923F49043136122685369B9
:1028080023F02A0353612268D36843F40053D3604A
:1028180000202064202384F83D3084F83E3010BD29
:1028280080F83C30FEF7AAFED8E7012070472DE972
:10283800F04182B01E4690F83D30DBB2202B54D1D7
:1028480004460D469046002953D0002A53D090F8EC
:102858003C30012B51D0012380F83C300023036425
:10286800212380F83D30FFF73BF90746A4F8248080
:10287800A4F82680A368B3F5805F05D04FF0000860
:10288800002384F83C3012E0236913B14FF00008AC
:10289800F6E7A8460025F3E738F8023B2268C3F3B9
:1028A80008035360E28C92B2013A92B2E284E38C5C
:1028B8009BB273B100963B46002280212046FFF769
:1028C80051FFE0B9002DE7D015F8012B23685A60B5
:1028D800E8E700963B46002240212046FFF742FFEA
:1028E80078B9202384F83D3000E0022002B0BDE82A
:1028F800F0810120FAE70120F8E70220F6E703203B
:10290800F4E70320F2E790F83D30DBB2202B19D131
:10291800D1B1DAB190F83C30012B19D0012380F8FD
:102928003C3001628284C28400230364212280F83F
:102938003D2080F83C300168CA6842F08002CA60D5
:1029480018467047022070470120704701207047E1
:1029580002207047704708B50168CA6822F0400233
:10296800CA60202280F83D20FFF7F4FF002008BD50
:10297800704708B5406A0023C385C384FFF7F8FF92
:1029880008BD704710B504460268D36823F49073F5
:10299800D3600268536923F001035361036B012B71
:1029A80014D023685A6912F0400F1FD05A6922F0D8
:1029B80040025A61A36B7BB1124A5A63A06BFFF7BE
:1029C80037F9E0B1A06B436B984718E00268D36809
:1029D80023F01003D360E4E70023E385202284F882
:1029E8003E2023632046FFF7CCFF08E00023E38561
:1029F800202284F83E2023632046FFF7C2FF0020F0
:102A080010BD00BF112A000808B5406A0023C3851D
:102A1800202280F83E200363FFF7B3FF08BD70470C
:102A280090F83E30DBB2222B60D18368B3F5805F2B
:102A380046D0826AB3F5805F04D0002B4DD103697C
:102A4800002B4AD103685B681370836A0133836281
:102A5800C38D9BB2013B9BB2C385002B48D100B507
:102A680083B00268D36823F02003D3600268D36878
:102A780023F48073D3600268536923F00103536120
:102A8800202380F83E30036B012B2CD100230363F5
:102A98000268D36823F01003D36003681A6812F041
:102AA800100F06D0002201921A6801925B68019308
:102AB800019B818DFFF7B3FF002003B05DF804FB95
:102AC8000269002AB5D1826A03685B68C3F3080308
:102AD8001380836A02338362BAE703685B6803F092
:102AE8007F031370B1E7FEF72FFFE5E70220704779
:102AF8000020704730B583B0044602681368D06878
:102B0800516913F00F0505D113F0200F02D010F012
:102B1800200F19D12DB111F0010119D110F4907FB6
:102B280016D1216B012975D013F0800F03D010F056
:102B3800800F40F0D78013F0400F03D010F0400F03
:102B480040F0D48003B030BD2046FFF769FFF9E7B5
:102B580013F0010F06D010F4807F03D0226C42F0EE
:102B68000102226413F0040F04D019B1226C42F060
:102B78000202226413F0020F04D019B1226C42F051
:102B88000402226413F0080F07D010F0200F00D1C0
:102B980019B1226C42F008022264226C002AD1D0BA
:102BA80013F0200F02D010F0200F21D123685B69A9
:102BB80003F04003226C12F0080F00D123B3204623
:102BC800FFF73CFD23685A6912F0400F18D05A6984
:102BD80022F040025A61A36B73B1464A5A63A06B54
:102BE800FFF726F80028ADD0A06B436B9847A9E7FC
:102BF8002046FFF715FFD9E72046FFF7B9FEA1E702
:102C08002046FFF7B5FE9DE72046FFF7B1FE0023FB
:102C1800236497E713F0100F86D010F0100F83D0BD
:102C2800002301931368019353680193019B53692F
:102C380013F0400F32D0A16B0B685B689BB2002B7E
:102C480080D0A08D98427FF67DAFE3858B69202BDD
:102C580008D1A18DE38D9BB2C91A89B22046FFF72E
:102C6800DEFE6FE7D36823F48073D360226853696C
:102C780023F0010353612268536923F04003536131
:102C8800202384F83E30002323632268D36823F08E
:102C98001003D360A06BFEF7A9FFDAE7A18DE38DDF
:102CA8009BB2C91A89B2E38D9BB2002B3FF44AAF9D
:102CB80000293FF447AFD36823F49073D3602268A8
:102CC800536923F001035361202384F83E30002325
:102CD80023632268D36823F01003D3602046FFF7EC
:102CE8009EFE2FE72046FFF7C2FC2BE72046FFF7A2
:102CF80032FE27E77B290008034681628285C28568
:102D080000201864222283F83E2083F83C001968CA
:102D1800CA6842F48072CA6019684A6942F00102BE
:102D28004A611A68D36843F02003D360704708B536
:102D380090F83E30DBB2202B0DD171B17AB190F80A
:102D48003C30012B0DD0012380F83C300023036375
:102D5800FFF7D2FF00E0022008BD0120FCE70120B8
:102D6800FAE70220F8E705280ED8DFE800F003109C
:102D78000507090B01207047042070470D20704794
:102D880007207047102070474FF0FF3070470A2027
:102D98007047000000B591B012200F9011230E93D8
:102DA80010230D930F230C930E230B930D230A93DB
:102DB8000C2309930B2308930A23079309230693EB
:102DC80008230593072304930623039305230293FB
:102DD800042301930323009302230122002100F01E
:102DE800ABFA074B1B68002BFBD0054B00221A607F
:102DF800044A0549122000F0D3FA11B05DF804FB2B
:102E0800B0120020C80E00209010002000B583B03A
:102E180000EBC1035A68012300F83130931C00937A
:102E2800531C0021032000F04FFA03B05DF804FBA7
:102E38002DE9F04FA7B0FFF7ADFF364B5A88229225
:102E480099882391D88824901D8925955A8999892C
:102E5800DC891D8A5E8A9F8AB3F816C0B3F818E029
:102E6800B3F81A80B3F81C90B3F81EA0B3F820B0DA
:102E7800588C219012202090CDF87CB04FF0110B87
:102E8800CDF878B0CDF874A04FF0100ACDF870A046
:102E9800CDF86C904FF00F09CDF86890CDF86480AC
:102EA8004FF00E08CDF86080CDF85CE04FF00D0EC5
:102EB800CDF858E0CDF854C04FF00C0CCDF850C008
:102EC80013970B27129711960A2610960F95092526
:102ED8000E950D9408240C940B9107210A910992E0
:102EE80006220892259D079505220692249C0594A2
:102EF800042204922399039103220292229A0192B6
:102F0800022200921B880122002100F091F927B0CB
:102F1800BDE8F08FC80E002038B5054600240AE049
:102F2800002305F834302046FFF71DFF05EBC403E6
:102F380058600134E4B2052CF2D9FFF779FF38BDA7
:102F480000B591B012200F9011230E9310230D930A
:102F58000F230C930E230B930D230A930C23099331
:102F68000B2308930A230793092306930823059341
:102F78000723049306230393052302930423019351
:102F88000323009302230122002100F09DF911B0D0
:102F98005DF804FBF0B5B3B016461F46FFF7E3FE35
:102FA800B0F1FF3F34D00446451E32AB03EBC503F6
:102FB80043E92E6732AB03EBC001DDE9382341E971
:102FC8002E23461C32AB03EBC601DDE93A2341E967
:102FD8002E2304AA29A9122000F02EFB32AB03EB02
:102FE800450332AA02EB440232F8242C32A901EB41
:102FF800460131F8241C0391A11C0291019200960C
:1030080033F8243C22464FF47A71032000F010F97B
:1030180033B0F0BD2DE9F04FA7B004460A4601468B
:10302800122000F009FB63882293A2882392E1888A
:103038002491208925906389A289E189258A668A55
:10304800A78AB4F816C0B4F818E0B4F81A80B4F82F
:103058001C90B4F81EA0B4F820B0608C2190122007
:103068002090CDF87CB04FF0110BCDF878B0CDF8AA
:1030780074A04FF0100ACDF870A0CDF86C904FF006
:103088000F09CDF86890CDF864804FF00E08CDF8A0
:103098006080CDF85CE04FF00D0ECDF858E0CDF82B
:1030A80054C04FF00C0CCDF850C013970B27129753
:1030B80011960A2610960F9509250E950D9108214F
:1030C8000C910B9207220A92099306230893259DD7
:1030D8000795052306932499059104230493239ABD
:1030E800039203230293229B0193022300932388D4
:1030F80001224FF47A7100F09BF827B0BDE8F08FF9
:1031080030B5AFB00446CDE90A23CDE90C23CDE9AB
:103118000E23CDE91023CDE91223CDE91423CDE9FF
:103128001623CDE91823CDE91A23CDE91C23CDE9CF
:103138001E23CDE92023CDE92223CDE92423CDE99F
:103148002623CDE92823CDE92A23CDE92C230AAA71
:103158000146122000F070FA2389E289A18A608B67
:10316800258C09951125089507900E200690059144
:103178000B210491039208220292019305230093E4
:10318800638802224FF47A71062000F051F82FB0BC
:1031980030BD30B5AFB00446CDE90A23CDE90C23E4
:1031A800CDE90E23CDE91023CDE91223CDE914236F
:1031B800CDE91623CDE91823CDE91A23CDE91C233F
:1031C800CDE91E23CDE92023CDE92223CDE924230F
:1031D800CDE92623CDE92823CDE92A23CDE92C23DF
:1031E8000AAA0146122000F027FA6389228AE18A96
:1031F800A08B658C09951225089507900F200690DD
:1032080005910C2104910392092202920193062050
:103218000090A38803224FF47A7100F009F82FB0C8
:1032280030BD0000014B1860704700BF3C13002000
:103238000EB430B582B005AB33F8042B0193431EAE
:10324800DBB21F2B37D81E4B55215970197000EB74
:103258004001053199700321D97018715A71120A09
:103268009A714FF0000E07231AE001990A1D019286
:1032780003F1010C5FFA8CFC0D78114CE55401F157
:10328800080201924A68991CC9B204F80C20033359
:10329800DBB2C2F3072262540EF101025FFA82FE2A
:1032A8008645E2D306498A784FF0FF330232054853
:1032B8000068FFF7BCFA02B0BDE8304003B07047C1
:1032C800BC1200203C1300200EB410B583B006AB2E
:1032D8000193431EDBB21F2B24D8154B55225A707D
:1032E8001A70C21C9A701422DA7018710023052211
:1032F8000DE001990C1D019402F1010C91F800E018
:103308000B4901F802E00133DBB25FFA8CF2834229
:10331800EFD307498A784FF0FF3302320548006837
:10332800FFF785FA03B0BDE8104003B0704700BF4F
:10333800BC1200203C1300200EB410B583B0154B0E
:1033480055221A705A70C21C9A701522DA701871B8
:1033580006AB0193002305220DE001990C1D019491
:1033680002F1010C91F800E00A4901F802E001338A
:10337800DBB25FFA8CF28342EFD306498A780232D5
:10338800054B1868FFF7BFFA03B0BDE8104003B05B
:10339800704700BFBC1200203C1300200000000052
:1033A8002DE9F04105460E461746002414E037F88B
:1033B8001400FDF787F80022934BFCF735FF002235
:1033C800924BFDF713FA06EBC4080022904BFDF769
:1033D800E3F8C8E900010334A54216DD0C2CE6D059
:1033E80037F81400FDF76EF80022884BFCF71CFF35
:1033F8000022864BFDF7FAF906EBC4080022844B3D
:10340800FDF7CAF8C8E90001E5E701241BE037F831
:103418001400FDF747F800227E4BFCF705FF72A366
:10342800D3E90023FDF7E2F902460B4600207A496A
:10343800FCF7FAFE06EBC4080022754BFDF7ACF862
:10344800C8E900010334A5421DDB072CDFD037F89B
:103458001400FDF727F80022704BFCF7E5FE64A383
:10346800D3E90023FDF7C2F902460B4600206A495A
:10347800FCF7DAFE06EBC4080022654BFDF78CF872
:10348800C8E90001DEE7022414E037F81400FDF76C
:1034980009F80022624BFCF7C7FE0022614BFDF7DA
:1034A800A5F906EBC4080022594BFDF775F8C8E9E1
:1034B800000103346B1CA342C0F29280A31E0F2BA1
:1034C800F7D801A252F823F093340008BB3400085F
:1034D800BB34000811350008BB340008BB340008B1
:1034E8003D350008BB340008BB34000867350008C8
:1034F800BB340008BB34000891350008BB34000811
:10350800BB340008BF35000837F81400FCF7CAFFC1
:103518000022454BFCF788FE35A3D3E90023FDF7CD
:1035280065F906EBC4080022394BFDF735F8C8E900
:103538000001BEE737F81400FCF7B4FF00223B4B4C
:10354800FCF772FE0022374BFDF750F906EBC40872
:1035580000222F4BFDF720F8C8E90001A9E737F84A
:103568001400FCF79FFF0022314BFCF75DFE0022A0
:103578002C4BFDF73BF906EBC4080022244BFDF762
:103588000BF8C8E9000194E737F81400FCF78AFF44
:1035980019A3D3E90023FCF747FE19A3D3E90023B5
:1035A800FDF724F906EBC4080022194BFCF7F4FFD9
:1035B800C8E900017DE737F81400FCF773FF002223
:1035C8001C4BFCF731FE0022164BFDF70FF906EBFA
:1035D800C40800220E4BFCF7DFFFC8E9000168E7CA
:1035E800BDE8F081AFF300800000000000F07740F4
:1035F80000000000002077400000000000A06640A6
:10360800000000000010774000807B4000407F40B1
:103618000080564000006E400000F03F0000694006
:1036280000005E40008076400000684000E0804076
:103638000080514000408540F8B505460E461746C3
:10364800002414E007EBC4010022954BD1E90001E6
:10365800FDF7CCF80022934BFCF79EFF0022924B1B
:10366800FCF7E4FDFDF7AAF926F814000334A54297
:1036780016DD0C2CE6D007EBC4010022884BD1E9FB
:103688000001FDF7B3F80022864BFCF785FF002206
:10369800844BFCF7CBFDFDF791F926F81400E5E71C
:1036A80001241BE007EBC40100227D4BD1E9000196
:1036B800FDF79CF802460B4600207C49FCF7B4FD58
:1036C8006FA3D3E90023FCF767FF0022784BFCF7D0
:1036D800ADFDFDF773F926F814000334A5421DDB90
:1036E800072CDFD007EBC40100226D4BD1E90001A4
:1036F800FDF77CF802460B4600206C49FCF794FD68
:1037080061A3D3E90023FCF747FF0022694BFCF7CC
:103718008DFDFDF753F926F81400DEE7022414E0C6
:1037280007EBC40100225E4BD1E90001FDF75EF80A
:103738000022614BFCF730FF0022604BFCF776FD5E
:10374800FDF73CF926F8140003346B1CA342C0F2C1
:103758009380A31E0F2BF7D801A252F823F000BFC5
:10376800293700085137000851370008A9370008E1
:103778005137000851370008D5370008513700087D
:1037880051370008FF370008513700085137000843
:103798002938000851370008513700085738000801
:1037A80007EBC40100223E4BD1E90001FDF71EF8EA
:1037B80035A3D3E90023FCF7EFFE0022404BFCF7CA
:1037C80035FDFDF7FBF826F81400BDE707EBC4014B
:1037D8000022334BD1E90001FDF708F80022364BEF
:1037E800FCF7DAFE0022374BFCF720FDFDF7E6F880
:1037F80026F81400A8E707EBC4010022284BD1E9FA
:103808000001FCF7F3FF00222B4BFCF7C5FE00225A
:103818002D4BFCF70BFDFDF7D1F826F8140093E7C4
:1038280007EBC40100221E4BD1E90001FCF7DEFFC3
:1038380017A3D3E90023FCF7AFFE17A3D3E90023AE
:10384800FCF7F4FCFDF7BAF826F814007CE707EB60
:10385800C4010022124BD1E90001FCF7C7FF002286
:10386800154BFCF799FE0022184BFCF7DFFCFDF71F
:10387800A5F826F8140067E7F8BD00BFAFF300808D
:103888000000000000F077400000000000207740B2
:1038980000000000001077400000000000A0664013
:1038A8000080564000407F4000807B400000F03F91
:1038B80000006E40000069400080764000005E40D5
:1038C8000000684000E08040008051400040854092
:1038D800014B1868704700BFFC03002070B50D4EFF
:1038E8000D4D761BB61006D0002455F8043B013464
:1038F8009847A642F9D1094E094D09F077FD761B84
:10390800B61006D0002455F8043B01349847A64267
:10391800F9D170BDFCDA0008FCDA000804DB000805
:10392800FCDA0008830730B548D0541E002A3FD07F
:103938000346CAB201E0013C3AD303F8012B9D07C4
:10394800F9D1032C2DD9CDB245EA05250F2C45EA2E
:10395800054536D9A4F1100222F00F0C03F1200E10
:10396800E6444FEA121C03F1100242E9045542E909
:10397800025510327245F8D10CF1010214F00C0F07
:1039880003EB021204F00F0C13D0ACF1040323F084
:1039980003030433134442F8045B9342FBD10CF055
:1039A80003042CB1CAB21C4403F8012B9C42FBD17E
:1039B80030BD64461346002CF4D1F9E7034614469B
:1039C800BFE71A46A446E0E70EB430B504466FF0E8
:1039D80000459CB00B4A1FAB0B49059253F8042BCA
:1039E800086802A9CDE9013407950495069400F00A
:1039F800AFF80022029B1A701CB0BDE8304003B03B
:103A0800704700BF0802FFFFFC0300200EB44FF40C
:103A18000172F0B59CB021AD55F8047BADF81420C7
:103A28000290069000F066F8002604464FF6FF7CE8
:103A38000A4B0B490A933A462B46086802A9019596
:103A48000E961396ADF816C00394079401F0D2FDB4
:103A58001CB0BDE8F04003B0704700BF913A0008C1
:103A6800FC03002010B50C46B1F90E1005F072FBEE
:103A7800002803DB236D0344236510BDA38923F4C9
:103A88008053A38110BD00BF002070472DE9F0418D
:103A98000C46B1F90C101F46CB05054616460BD44B
:103AA80021F48051A1813B4632462846B4F90E10D4
:103AB800BDE8F04103F01EB9B4F90E10022300224C
:103AC80004F0D2FAB4F90C10EAE700BF10B50C46BE
:103AD800B1F90E1004F0C8FAA389421C0EBF23F4F2
:103AE800805343F480532065A38110BDB1F90E10B3
:103AF80003F026B920F0030110F00300C0F1000024
:103B080051F8043B00F1040C4FEACC0C6FF00002B2
:103B18001CBF22FA0CF213434FF0010C4CEA0C2C98
:103B28004CEA0C4CA3EB0C0222EA030212EACC1278
:103B380004BF51F8043B0430F4D0C2F1000102EA9A
:103B48000102B2FA82F2C2F11F0200EBD200704702
:103B58002DE9F04FD5B00C460C9191460E930A9082
:103B680004F076FA036818461793FFF7C3FFA38992
:103B78001690190603D52369002B00F08F870024BF
:103B88002BAB224698464D46CDE9294428931294FA
:103B980000230024CDE914342B78CDE91922CDE98E
:103BA8001B2218920892002B00F0CE81AA4604E04E
:103BB8001AF8013F002B00F00981252BF8D1BAEB48
:103BC800050640F007819AF80030002B00F0BC8110
:103BD80000234FF0FF324FF02B0920241F469AF89C
:103BE800016007920AF1010A8DF8833009930AF1FE
:103BF800010AA6F120035A2B00F22081DFE813F016
:103C0800CA021E011E01C5021E011E011E01A302D9
:103C18001E011E016A00F3021E014702D9021E019D
:103C2800D4025B005B005B005B005B005B005B0039
:103C38005B005B001E011E011E011E011E011E010C
:103C48001E01B0011E010B027A00B001B001B001E3
:103C58001E011E011E011E019E021E011E01B6004C
:103C68001E011E011E0119021E014C021E011E0129
:103C78003F071E011E011E011E011E011E011E011D
:103C88001E01B0011E010B027C00B001B001B001A1
:103C980091027C0075001E0184021E017002B800AA
:103CA8005E0275001E01190272001C071E011E012A
:103CB8001F071E0172000022A6F130031AF8016BDB
:103CC80002EB820203EB4202A6F13003092BF5D97D
:103CD80009928EE70E9B53F8042B002A09920E9343
:103CE800C0F2D2819AF8006081E79AF8006047F044
:103CF80020077CE747F01007BA060E9B40F17D814C
:103D0800073323F007031A465B6852F8084B9946B5
:103D18000E92002BC0F27F85079B013301F039809A
:103D280054EA090327F0800B00F005850A2C79F185
:103D3800000380F0938701235F4630348DF84F41AC
:103D48000B930DF24F15079A0B9900238A42B8BFBF
:103D58000A4606929DF883200D930F9313931093B0
:103D6800002A7CD0069B0133069378E047F01007C1
:103D780017F0200900F032810E9B073323F0070368
:103D8800D3F8049053F8084B0E93002327F4806B64
:103D980000228DF88320079A511C00F02A8254EAE9
:103DA80009012BF0800740F02382002A41F02B8084
:103DB800002B40F0C5841BF001030B9300F05485E1
:103DC80030230DF24F158DF84F31BCE7BAEB0506DD
:103DD80000F0BA802A9BC8E9005633442A93299BED
:103DE8000133072B299305DC08F10808089B3344A5
:103DF8000893E8E60C990A9828AA06F0F3FE80B919
:103E08000DF1AC08F2E70C990A9828AA06F0EAFE28
:103E1800002800F08A800D9B1BB10D990A9804F0C8
:103E280003F80C9B9B8913F0400F089B18BF4FF0B9
:103E3800FF330893089855B0BDE8F08F002E00F0C6
:103E48008380012300228DF8EC6006933BAD8DF84A
:103E580083200B930D9207920F921392109217F0F2
:103E6800020302D006990231069117F0840B07D19C
:103E780009990698A1EB0009B9F1000F00F3368300
:103E88002A9C82B10122C8F80420299A01340132FF
:103E98000DF18301072A2A942992C8F8001000F32B
:103EA800698308F108087BB10223C8F80430299B0C
:103EB8000234013321AA072B2A942993C8F8002039
:103EC80000F36C8308F10808BBF1800F00F02E8224
:103ED800079B0B9AA3EB020BBBF1000F00F3718257
:103EE800FB0500F1C5810B9BC8F800501C44C8F8BD
:103EF8000430299B2A940133072B299300F3EA8283
:103F080008F108087B0705D5099B069A9D1A002D1C
:103F180000F35083DDE9083206998A42ACBF9B184A
:103F28005B180893002C7FF46EAF002329930D9B38
:103F38001BB10D990A9803F077FF55460DF1AC08AF
:103F48002B78002B7FF432AE2A9B002B3FF469AF0D
:103F58000C9C0A98214628AA06F044FEA38962E729
:103F68000E9B073323F00702F2E80234CDE914343C
:103F7800DDE9143424F00044994618460E9221468F
:103F88004FF0FF32B64BFCF737FE002840F096841E
:103F9800484621464FF0FF32B14BFCF70FFE002890
:103FA80040F08C84DDE9140100220023FCF7FCFDBD
:103FB800002840F0A6879DF8832000210320A94D02
:103FC800A94B27F080070D910690472EC8BF1D46C4
:103FD80007910B900F9113911091C1E617F0100300
:103FE80040F0628417F0400200F07B870E9A9946F1
:103FF80052F8044B0E92A4B2C7E653F8044B0E9342
:10400800FB0600F141847D0640F13B8444F3C0394E
:104018004B4624B27DE6012000220E9B069053F801
:10402800041B3BAD8DF883208DF8EC100E930B909C
:1040380010E74FF000090E9C079B54F8045B8DF8BD
:104048008390002D00F0EE865A1C00F060851A4619
:104058004946284604F012FB0D90002801F09E8086
:104068000D9B9DF883205B1B0B9323EAE373CDF82C
:104078001C900E940693CDF83490CDF83C90CDF872
:104088004C90CDF840906BE6099B5B4209939AF8F7
:10409800006047F00407AAE547F0100B1BF0200961
:1040A80000F0AA830E9B073323F007031A4652F841
:1040B800084BD3F804900E92012369E63022782643
:1040C8000E9B8DF8842053F8044B684A0E934FF0EA
:1040D8000009022347F0020B8DF88560189257E615
:1040E800BD0600F1D683FC0600F19386780600F140
:1040F8005D87B90540F18D860E9B089953F8042B0E
:10410800554611700E931BE79AF800606C2E03BF9A
:104118009AF8016047F020070AF1010A47F01007F2
:1041280065E59AF80060682E03BF9AF8016047F4C5
:1041380000770AF1010A47F0400758E59AF800604D
:1041480047F0080753E50A9E304603F081FF4368AD
:1041580018461B93FFF7CEFC034630461C931E46B9
:1041680003F076FF83681993002E3FF4BBAD199BCB
:10417800002B3FF4B7AD199B1B78002B3FF4B2AD71
:104188009AF8006047F4806731E59AF8006047F0D4
:1041980001072CE59DF88330002B7FF4A3AD9AF836
:1041A80000608DF8834022E59AF8006047F08007A8
:1041B8001DE5524612F8016B2A2E01F0EB81A6F19B
:1041C8003003092B924698BF002201F203801AF8A7
:1041D800016B02EB820203EB4202A6F13003092BCA
:1041E800F5D9079205E59AF800608DF88390FEE40A
:1041F800BB46012B3FF49AAD022B54AD12D1189A4D
:1042080004F00F03D35C240944EA09744FEA19192E
:1042180005F8013D54EA0903F2D154AB5B1B5F4634
:104228000B9390E504F00703E40844EA49744FEA65
:10423800D909303354EA09012A4605F8013DF1D17C
:104248001BF0010FE9D0302BE7D03023023A05F8F4
:10425800013C54AB9B1A5F4615460B9373E500BFB0
:10426800FFFFEF7FD8D40008DCD40008E8D40008AA
:10427800652E40F3E980DDE9140100220023FCF7F4
:1042880089FC002800F0D2810123C8F80430299B5A
:10429800BF4A01330134072B2A942993C8F8002018
:1042A80000F37A8508F10808229B129A934280F25B
:1042B800D782169B179A1C44C8E90023299B2A9485
:1042C8000133072B299300F3DD8308F10808129BBB
:1042D8005D1E002D7FF716AE102D41F34181DFF8EA
:1042E800B492224649461026B946299B0F46DDF866
:1042F80028B00C9C05E008F10808103D102D40F38B
:10430800588501331032072BC8E90076CDE92932E8
:10431800F1DD2146584628AA06F064FC00287FF4FF
:104328007AADDDE929320DF1AC08E6E7099B069A7A
:10433800A3EB020BBBF1000F7FF7CAADBBF1100F67
:1043480041F30580DFF84C9241462046A8464C468A
:104358001023299A0C9DDDF8289006E0ABF1100B8C
:10436800BBF1100F01F1080119DD01321030072AE5
:10437800C1E90043CDE92920F0DD2946484628AAAD
:1043880006F030FC00287FF446ADDDE92920ABF1CA
:10439800100BBBF1100F4FF010032BA9E5DC4546BD
:1043A800A1468846044601325C44072ACDE92924FF
:1043B800C8F80090C8F804B000F3188508F1080898
:1043C80086E5BBF1100F40F39785DFF8C8914146A9
:1043D8002046A8464C461023299A0C9DDDF82890C3
:1043E80006E0ABF1100BBBF1100F01F1080119DD6C
:1043F80001321030072AC1E90043CDE92920F0DD58
:104408002946484628AA06F0EDFB00287FF403ADAC
:10441800DDE92920ABF1100BBBF1100F4FF01003B1
:104428002BA9E5DC4546A1468846044601325C4492
:10443800072ACDE92924C8F80090C8F804B000F389
:10444800CE8108F108084BE5129B012B40F37E81D1
:104458000123299E01341E44072EC8F800502A94CF
:10446800C8F80430299600F3E18108F10808169B82
:104478000136179A1C44072EC8E90023CDE92964A0
:1044880000F3E18108F108080022DDE914010023A6
:10449800FCF780FB002840F07681129B0136013B37
:1044A80001351C44072EC8F800502996C8F8043076
:1044B8002A9400F35B8108F108081A9B01361C4412
:1044C800C8F80430072E24ABCDE92964C8F80030B9
:1044D8007FF716AD0C990A9828AA06F083FB0028E6
:1044E8007FF499AC2A9C0DF1AC080BE5B9F1100FDB
:1044F80040F35086DDE929214046CDE91D36B8460E
:1045080010244F460C9EA9460A9D04E0103F102F28
:1045180000F1080016DD01321F4B1031072AC0E9EF
:104528000034CDE92921F1DD3146284628AA06F0D4
:1045380059FB00287FF46FACDDE92921103F102FCB
:104548002BA8E8DC4D46DDE91D36B94647468046CE
:1045580009EB010401321049072ACDE92924C8F8DA
:104568000490C8F8001000F3C3839DF8832008F175
:10457800080886E40C990A9828AA1D9306F032FBCD
:1045880000287FF448AC2A9C1D9B0DF1AC088AE4F6
:1045980018D500082CD500081CD500080C990A98D5
:1045A80028AA06F01FFB00287FF435AC2A9C0DF1E1
:1045B800AC0889E4102D40F3C4861026299B0A9F75
:1045C800DDF8309004E0103D102D08F1080817DDE3
:1045D8000133B84A1034072BC8E90026CDE929343D
:1045E800F1DD4946384628AA06F0FCFA00287FF48F
:1045F80012ACDDE92934103D102D0DF1AC08E7DCD3
:104608000133AC4A2C44072BCDE92934C8F80450AF
:10461800C8F800207FF77EAC0C990A9828AA06F003
:10462800E1FA00287FF4F7AB2A9C73E42299002969
:1046380040F36F83DDF84090129B9945A8BF9946D7
:10464800B9F1000F0BDD299B4C440133072BC8E956
:1046580000592A94299300F31D8508F10808109E33
:10466800B9F1000FA8BFA6EB0906002E00F32582BA
:10467800DDF840B07805AB4400F15F82229B129AC6
:10468800934202DBF90740F17684169A179914448D
:10469800C8E90012299A2A940132072A299200F3BC
:1046A800138508F10808129AAE18A6EB0B06D51A5E
:1046B800AE42A8BF2E46002E0DDD299B344401339F
:1046C800072BC8F800B0C8F804602A94299300F3AF
:1046D800718508F10808002EA8BFAD1B002D7FF7D3
:1046E80011AC102D40F33C87DFF8CC9122464946A7
:1046F8001026B946299B0F46DDF828B00C9C05E02A
:1047080008F10808103D102D40F35383013310328F
:10471800072BC8E90076CDE92932F1DD2146584654
:1047280028AA06F05FFA00287FF475ABDDE9293284
:104738000DF1AC08E6E7079B002B7FF4FCAA5F4667
:10474800002354AD07930B93FFF7FDBAFA073FF523
:104758007FAE0123299E01341E44072EC8F800505D
:104768002A94C8F8043029967FF7A5AE0C990A98C0
:1047780028AA06F037FA00287FF44DABDDE9296452
:104788000DF1AC0899E6129B5D1E002D7FF795AEE2
:10479800102D40F3DF86224607974FF0100BDFF805
:1047A80018910A9C0C9F05E008F10808103D102D8F
:1047B80040F37F8301361032072EC8E9009BCDE90C
:1047C8002962F1DD3946204628AA06F00BFA0028AE
:1047D8007FF421ABDDE929620DF1AC08E6E70C991D
:1047E8000A9828AA06F0FEF900287FF414AB2A9C40
:1047F8000DF1AC08FFF774BB1BF010030E9A3AD109
:104808001BF0400133D052F8044B99460E92012315
:10481800A4B2FFF7BDBA2D2364428DF88330BB469E
:104828004FF0010369EB4909FFF7B5BA0C990A98EB
:1048380028AA06F0D7F900287FF4EDAADDE9296453
:104848000DF1AC0813E60C990A9828AA06F0CAF9E3
:1048580000287FF4E0AADDE929640DF1AC0813E62D
:10486800FD077FF54FAB24E554ADFFF76CBA1BF499
:10487800007940F08A8352F8044B01230E92FFF727
:1048880087BAB80500F19B834FEAE4794B46FFF7F6
:1048980040BA0E9B089853F8041BC2175546C1E945
:1048A80000020E93FFF74CBB0E9B53F8044B0E937C
:1048B800FFF76BBA1CD500082CD50008DDE91401F8
:1048C80002460B46FCF798F9002840F0E985612E6E
:1048D80000F07D85412E00F08B84079B013300F0AA
:1048E8008F8326F02003472B069300F08F85DDE9A0
:1048F800141247F480730F931346002BC0F2B0854F
:104908000B9300238B461D930D93069B462B00F0BB
:10491800E983452B00F0468507990B9B01910221FD
:10492800009126A9049123A9039122A95A460A981D
:10493800029102F0ADFA069B0546472B40F03A86F5
:1049480017F0010FB9460F9F40F0FE84269B5B1BB2
:104958001293069B472B00F06E83069B462B00F0B4
:10496800F083229B1093109B069A013B412A2293C5
:1049780000F0BB850021F2B2002B8DF89020B6BF65
:104988002D222B22109B8DF89120B8BFC3F1010373
:10499800092B40F39B850DF19F0C6246B64F1C46D0
:1049A800104687FB0312D917C1EBA20101EB810264
:1049B800A3EB42023032632C00F8012C0B4600F1C5
:1049C800FF32ECDC3033811EDBB28C4502F8013C4F
:1049D80040F2F9850DF1920101E012F8013B94458E
:1049E80001F8013BF9D10DF1A1030DF192021B1A57
:1049F800134424AA9B1A1A93129B1A9A012B1A443D
:104A08000B9240F381850B9B169A13440B9300235A
:104A18000B9A29F4806722EAE27247F480770F93B1
:104A28000692139310931D9B002B40F02C839DF846
:104A380083200793FFF794B9BB46FFF72FBB8F4B33
:104A4800189317F0200900F0F5800E9B073323F028
:104A58000703D3F8049053F8084B0E93F80709D5C9
:104A680054EA090306D030238DF8856047F0020721
:104A78008DF88430022327F4806BFFF789B9804BC7
:104A88001893DEE70C990A9828AA06F0ABF80028D4
:104A98007FF4C1A92A9C0DF1AC0818E440210A98BA
:104AA80003F008FB0C9B18601861002800F097853C
:104AB80040230C9A5361FFF762B8102E40F37685B5
:104AC800DFF8C091424648462146A846B9464FF00D
:104AD800100B0746299B0A9C0C9D04E00832103EE7
:104AE800102E40F3138201331031072BC2E9007BEB
:104AF800CDE92931F2DD2946204628AA06F072F8C8
:104B080000287FF488A9DDE929312BAAE7E72846A0
:104B1800CDF81C900E94FEF7EDFF20EAE0739DF8A7
:104B280083200B90CDF83490CDF83C90CDF84C9084
:104B3800CDF840900693FFF713B9129B4246DDF873
:104B48004C80EB185E460793CDF82CA010972146B1
:104B5800199FDDF87090DDF828A0DDF830B00F9BC4
:104B68001395B8F1000F2ED083BB013F08F1FF3831
:104B78001B9B4944C2E90039299B2A910133072B21
:104B8800299360DC0832079B38789B1B8342A8BFB7
:104B98000346002B1C460BDD2998194401300728D1
:104BA800C2E900632A91299000F314813878083209
:104BB800002CB4BF0546051B002D0BDC06440F9BDB
:104BC800B8F1000FD0D1002B00F026820F9B013BDB
:104BD8000F93CDE7102D40F39D841024299804E00D
:104BE800103D102D02F1080216DD0130254B103161
:104BF8000728C2E90034CDE92901F1DD59465046BC
:104C080028AA05F0EFFF00287FF405A9DDE92901AE
:104C1800103D102D2BAAE8DC01301A4B2944072837
:104C2800CDE929015560136000F3418238780832D4
:104C38000644C4E717F0100300F0A0800E9B53F859
:104C4800044B0E930AE75946504628AA05F0CAFFB6
:104C580000287FF4E0A82A992BAA94E700230BF4F4
:104C680080620696CDF82CA0CDF8348092461E4678
:104C7800DDF8648054AF14E067666666E8D400081F
:104C8800FCD400082CD500080023204649460A22F7
:104C9800FCF740F80A2C79F100031BD30446894637
:104CA8002F4620460A2200234946FCF733F83032C3
:104CB8007D1E013607F8012CBAF1000FE4D098F8F0
:104CC80000309E42E0D1FF2EDED00A2C79F100039D
:104CD80080F0308154AB5B1BDDF82CA0CDF86480EC
:104CE80012965F46069EDDF834800B93FFF72BB8CB
:104CF8000C990A9828AA1D9305F074FF00287FF4E0
:104D08008AA89DF883202A9C1D9B0DF1AC08FFF70B
:104D1800B8B80123C8F80430299BBC4A01330134D0
:104D2800072B2A942993C8F8002000F3178108F16B
:104D38000808002940F08680129A07F001031343FF
:104D48003FF4E0A8169B17991A19C8E90013299B84
:104D58002A920133072B299300F3378108F10808B9
:104D6800129901338C18072BCDE92934C8F8005063
:104D7800C8F804107FF7C4A8FFF7ACBB17F04002CF
:104D880000F0A5800E9A994652F8044B0E92A4B2F0
:104D980064E6BB46FEF7CABF0C990A9828AA05F034
:104DA80021FF00287FF437A82A9C0DF1AC08FFF7F3
:104DB8007BBA14463A464F46914601332C44072B9A
:104DC800C8F80090C8F80450CDE929347FF798A8AE
:104DD800FFF780BB5946504628AA05F003FF002874
:104DE8007FF419A838782A992BAAE1E60C990A9831
:104DF80028AA05F0F7FE00287FF40DA82A9C0DF1DB
:104E0800AC08FFF765B8012BBB467FF4F5A9FEF7A0
:104E180092BF0E9B089953F8042B554611600E93C8
:104E2800FFF78EB8062B294628BF06232A46079582
:104E38000D950693764D0E940B930F911391109147
:104E4800FEF78EBF169B17981A19C8E90003299B0D
:104E58002A920133072B299300F3B78008F1080839
:104E68000029BFF67DAF4E42103180F2A98341463A
:104E78001024A846DFF89C91DDF828B00C9D04E0CA
:104E88000831103E102E40F3A78201331032072B51
:104E9800C1E90094CDE92932F2DD2946584628AA0D
:104EA80005F0A0FE00287EF4B6AFDDE929322BA973
:104EB800E7E71446079F01362C44072ECDE92964FD
:104EC800C8F80090C8F804507FF7F5AA4EE417F424
:104ED80000790E9B66D053F8044B91460E93E4B2CA
:104EE800BCE517F400790E9B57D053F8044B914654
:104EF8000E93E4B2FEF749BF299ADFF81891FFF73D
:104F080095BA2D228DF88320FFF757B8454690466D
:104F18003A460C464F46914601333444072BCDE9B7
:104F28002934C8F80090C8F804605CDC08F1080867
:104F3800FFF79EBB1C9B1B99ED1A1A46284604F0E6
:104F4800ABFB98F801300BB108F10108204649463F
:104F58000A2200230026FBF7DDFE9FE60C990A983B
:104F680028AA05F03FFE00287EF455AF22992A9C16
:104F78000DF1AC08DDE6129AAE18A6EB0B06D51AB1
:104F8800AE42A8BF2E46FFF7A6BB52F8044B89468F
:104F980001230E92E4B2FEF7FBBE53F8044B0E93C6
:104FA800FEF7F3BE53F8044B0E9357E50E9B089992
:104FB80053F8042B554611800E93FEF7C1BF44F3F6
:104FC800C0194B4664B2FEF7A4BE0C990A9828AAE9
:104FD80005F008FE00287EF41EAFDDE9293222998B
:104FE8000DF1AC083CE70C990A9828AA05F0FAFDDF
:104FF80000287EF410AF2A9C0DF1AC08FFF738BBEF
:105008000623079326F02003069370E418D50008BA
:1050180010D500082CD50008DDE91235EB189E42A2
:10502800B346199790460C4628BF9B46DDF82CA03E
:10503800109FFFF723BB229BDA1C109302DB079A11
:10504800934204DD023E26F0200306938BE4109B76
:10505800129A9342C0F2C28019F0010F00F01D822B
:10506800169A13440B9319F4806F00F01482109B66
:105078006726002B76DC0B9B23EAE3730693002359
:105088000F931393CFE42D2200238DF883200793E9
:10509800FEF768BE0C990A9828AA05F0A3FD002817
:1050A8007EF4B9AE2A9C0DF1AC08FFF7D8BA594680
:1050B800504628AA05F096FD00287EF4ACAE387854
:1050C8002A992BAA06447AE50C990A9828AA05F089
:1050D80089FD00287EF49FAE229B2A9C0DF1AC0826
:1050E800FFF7E1BA07990B9B01910321009126A9CB
:1050F800049123A9039122A95A460A98029101F022
:10510800C7FE03780546302B00F01682229B079ACB
:10511800B94613440F9FEC185846002200230B99F8
:10512800FBF738FD08B1234611E4269BA342BFF4E0
:105138000EAC30215A1C26921970269B9C42F9D835
:1051480005E4229A002A109240F30E82079909F08A
:1051580001030B4340F07E816626109B0B9319F4E4
:10516800806F88D019990B78FF2B00F025820024D6
:10517800109A204604E001300131FF2B00F05981DC
:10518800934280F25681D21A4B78002BF3D10B78D8
:105198000134F2E7DDE92921FFF7DAB9079B9DF829
:1051A80083200E9406930B9307900F901390109002
:1051B800FEF7D6BD0C990A9828AA05F013FD002819
:1051C8007EF429AE229D129B2A9C0DF1AC085D1B32
:1051D800FFF781BA00230793FEF70BBD129B169ABF
:1051E8009A18109B0B92002B40F385816726B6E72F
:1051F80030238DF8843058238DF88530079B47F08D
:105208000204632B00F3C48000233BAD0D9347F4E5
:1052180081730F93DDE914121346002B2746C0F261
:1052280084800B9300238B461D9326F0200306935E
:10523800612E00F01881412E7FF467AB22AA5846F0
:105248000B9904F095F900224FF07F53FBF7A4F96E
:1052580002460B46CDE9102300220023FBF79AFCF7
:1052680008B101232293AD4B0B93079BCDE912A6FE
:10527800CDE91E78DDE91067AB46DDF82CA003F117
:10528800FF39109506E00022002309F1FF39FBF7EA
:1052980081FCE8B90022A24B30463946FBF77CF97D
:1052A8000F460646FBF7BEFC0446FBF70BF90B4618
:1052B800024639463046FAF7B7FF1AF80430B9F112
:1052C800FF3FD8464D4606460F460BF8013BDAD15C
:1052D800304639460022934BA946DDF848A0109D78
:1052E800CDF84880CDE91001DDF87C80139E1E9F23
:1052F800FBF778FC80BBDDE910010022894BFBF746
:1053080049FC08B1E10727D44B46002B06DB3022C5
:1053180001335B440BF8012B5B45FBD1ABEB050379
:10532800B94612930F9FFFF714BB26F0200306938C
:105338002D22DDE914349B4604F100431D920B93A2
:1053480076E7299BFFF75CB9079BEC18E4E6299AF6
:10535800DFF8D491FFF727B8129B26930B9B1BF815
:10536800012CD97B5B468A4209D1302003F8010C15
:10537800269B5A1E269213F8012C9142F6D0392A00
:105388000BBF0B9A0132927AD2B203F8012CC5E70F
:105398000A98591C02F08EFE0546002800F0178175
:1053A8000D9034E70221009107995A464C1C26A912
:1053B800049123A9039122A90B9B0A9801940291B5
:1053C80001F066FD0546B9462C440F9FA4E630233C
:1053D8008DF8843078230FE74546884601333244F8
:1053E800072BCDE92932C8F80090C8F804607FF788
:1053F800B5AC0C990A9828AA05F0F4FB00287EF4AD
:105408000AADDDE929320DF1AC08A9E4079B002BB0
:1054180008BF0123079347F480730F93159B002B54
:10542800C0F2B680DDF850B00D900B931D90FFF7D9
:1054380073BA1991109213900F940F9A139B1C9999
:1054480013440B9A01FB03230B9323EAE37306939C
:10545800FFF7E9BA169B6626D31819440B917EE626
:1054680000230D9364E722AA58460B9904F080F8AC
:1054780000224FF07F53FBF78FF802460B46CDE929
:10548800102300220023FBF785FB08B10123229398
:10549800264B0B93E9E66726EDE5109B0B93E2E5B7
:1054A800159B0320002BB8BF2D224FF00003A8BF87
:1054B8009DF8832019460D931D4D1E4BB8BF8DF8DE
:1054C800832027F080070690FEF77FBD002944D18E
:1054D80030228DF892200DF19302303302F8013B0F
:1054E80024ABD31A1A93FFF787BA06F10F020121EA
:1054F800D2B2FFF741BAC3F101031A4422EAE273B8
:1055080067260B920693BAE519F0010F3FF47FAABC
:10551800FFF779BA2998FFF77FBB00BFFCD40008D2
:10552800000030400000E03F2CD50008E8D4000817
:10553800E0D40008E4D400085846002200230B9960
:10554800FBF728FB00287FF4E1AD079BC3F10103BB
:105558002293DCE5DFF89890ADE40DF19202BCE708
:10556800299BDFF88C9028E4079A09F0010959EA89
:10557800020304D10123662606930B937FE5169B4D
:10558800662601331A4422EAE2730B92069376E503
:105598000D90CDE60E9B9AF80160924653F8042BC5
:1055A8000E9342EAE2730793FEF721BB299BDFF8CB
:1055B8004090B1E4079C06E700230F9313933CE760
:1055C800DFF82C900AE702231A93FFF715BA0C9913
:1055D8008B8943F0400213468A81FEF724BC4FF0C2
:1055E800FF320C2308920A9A1360FEF723BC00BF0F
:1055F8002CD500082DE9F04FADF5317D02AF7B6267
:10560800B1F90C30814698048A4608D4496E43F4AF
:10561800005321F40051AAF80C30CAF8641013465C
:1056280013F8012BFB637A64002A01F0C080002381
:10563800C7F838909946FB617B63BB613B623B636B
:10564800814B13F8028018F0080840F08180252A61
:1056580061D145464446F86B0278A2F12503411C06
:10566800552B64D8DFE813F056006300630063002D
:105678006300840563006300630063006300D10076
:10568800D100D100D100D100D100D100D100D1008A
:10569800D10063006300630063006300630063007C
:1056A800DC00630009056005DC00DC00DC00630049
:1056B800630063006300A604630063006A05630077
:1056C8006300630074056300630063006300AF0454
:1056D800630063007A05630063006300630063008E
:1056E800DC0063000B050E07DC00DC00DC001D0598
:1056F8002905A6046300110541054F050C0731056E
:10570800630063003505A204390563006300AF0434
:105718006300A204F963DAF80430002B47DDDAF8F5
:105728000030FA6B197812F8012C914234D07B6B57
:1057380043B17B6BD3F80080B8F1000F02D040462C
:1057480002F0B0FC386B07F52F77BD46BDE8F08F47
:10575800DAF80420BC6B0EE0DAF800303A491A781F
:1057680001338A5C11070ED5DAF8042009F1010922
:10577800013ACAE90032002AEEDC5146204605F01B
:10578800EFFA0028E8D0FB6B13F8012BFB637A646F
:10579800002A7FF455AFCAE70133CAF80030DAF8B7
:1057A800043009F10109013BCAF80430EBE751461E
:1057B800B86B05F0D5FA0028B1D03B6B1BB1BAF82D
:1057C8000C305A06B3D57B6B002B01F0C8807B6B7D
:1057D800DE88002E00F085870024A1467B6BD3F875
:1057E8000080A8F1040555F8043F0134186802F058
:1057F80059FC2B68B442C3F80090F4D14FF0FF3342
:105808003B63B8F1000F9AD19CE715F08F0F8ED14A
:1058180004EB840402EB4404303C427808461CE75D
:105828000426F963DAF80430002B40F3D9836B06B9
:1058380040F1E083731E032B01F2E380DFE813F0ED
:105848000E025B01A700060069D50008B86B02F0DC
:10585800FFFB631E0268B3F5AE7FBA6040F2BE85F7
:105868006FF4AE72A31840F25D143B60002607F592
:10587800AC7351469B46C246B046C7E9036645F439
:10588800F0657B617E6008680278A2F12B0CBCF1A0
:105898004E0F50D8DFE81CF01E034F001E034F00C8
:1058A8004F007E0375007500750075007500750062
:1058B8007500750075004F004F004F004F004F00F6
:1058C8004F004F0024037300730073007B030A0327
:1058D8004F004F00B0024F004F004F004F006403CD
:1058E8004F0049034F004F004F0042034F004F0045
:1058F8004F00310317034F004F004F004F004F0078
:105908004F004F0024037300730073007B030A03E6
:105918004F004F00B0024F004F004F004F0064038C
:105928004F0049034F004F004F0042034F004F0004
:105938004F0031031703BB6893F800C0944513D197
:10594800AB0511D525F420753E61013C0BF8012B00
:105958004A6809F10109013A002A4A6040F32084A3
:1059680001300860002C8ED1BE62BB6A4646D04624
:105978008A46002B00F0518225F480754DE22B05F4
:10598800F2D518EB0A0FEFD125F4C075DDE7631ED9
:10599800B3F5AE7F07F5AC734FF0000888BF6FF41E
:1059A800AE721E467B61534694BF4FF0000B04EB6A
:1059B800020BCA4688BF40F25D14C1469846C7F834
:1059C80028B0D7F820B045F45865D8F800201078EA
:1059D800A0F12B034D2B63D8DFE813F034036200EA
:1059E800340362006200D2030202020202020202CF
:1059F8000202020202023A033A03620062006200F3
:105A080062006200620062004E004E004E004E00CE
:105A18004E004E0062006200620062006200620096
:105A2800620062006200620062006200620062005E
:105A3800620062006200420362006200620062006B
:105A480062006200620062004E004E004E004E008E
:105A58004E004E0062006200620062006200620056
:105A6800620062006200620062006200620062001E
:105A78006200620062004203BBF10A0F10DD25F4E8
:105A8800386506F8010BD8F80430013B002BC8F83C
:105A9800043040F392830132C8F80020013C94D1CD
:105AA8004346E905C846C7F820B0D1469A4607D507
:105AB8007B699E4200F2BA857B699E423FF437AE0D
:105AC80015F0100240F08B833B6A7969B86BFC696A
