:020000040800F2
:100000000000012089110008950F0008970F0008D3
:10001000990F00089B0F00089D0F000800000000CA
:100020000000000000000000000000009F0F00081A
:10003000A10F000800000000A30F0008A50F000892
:10004000D1110008D1110008D1110008D111000808
:10005000D1110008D1110008D1110008D1110008F8
:10006000D1110008D1110008D1110008D1110008E8
:10007000D1110008D1110008D1110008D1110008D8
:10008000D1110008D1110008D1110008D1110008C8
:10009000D1110008D1110008D1110008D1110008B8
:1000A000D1110008D1110008D1110008D1110008A8
:1000B000D1110008D1110008D1110008D111000898
:1000C000D1110008D1110008D1110008D111000888
:1000D000D1110008AD0F00086D10000831110008A3
:1000E000D1110008D1110008D1110008D111000868
:1000F000D1110008D1110008D1110008D111000858
:10010000D1110008D1110008D1110008D111000847
:10011000D1110008D1110008D1110008D111000837
:10012000D1110008D1110008D1110008D111000827
:1001300000000000000000000000000000000000BF
:1001400000000000000000000000000000000000AF
:10015000000000000000000000000000000000009F
:10016000000000000000000000000000000000008F
:10017000000000000000000000000000000000007F
:10018000000000000000000000000000000000006F
:10019000000000000000000000000000000000005F
:1001A000000000000000000000000000000000004F
:1001B000000000000000000000000000000000003F
:1001C000000000000000000000000000000000002F
:1001D000000000000000000000000000000000001F
:0401E0005FF8E0F1F3
:1001E80010B5054C237833B9044B13B10448AFF369
:1001F80000800123237010BD40040020000000008F
:10020800345D000808B5034B1BB103490348AFF33D
:10021800008008BD0000000044040020345D000890
:1002280081F0004102E000BF83F0004330B54FEA9F
:1002380041044FEA430594EA050F08BF90EA020F0C
:100248001FBF54EA000C55EA020C7FEA645C7FEA9F
:10025800655C00F0E2804FEA5454D4EB5555B8BFC2
:100268006D420CDD2C4480EA020281EA030382EA33
:10027800000083EA010180EA020281EA0303362DC5
:1002880088BF30BD11F0004F4FEA01314FF4801C98
:100298004CEA113102D0404261EB410113F0004FAA
:1002A8004FEA03334CEA133302D0524263EB430361
:1002B80094EA050F00F0A780A4F10104D5F1200EFF
:1002C8000DDB02FA0EFC22FA05F2801841F100015A
:1002D80003FA0EF2801843FA05F359410EE0A5F12E
:1002E80020050EF1200E012A03FA0EFC28BF4CF05F
:1002F800020C43FA05F3C01851EBE37101F0004515
:1003080007D54FF0000EDCF1000C7EEB00006EEB21
:100318000101B1F5801F1BD3B1F5001F0CD34908AB
:100328005FEA30004FEA3C0C04F101044FEA445202
:1003380012F5800F80F09A80BCF1004F08BF5FEA89
:10034800500C50F1000041EB045141EA050130BD69
:100358005FEA4C0C404141EB0101013C28BFB1F57B
:10036800801FE9D291F0000F04BF01460020B1FAC6
:1003780081F308BF2033A3F10B03B3F120020CDA99
:100388000C3208DD02F1140CC2F10C0201FA0CF077
:1003980021FA02F10CE002F11402D8BFC2F1200CDC
:1003A80001FA02F120FA0CFCDCBF41EA0C01904092
:1003B800E41AA2BF01EB0451294330BD6FEA0404DB
:1003C8001F3C1CDA0C340EDC04F11404C4F12002C6
:1003D80020FA04F001FA02F340EA030021FA04F3D8
:1003E80045EA030130BDC4F10C04C4F1200220FA2F
:1003F80002F001FA04F340EA0300294630BD21FA6D
:1004080004F0294630BD94F0000F83F4801306BF32
:1004180081F480110134013D4EE77FEA645C18BF26
:100428007FEA655C29D094EA050F08BF90EA020FBD
:1004380005D054EA000C04BF1946104630BD91EAB5
:10044800030F1EBF0021002030BD5FEA545C05D1B8
:100458004000494128BF41F0004130BD14F58004F7
:100468003CBF01F5801130BD01F0004545F0FE416B
:1004780041F470014FF0000030BD7FEA645C1ABFA0
:10048800194610467FEA655C1CBF0B46024650EAD7
:10049800013406BF52EA033591EA030F41F4002103
:1004A80030BD00BF90F0000F04BF0021704730B589
:1004B8004FF4806404F132044FF000054FF000015E
:1004C80050E700BF90F0000F04BF0021704730B51F
:1004D8004FF4806404F1320410F0004548BF4042F4
:1004E8004FF000013EE700BF42004FEAE2014FEA49
:1004F80031014FEA02701FBF12F07F4393F07F4F24
:1005080081F06051704732F07F4208BF704793F026
:100518007F4F04BF41F40021704730B54FF4607439
:1005280001F0004521F000411CE700BF50EA01023C
:1005380008BF704730B54FF000050AE050EA0102E5
:1005480008BF704730B511F0004502D5404261EB55
:1005580041014FF4806404F132045FEA915C3FF496
:10056800D8AE4FF003025FEADC0C18BF03325FEA33
:10057800DC0C18BF033202EBDC02C2F1200300FAE4
:1005880003FC20FA02F001FA03FE40EA0E0021FA09
:1005980002F11444BDE600BF70B54FF0FF0C4CF4F7
:1005A800E06C1CEA11541DBF1CEA135594EA0C0FA9
:1005B80095EA0C0F00F0DEF82C4481EA030621EAE4
:1005C8004C5123EA4C5350EA013518BF52EA03351F
:1005D80041F4801143F4801338D0A0FB02CE4FF0D1
:1005E8000005E1FB02E506F00042E0FB03E54FF001
:1005F8000006E1FB03569CF0000F18BF4EF0010EF9
:10060800A4F1FF04B6F5007F64F5407404D25FEAF4
:100618004E0E6D4146EB060642EAC62141EA5551A7
:100628004FEAC52040EA5E504FEACE2EB4F1FD0CE9
:1006380088BFBCF5E06F1ED8BEF1004F08BF5FEA67
:10064800500E50F1000041EB045170BD06F0004619
:1006580046EA010140EA020081EA0301B4EB5C04C6
:10066800C2BFD4EB0C0541EA045170BD41F48011BE
:100678004FF0000E013C00F3AB8014F1360FDEBFE3
:10068800002001F0004170BDC4F10004203C35DABF
:100698000C341BDC04F11404C4F1200500FA05F342
:1006A80020FA04F001FA05F240EA020001F00042E3
:1006B80021F0004110EBD37021FA04F642EB060159
:1006C8005EEA430E08BF20EAD37070BDC4F10C0483
:1006D800C4F1200500FA04F320FA05F001FA04F247
:1006E80040EA020001F0004110EBD37041F1000133
:1006F8005EEA430E08BF20EAD37070BDC4F120053E
:1007080000FA05F24EEA020E20FA04F301FA05F2A5
:1007180043EA020321FA04F001F0004121FA04F24D
:1007280020EA020000EBD3705EEA430E08BF20EA1D
:10073800D37070BD94F0000F0FD101F00046400057
:1007480041EB010111F4801F08BF013CF7D041EAD9
:10075800060195F0000F18BF704703F000465200DD
:1007680043EB030313F4801F08BF013DF7D043EAAE
:100778000603704794EA0C0F0CEA135518BF95EA64
:100788000C0F0CD050EA410618BF52EA4306D1D1EB
:1007980081EA030101F000414FF0000070BD50EA0A
:1007A800410606BF1046194652EA430619D094EA94
:1007B8000C0F02D150EA013613D195EA0C0F05D17E
:1007C80052EA03361CBF104619460AD181EA0301D2
:1007D80001F0004141F0FE4141F470014FF000008A
:1007E80070BD41F0FE4141F4780170BD70B54FF025
:1007F800FF0C4CF4E06C1CEA11541DBF1CEA1355A5
:1008080094EA0C0F95EA0C0F00F0A7F8A4EB050486
:1008180081EA030E52EA03354FEA013100F088807D
:100828004FEA03334FF0805545EA131343EA126346
:100838004FEA022245EA111545EA10654FEA0026FB
:100848000EF000419D4208BF964244F1FD0404F5B4
:10085800407402D25B084FEA3202B61A65EB030510
:100868005B084FEA32024FF480104FF4002CB6EBCD
:10087800020E75EB030E22BFB61A754640EA0C004D
:100888005B084FEA3202B6EB020E75EB030E22BF8D
:10089800B61A754640EA5C005B084FEA3202B6EBCE
:1008A800020E75EB030E22BFB61A754640EA9C008D
:1008B8005B084FEA3202B6EB020E75EB030E22BF5D
:1008C800B61A754640EADC0055EA060E18D04FEA1B
:1008D800051545EA16754FEA06164FEAC30343EABB
:1008E80052734FEAC2025FEA1C1CC0D111F4801F88
:1008F8000BD141EA00014FF000004FF0004CB6E781
:1009080011F4801F04BF01430020B4F1FD0C88BF1F
:10091800BCF5E06F3FF6AFAEB5EB030C04BFB6EB2A
:10092800020C5FEA500C50F1000041EB045170BD1D
:100938000EF0004E4EEA113114EB5C04C2BFD4EB4A
:100948000C0541EA045170BD41F480114FF0000ECE
:10095800013C90E645EA060E8DE60CEA135594EA4A
:100968000C0F08BF95EA0C0F3FF43BAF94EA0C0F4D
:100978000AD150EA01347FF434AF95EA0C0F7FF4C2
:1009880025AF104619462CE795EA0C0F06D152EA16
:1009980003353FF4FDAE1046194622E750EA4106FA
:1009A80018BF52EA43067FF4C5AE50EA41047FF40B
:1009B8000DAF52EA43057FF4EBAE12E74A0011D2BD
:1009C80012F5001211D20DD56FF47873B3EB6252A1
:1009D8000ED44FEAC12343F0004343EA505323FAAD
:1009E80002F070474FF00000704750EA013002D122
:1009F8004FF0FF3070474FF0000070474FF0FF3C5A
:100A080006E000BF4FF0010C02E000BF4FF0010C00
:100A18004DF804CD4FEA410C7FEA6C5C4FEA430C79
:100A280018BF7FEA6C5C1BD001B050EA410C0CBFC8
:100A380052EA430C91EA030F02BF90EA020F00202A
:100A4800704710F1000F91EA030F58BF994208BF91
:100A580090422CBFD8176FEAE37040F0010070474E
:100A68004FEA410C7FEA6C5C02D150EA013C07D1A5
:100A78004FEA430C7FEA6C5CD6D152EA033CD3D0F0
:100A88005DF8040B704700BF8446104662468C46EA
:100A98001946634600E000BF01B5FFF7B7FF00281D
:100AA80048BF10F1000F01BD4DF808EDFFF7F4FF46
:100AB8000CBF012000205DF808FB00BF4DF808EDD1
:100AC800FFF7EAFF34BF012000205DF808FB00BFF4
:100AD8004DF808EDFFF7E0FF94BF012000205DF816
:100AE80008FB00BF4DF808EDFFF7CEFF94BF0120CB
:100AF80000205DF808FB00BF4DF808EDFFF7C4FFC4
:100B080034BF012000205DF808FB00BF4FEA410C0C
:100B18007FEA6C5C02D150EA013C0AD14FEA430CEF
:100B28007FEA6C5C02D152EA033C02D14FF000002C
:100B380070474FF0010070474FEA410212F500126A
:100B480015D211D56FF47873B3EB625212D94FEA0C
:100B5800C12343F0004343EA505311F0004F23FAF6
:100B680002F018BF404270474FF00000704750EA4B
:100B7800013005D111F0004008BF6FF00040704708
:100B88004FF00000704700BF82B00A4B9A6942F0EC
:100B980004029A619A6902F004020092009A9A6922
:100BA80042F008029A619B6903F008030193019BD4
:100BB80002B070470010024072B6FEE708B50A4856
:100BC8000A4B03604FF41653436000238360C360ED
:100BD80003610C2242618361C36101F09FF900B98E
:100BE80008BDFFF7E9FF00BFE4040020003801401A
:100BF80008B50A480A4B03604FF4165343600023B4
:100C08008360C36003610C2242618361C36101F0A8
:100C180085F900B908BDFFF7CFFF00BF5C040020CD
:100C28000044004008B50A480A4B03604FF41653C5
:100C3800436000238360C36003610C2242618361C7
:100C4800C36101F06BF900B908BDFFF7B5FF00BF3C
:100C5800A00400200048004000B591B028220021DF
:100C680006A802F0EBFA002301930293039304937E
:100C780005930223069301230A9310230B9306A8D6
:100C880000F066FD68B90F230193002102910391DA
:100C98000491059101A800F09BFF20B911B05DF8FF
:100CA80004FBFFF789FFFFF787FF000070B582B0EC
:100CB80000F0B2FAFFF7D0FFFFF766FFFFF77EFFFD
:100CC800FFF796FFFFF7AEFF3D4E4FF0FF331022C0
:100CD8003C49304601F051F9002400943A4D2B6804
:100CE8001A6800925A680092009ADA6842F0300254
:100CF800DA6064223549284601F0BFFB0194336865
:100D08001A6801925A680192019ADA6842F0300230
:100D1800DA6064222E49304601F0AFFB284601F024
:100D280047FE2C4D2146284601F076FD022385F822
:100D3800643213E013222849214801F08AF9254C2E
:100D4800D4F87432984721498A784FF47A7302327A
:100D58001B4801F012F9002384F864321D4B93F804
:100D68006432042B26D801A252F823F0650D00083E
:100D78003D0D0008470D0008890D0008A90D000861
:100D8800144BD3F8603223B9124B0022C3F8602207
:100D9800E4E7104A114B19781E2001F05BFEF3E7D7
:100DA8000C4B0022C3F86022D3F870320B4A10783B
:100DB8009847D3E7074B002283F86422CEE700BFA9
:100DC8005C040020505D0008A00400201C070020DF
:100DD80028050020B0080020645D0008B80600203F
:100DE80082B00E4B9A6942F001029A619A6902F048
:100DF80001020092009ADA6942F08052DA61DB69F6
:100E080003F080530193019B054A536823F0E06384
:100E180043F00073536002B0704700BF00100240F7
:100E28000000014030B58BB0002306930793089368
:100E3800099303684F4A934207D04F4A934236D0EA
:100E48004E4A934263D00BB030BD4D4B9A6942F481
:100E580080429A619A6902F480420092009A9A69E3
:100E680042F004029A619B6903F004030193019B19
:100E78004FF4007306930223079303230993414D0C
:100E880006A9284600F02EFB4FF480630693002441
:100E98000794089406A9284600F024FB2246214618
:100EA800252000F0EFF9252000F024FACBE7344B99
:100EB800DA6942F40032DA61DA6902F40032029245
:100EC800029A9A6942F004029A619B6903F004034A
:100ED8000393039B04230693022307930323099395
:100EE800284D06A9284600F0FDFA08230693002499
:100EF8000794089406A9284600F0F4FA22462146E9
:100F0800262000F0BFF9262000F0F4F99BE71C4BDF
:100F1800DA6942F48022DA61DA6902F48022049202
:100F2800049A9A6942F008029A619B6903F00803DF
:100F38000593059B4FF480630693022307930323CD
:100F48000993114D06A9284600F0CCFA4FF4006326
:100F5800069300240794089406A9284600F0C2FACC
:100F680022462146272000F08DF9272000F0C2F9FB
:100F780069E700BF003801400044004000480040D5
:100F88000010024000080140000C0140FEE7FEE7A7
:100F9800FEE7FEE7FEE770477047704708B500F0C8
:100FA8004DF908BD08B5024801F04AF908BD00BF6F
:100FB800E40400200378552B02D04FF0FF3070472F
:100FC8004378552B02D04FF0FF30704710B590F89A
:100FD80002E0C378013B032B39D8DFE803F00206AF
:100FE8000F2D1E4B012283F864221C4B022283F82A
:100FF80064220122C3F86022012010BD174B03228E
:1010080083F864220279164B1A7005230DE0C25C3E
:1010180000EB030C9CF801109CF80240013A41EAED
:1010280004210E4C24F8121003337345EFDB0B4BED
:101038000122C3F86022DFE7084B042283F8642208
:101048000179074A11700122C3F86022D4E7034BE3
:10105800002283F864224FF0FF30CEE7B00800206A
:10106800B806002010B582B0144C204601F0E8F80C
:1010780023681A6812F0100F03D0DA6812F0100F04
:1010880001D102B010BD002201921A6801925B687A
:101098000193019B204601F01BF80948FFF78AFFDE
:1010A80028B164220649054801F0E7F9E9E7112269
:1010B8000449204600F0CDFFF3E700BF5C040020A0
:1010C80028050020805D000810B5164B0122C3F8E2
:1010D8005C220378552B07D0124B0122C3F86022FB
:1010E8000022C3F85C2210BD4378552BF4D190F848
:1010F80002E00EF1020EC378152BEDD105230DE0A9
:10110800C25C00EB030C9CF801109CF80240013A09
:1011180041EA0421034C24F8121003337345EFDB32
:10112800DAE700BFB008002030B583B0114C204684
:1011380001F086F823681A6812F0100F03D0DA68F5
:1011480012F0100F01D103B030BD002201921A68CD
:1011580001925B680193019B204600F0B9FF064DA0
:101168002846FFF7B1FF64222946204601F085F999
:10117800E9E700BFA00400201C0700207047704763
:101188000C480D490D4A002302E0D458C4500433DA
:10119800C4188C42F9D30A4A0A4C002301E01360B0
:1011A8000432A242FBD3FFF7EAFF02F023F8FFF76D
:1011B8007DFD7047000000203C040020EC5F000823
:1011C80040040020CC0B0020FEE7000010B50446C8
:1011D8000E4B18784FF47A73B3FBF0F30C4A10688F
:1011E800B0FBF3F000F094F868B90F2C01D9012096
:1011F8000AE0002221464FF0FF3000F043F8054B8B
:101208001C60002000E0012010BD00BF0400002089
:10121800000000200800002008B5074A136843F0C2
:1012280010031360032000F01BF80F20FFF7CEFF18
:10123800FFF7D6FD002008BD00200240034A1168D0
:10124800034B1B780B441360704700BF400B002012
:1012580004000020014B1868704700BF400B0020B5
:10126800074AD36823F4E0631B041B0C000200F454
:10127800E060034343F0BF6343F40033D360704737
:1012880000ED00E000B5194BDB68C3F30223C3F19E
:10129800070CBCF1040F28BF4FF0040C03F1040E37
:1012A800BEF1060F18D9033B4FF0FF3E0EFA0CFCB7
:1012B80021EA0C0199400EFA03F322EA03031943C9
:1012C80000280BDB0901C9B200F1604000F561405C
:1012D80080F800135DF804FB0023E5E700F00F0039
:1012E8000901C9B2024B1954F4E700BF00ED00E050
:1012F80014ED00E0002807DB00F01F02400901237D
:101308009340024A42F82030704700BF00E100E0F5
:101318000138B0F1807F0BD24FF0E0235861054AC5
:10132800F02182F823100020986107221A61704783
:101338000120704700ED00E090F82130022B06D024
:1013480004238363002380F820300120704702685B
:10135800136823F00E0313600268136823F0010377
:101368001360036CC16B012202FA03F34B6080F82F
:101378002120002380F820301846704708B590F8DF
:101388002130022B03D004238363012008BD0268A7
:10139800136823F00E0313600268136823F0010337
:1013A800136003684B4A93424ED9783A934224D04B
:1013B8001432934230D0143293422FD014329342D5
:1013C8002FD0143293422FD0143293422FD014329C
:1013D80093422FD002F5627293422ED01432934278
:1013E8002DD0143293422CD01432934202D04FF4B1
:1013F800803203E04FF4805200E00122364B5A60FD
:10140800012380F82130002380F82030436B002B23
:101418005ED098470020B9E71022EFE74FF48072BA
:10142800ECE74FF48052E9E74FF48032E6E74FF4F7
:101438008012E3E74FF08072E0E70122DEE7102236
:10144800DCE74FF48072D9E7244A934224D014325F
:10145800934225D01432934224D01432934224D09C
:101468001432934224D01432934224D0143293423B
:1014780024D002F56272934223D01432934222D0D0
:101488001432934221D01432934202D04FF4803266
:1014980003E04FF4805200E00122114B5A60AFE79D
:1014A8001022FAE74FF48072F7E74FF48052F4E71E
:1014B8004FF48032F1E74FF48012EEE74FF080727C
:1014C800EBE70122E9E71022E7E74FF48072E4E74F
:1014D80000205BE780000240000402400800024050
:1014E8000000024070B582B00024A446B0E0874DE9
:1014F800AA4210D007D9864DAA420CD005F58035EE
:10150800AA4208D013E0A5F58015AA4203D005F534
:101518007025AA4207D18A68002A62D0012A5BD0C6
:101528004361082403E0A5F58015AA42F3D0BEF173
:10153800FF0F58D80646BEF1FF0F56D84FEA8C0267
:1015480033680F25954023EA050304FA02F2134392
:1015580033604B6813F0805F78D06E4B9A6942F025
:1015680001029A619B6903F001030193019B4FEA11
:101578009C02951C684B53F825600CF003039D00F2
:101588000F23AB4026EA0306644B984233D003F599
:101598008063984200F0988003F58063984200F0D9
:1015A800958003F58063984200F0928003F580638C
:1015B800984200F08F8003F58063984219D0062383
:1015C8001AE0CC68B3E7CC680434B0E7CC680834D8
:1015D800ADE7CC680C34AAE703610824A7E7002428
:1015E800A5E70424A3E7061DA5E7ACF108029200CD
:1015F800A6E7052300E00023AB4033430232464D03
:1016080045F822304B6813F4803F65D0444A13688C
:1016180043EA0E0313604B6813F4003F62D0404A5C
:10162800536843EA0E0353604B6813F4801F5FD07E
:101638003B4A936843EA0E0393604B6813F4001F18
:101648005CD0374AD36843EA0E03D3600CF1010C2F
:101658000A6832FA0CF357D0012303FA0CF302EAB2
:10166800030E33EA0202F1D14A68122A3FF63FAF6D
:10167800122A3FF65CAF01A555F822F01F150008A5
:10168800CB150008D5150008E71500083715000820
:1016980037150008371500083715000837150008F2
:1016A80037150008371500083715000837150008E2
:1016B80037150008371500083715000837150008D2
:1016C800CF150008DB150008012395E7022393E7EF
:1016D800032391E704238FE7114A136823EA0E03D3
:1016E800136098E70E4A536823EA0E0353609BE79A
:1016F8000B4A936823EA0E0393609EE7084AD3686F
:1017080023EA0E03D360A1E702B070BD00002210E7
:1017180000003110001002400000014000080140A4
:101728000004014082B0084B1B68084AA2FB03234F
:101738005B0A00FB03F3019300BF019B5A1E019251
:10174800002BF9D102B0704700000020D34D621081
:10175800002800F0F18170B582B00446036813F0E8
:10176800010F2CD0994B5B6803F00C03042B1DD0A0
:10177800964B5B6803F00C03082B12D06368B3F533
:10178800803F41D0002B55D103F1804303F504334A
:101798001A6822F480321A601A6822F480221A60C9
:1017A80037E08A4B5B6813F4803FE7D0874B1B68B0
:1017B80013F4003F03D06368002B00F0BF81236857
:1017C80013F0020F75D0814B5B6813F00C0F5FD0DC
:1017D8007E4B5B6803F00C03082B54D02369002B65
:1017E80000F08A807A4B01221A60FFF733FD054624
:1017F800764B1B6813F0020F75D1FFF72BFD401BCA
:101808000228F5D903209EE1704A136843F4803317
:101818001360636843B3FFF71DFD05466B4B1B68F8
:1018280013F4003FCBD1FFF715FD401B6428F5D911
:10183800032088E1B3F5A02F09D0644B1A6822F47D
:1018480080321A601A6822F480221A60E1E703F1F4
:101858008043A3F53C331A6842F480221A601A6860
:1018680042F480321A60D4E7FFF7F4FC0546574B80
:101878001B6813F4003FA2D0FFF7ECFC401B642860
:10188800F5D903205FE1514B5B6813F4803FA5D184
:101898004E4B1B6813F0020F03D02369012B40F055
:1018A8004F814A4A136823F0F803616943EAC10388
:1018B8001360236813F0080F33D0A369002B5CD0A2
:1018C800434B0122C3F88024FFF7C4FC05463F4B75
:1018D8005B6A13F0020F21D1FFF7BCFC401B022802
:1018E800F5D903202FE1394A136823F0F803616919
:1018F80043EAC1031360DCE7354B00221A60FFF7A7
:10190800A9FC0546314B1B6813F0020FD1D0FFF735
:10191800A1FC401B0228F5D9032014E10120FFF7A0
:1019280001FF236813F0040F00F09680274BDB6952
:1019380013F0805F34D1254BDA6942F08052DA61C6
:10194800DB6903F080530193019B0125214B1B6840
:1019580013F4807F26D0E368012B3DD0002B53D1B0
:1019680003F1804303F504331A6A22F001021A6274
:101978001A6A22F004021A6233E0154B0022C3F8F7
:101988008024FFF767FC0546104B5B6A13F0020FD3
:10199800C7D0FFF75FFC401B0228F5D90320D2E02F
:1019A8000025D3E70B4A136843F480731360FFF7ED
:1019B80051FC0646074B1B6813F4807FCBD1FFF719
:1019C80049FC801B6428F5D90320BCE000100240C4
:1019D80000004242007000405F4A136A43F001036E
:1019E8001362E36833B3FFF735FC06465A4B1B6AAC
:1019F80013F0020F2FD1FFF72DFC801B41F2883323
:101A08009842F3D903209EE0052B09D0524B1A6A5D
:101A180022F001021A621A6A22F004021A62E0E74E
:101A28004D4B1A6A42F004021A621A6A42F0010225
:101A38001A62D6E7FFF70EFC0646474B1B6A13F0FF
:101A4800020F08D0FFF706FC801B41F2883398424A
:101A5800F3D9032077E0E5B9E369002B72D03E4A59
:101A6800526802F00C02082A56D0022B17D03B4BC2
:101A780000221A66FFF7EEFB0446374B1B6813F08B
:101A8800007F47D0FFF7E6FB001B0228F5D90320AB
:101A980059E0314AD36923F08053D361DCE72F4BF7
:101AA80000221A66FFF7D6FB05462B4B1B6813F07E
:101AB800007F06D0FFF7CEFB401B0228F5D9032094
:101AC80041E0236AB3F5803F1AD023494B6823F4D9
:101AD8007413226A606A024313434B601F4B01224E
:101AE8001A66FFF7B7FB04461B4B1B6813F0007F11
:101AF8000ED1FFF7AFFB001B0228F5D9032022E027
:101B0800154A536823F40033A1680B435360DCE79C
:101B1800002018E0002016E0012B16D00E4B5B6861
:101B280003F48031226A914211D103F47013626A7E
:101B380093420ED1002006E001207047012002E008
:101B4800012000E0002002B070BD0120FBE7012069
:101B5800F9E70120F7E700BF001002400000424209
:101B680086B0174B0FCB0DF1180C0CE90F0040F2A3
:101B78000123ADF80430134B5B6803F00C02082A0C
:101B880002D0114806B07047C3F3834218326A4442
:101B980012F8100C13F4803F0DD00A4B5B68C3F3A6
:101BA800404318336B4413F8143C074A02FB00F017
:101BB800B0FBF3F0E6E7054B03FB00F0E2E700BFFC
:101BC800AC5D00080010024000127A0000093D00D8
:101BD800002800F0A08070B50D460446524B1B68E3
:101BE80003F007038B420BD24F4A136823F0070315
:101BF8000B431360136803F007038B4240F08D809A
:101C0800236813F0020F17D013F0040F04D0474ACB
:101C1800536843F4E0635360236813F0080F04D05B
:101C2800424A536843F460535360404A536823F070
:101C3800F003A1680B435360236813F0010F31D000
:101C48006368012B20D0022B25D0384A126812F085
:101C5800020F64D035494A6822F0030213434B60EF
:101C6800FFF7F8FA0646314B5B6803F00C0362682D
:101C7800B3EB820F16D0FFF7EDFA801B41F28833E1
:101C88009842F0D9032045E0284A126812F4003F30
:101C9800E0D101203EE0254A126812F0007FD9D138
:101CA800012037E0204B1B6803F00703AB420AD939
:101CB8001D4A136823F007032B431360136803F0CE
:101CC8000703AB422DD1236813F0040F06D0174A3F
:101CD800536823F4E063E1680B435360236813F00F
:101CE800080F07D0114A536823F46053216943EA67
:101CF800C1035360FFF734FF0C4B5B68C3F3031356
:101D08000B4AD35CD8400B4B18600B4B1868FFF795
:101D18005DFA002070BD012070470120FAE701201C
:101D2800F8E70120F6E700BF00200240001002405B
:101D3800945D00080000002008000020014B18688E
:101D4800704700BF0000002008B5FFF7F7FF044BFD
:101D58005B68C3F30223034AD35CD84008BD00BFC5
:101D680000100240A45D000808B5FFF7E7FF044B28
:101D78005B68C3F3C223034AD35CD84008BD00BFE5
:101D880000100240A45D00080268D36823F4907331
:101D9800D3600268536923F001035361036B012B7D
:101DA80005D0202380F83E30002303637047026883
:101DB800D36823F01003D360F3E790F83D30DBB22B
:101DC800212B01D0022070478368B3F5805F17D0BC
:101DD800036A5A1C02621A7803685A60C38C9BB261
:101DE800013B9BB2C3844BB90268D36823F08003DC
:101DF800D3600268D36843F04003D3600020704783
:101E08000369002BE4D1036A1B880268C3F3080343
:101E18005360036A02330362E0E7000010B504462A
:101E28000268136923F44053C1680B431361836844
:101E38000269134342691A430168CB6823F4B0531B
:101E480023F00C031343CB600268536923F44073F7
:101E580081690B4353610268134B9A4220D0FFF704
:101E680073FF024602EB820202EB820263689B0068
:101E7800B2FBF3F20D48A0FB02314909642303FBCE
:101E880011231B013233A0FB03235B0903F0F0028B
:101E980002EB011203F00F03216813448B6010BD9D
:101EA800FFF762FF0246DDE7003801401F85EB516E
:101EB8002DE9F84305460F4616469946DDF8208079
:101EC8002C68246837EA04030CBF4FF0010C4FF06C
:101ED800000CB4451FD1B8F1FF3FF1D0B8F1000FA5
:101EE80005D0FFF7B7F9A0EB09004045E8D92A6803
:101EF800D36823F4D073D3602A68536923F00103AD
:101F08005361202385F83D3085F83E30002385F85D
:101F18003C30032000E00020BDE8F88358B310B53A
:101F2800044690F83D300BB3242384F83D302268F2
:101F3800D36823F40053D3602046FFF76FFF22686D
:101F4800136923F4904313612268536923F02A0329
:101F580053612268D36843F40053D360002020649F
:101F6800202384F83D3084F83E3010BD80F83C30A2
:101F7800FEF758FFD8E7012070472DE9F04182B0FD
:101F88001E4690F83D30DBB2202B54D104460D4656
:101F98009046002953D0002A53D090F83C30012BAA
:101FA80051D0012380F83C3000230364212380F8BA
:101FB8003D30FFF74FF90746A4F82480A4F826809F
:101FC800A368B3F5805F05D04FF00008002384F8BC
:101FD8003C3012E0236913B14FF00008F6E7A84639
:101FE8000025F3E738F8023B2268C3F3080353607F
:101FF800E28C92B2013A92B2E284E38C9BB273B162
:1020080000963B46002280212046FFF751FFE0B9A9
:10201800002DE7D015F8012B23685A60E8E70096F1
:102028003B46002240212046FFF742FF78B9202393
:1020380084F83D3000E0022002B0BDE8F0810120C4
:10204800FAE70120F8E70220F6E70320F4E7032087
:10205800F2E790F83D30DBB2202B19D1D1B1DAB1DB
:1020680090F83C30012B19D0012380F83C300162F4
:102078008284C28400230364212280F83D2080F8F2
:102088003C300168CA6842F08002CA60184670474E
:1020980002207047012070470120704702207047D6
:1020A800704708B50168CA6822F04002CA60202259
:1020B80080F83D20FFF7F4FF002008BD704708B501
:1020C800406A0023C385C384FFF7F8FF08BD704743
:1020D80010B504460268D36823F49073D36002688D
:1020E800536923F001035361036B012B14D0236858
:1020F8005A6912F0400F1FD05A6922F040025A6103
:10210800A36B7BB1124A5A63A06BFFF737F9E0B1B2
:10211800A06B436B984718E00268D36823F010035C
:10212800D360E4E70023E385202284F83E2023637C
:102138002046FFF7CCFF08E00023E385202284F83F
:102148003E2023632046FFF7C2FF002010BD00BFDA
:102158005D21000808B5406A0023C385202280F865
:102168003E200363FFF7B3FF08BD704790F83E3089
:10217800DBB2222B60D18368B3F5805F46D0826AD8
:10218800B3F5805F04D0002B4DD10369002B4AD1F1
:1021980003685B681370836A01338362C38D9BB2E3
:1021A800013B9BB2C385002B48D100B583B00268C0
:1021B800D36823F02003D3600268D36823F48073C4
:1021C800D3600268536923F001035361202380F828
:1021D8003E30036B012B2CD1002303630268D368C4
:1021E80023F01003D36003681A6812F0100F06D0AA
:1021F800002201921A6801925B680193019B818D0C
:10220800FFF7B3FF002003B05DF804FB0269002A62
:10221800B5D1826A03685B68C3F308031380836AD5
:1022280002338362BAE703685B6803F07F031370C5
:10223800B1E7FEF7A3FFE5E70220704700207047EB
:1022480030B583B0044602681368D068516913F04A
:102258000F0505D113F0200F02D010F0200F19D16F
:102268002DB111F0010119D110F4907F16D1216B15
:10227800012975D013F0800F03D010F0800F40F0C3
:10228800D78013F0400F03D010F0400F40F0D480F7
:1022980003B030BD2046FFF769FFF9E713F0010FDF
:1022A80006D010F4807F03D0226C42F00102226431
:1022B80013F0040F04D019B1226C42F00202226418
:1022C80013F0020F04D019B1226C42F00402226408
:1022D80013F0080F07D010F0200F00D119B1226CAD
:1022E80042F008022264226C002AD1D013F0200F99
:1022F80002D010F0200F21D123685B6903F040035E
:10230800226C12F0080F00D123B32046FFF73CFDE2
:1023180023685A6912F0400F18D05A6922F0400217
:102328005A61A36B73B1464A5A63A06BFFF726F84C
:102338000028ADD0A06B436B9847A9E72046FFF76C
:1023480015FFD9E72046FFF7B9FEA1E72046FFF7BA
:10235800B5FE9DE72046FFF7B1FE0023236497E70B
:1023680013F0100F86D010F0100F83D000230193C4
:102378001368019353680193019B536913F0400F4D
:1023880032D0A16B0B685B689BB2002B80D0A08D0C
:1023980098427FF67DAFE3858B69202B08D1A18D0C
:1023A800E38D9BB2C91A89B22046FFF7DEFE6FE7BC
:1023B800D36823F48073D3602268536923F0010340
:1023C80053612268536923F040035361202384F842
:1023D8003E30002323632268D36823F01003D360C0
:1023E800A06BFEF7A9FFDAE7A18DE38D9BB2C91AAE
:1023F80089B2E38D9BB2002B3FF44AAF00293FF42A
:1024080047AFD36823F49073D3602268536923F0ED
:1024180001035361202384F83E300023236322689C
:10242800D36823F01003D3602046FFF79EFE2FE702
:102438002046FFF7C2FC2BE72046FFF732FE27E7CE
:10244800C7200008034681628285C285002018647F
:10245800222283F83E2083F83C001968CA6842F4B7
:102468008072CA6019684A6942F001024A611A68B2
:10247800D36843F02003D360704708B590F83E3026
:10248800DBB2202B0DD171B17AB190F83C30012B21
:102498000DD0012380F83C3000230363FFF7D2FFFF
:1024A80000E0022008BD0120FCE70120FAE7022035
:1024B800F8E700000000000070B504460D46096802
:1024C800066859A3D3E90023D1E90001FDF7ACFE62
:1024D800C6E900012968266855A3D3E90023D1E994
:1024E8000201FDF7A1FEC6E902012B682668D3E9BF
:1024F800042300205249FDF797FEC6E90401296824
:10250800E66849A3D3E90023D1E90001FDF78CFE71
:10251800C6E900012968E66845A3D3E90023D1E9A3
:102528000201FDF781FEC6E902012B68E668D3E9DE
:10253800042300204249FDF777FEC6E904016A68D2
:102548002369D2E90001C3E900016968266900220C
:102558003C4BD1E90201FDF769FEC6E902016B684F
:102568002669D3E9042300203549FDF75DFEC6E955
:1025780004016A686368D2E90001C3E90001696877
:10258800666800222F4BD1E90201FDF74FFEC6E92C
:1025980002016B686668D3E9042300202849FDF727
:1025A80043FEC6E90401AB68A668D3E9002322A16B
:1025B800D1E90001FDF738FEC6E90001A968A6685F
:1025C8001BA3D3E90023D1E90201FDF72DFEC6E9DB
:1025D8000201AB68A668D3E9042300201849FDF777
:1025E80023FEC6E90401AB686669D3E9002312A19A
:1025F800D1E90001FDF718FEC6E90001A96866697E
:102608000BA3D3E90023D1E90201FDF70DFEC6E9CA
:1026180002012B686469D3E9042300200849FDF707
:1026280003FEC4E9040170BD2FBFEEE2267B4E40D5
:102638008139576D71CF67402FBFEEE2267B4EC0C0
:1026480000005940000069402DE9F04F8BB0044666
:102658000D46924600EB400B5846FDF733FF064601
:102668000F460BF10100FDF72DFF804689460BF15F
:102678000200FDF727FF062C18D8D5E90423CDE979
:102688000823CDE90601D5E90223CDE90423CDE9E4
:102698000289D5E90023CDE9002332463B4651465D
:1026A800032000F08BF90BB0BDE8F08FD5E90223C9
:1026B800CDE90423CDE90289D5E90023CDE900233A
:1026C80032463B465146022000F078F9EBE700B568
:1026D8009DB01E231B931D231A931C2319931B23A0
:1026E80018931A231793192316931823159317234E
:1026F800149316231393152312931423119313235E
:10270800109312200F9011230E9310230D930F2373
:102718000C930E230B930D230A930C2309930B237D
:1027280008930A230793092306930823059307238D
:10273800049306230393052302930423019303239D
:10274800009302230122002100F01AFA1DB05DF85F
:1027580004FB2DE9D043A2B0002306E05A1C22A9AD
:1027680001EB830343F8782C13461D2BF6DD0C2868
:102778001BD000EB40042046FDF7A4FE06460F469A
:10278800601CFDF79FFE80468946A01CFDF79AFE57
:10279800CDE90201CDE9008932463B4600210320FC
:1027A80000F08EF922B0BDE8D08304AA00211E20D3
:1027B80000F0BEF9F6E710B5B4B00C4601462EA8F5
:1027C800FFF77AFE2E9B19680AA800F03DF8309BA7
:1027D80019680EA800F038F82F9B19680CA800F0AB
:1027E80033F8319B196810A800F02EF8339B19684C
:1027F80014A800F029F8329B196812A800F024F8F0
:1028080001A90AA800F0F0F901AA2146122000F057
:1028180021F934B010BD000080F86512064BC0F8ED
:102828006832064BC0F87032054BC0F87432054B5D
:10283800C0F86C32704700BFBF2700085B2700084C
:10284800D7260008512600082DE9D04F86B0044647
:10285800D1E90267D1E904AB32463B46D1E9000130
:10286800FDF7C4FF00F0ACFD02460B46CDE900239E
:1028780000F034FF02460B4630463946FDF7B6FFF6
:102888000022494BFDF7D0FC02460B46CDE9042354
:102898004FF000084FF0804942464B4600F09CFF3D
:1028A80006460F4642464B46CDE902AB50465946CE
:1028B80000F092FF02460B4630463946FDF7B6FC5B
:1028C80000F0F8FF82468B4642464B4600F084FFF4
:1028D8002FA3D3E90023FDF7A9FC2FA3D3E90023F5
:1028E800FDF7A2FC06460F460022304B50465946DB
:1028F800FDF752FE02460B4630463946FDF776FF95
:1029080000F0D8FF00F040FF06460F4642464B460F
:102918005046594600F060FF1FA3D3E90023FDF796
:1029280085FC1BA3D3E90023FDF77EFC804689467E
:102938001BA3D3E9002350465946FDF72DFE024656
:102948000B4640464946FDF751FF00F0B3FF00F043
:102958001BFF80468946DDE90423DDE90201FDF716
:1029680045FF00F02DFDDDE90023C4E900233246D0
:102978003B46FDF759FCC4E9020142464B46304646
:102988003946FDF753FCC4E9040106B0BDE8D08F11
:10299800000000000029B7400000000080A0E140CE
:1029A8000000000000C077400040474000406340FE
:1029B800014B1860704700BFC40B00200EB430B53F
:1029C80082B005AB33F8042B0193431EDBB21F2BF7
:1029D80037D81E4B55215970197000EB400105314D
:1029E80099700321D97018715A71120A9A714FF0AF
:1029F800000E07231AE001990A1D019203F1010C48
:102A08005FFA8CFC0D78114CE55401F10802019233
:102A18004A68991CC9B204F80C200333DBB2C2F32C
:102A2800072262540EF101025FFA82FE8645E2D364
:102A380006498A784FF0FF33023205480068FFF7ED
:102A48009CFA02B0BDE8304003B07047440B002048
:102A5800C40B002038B5184B55245C701C7000EB73
:102A6800400405349C700324DC7018715971090AFC
:102A780099710023072113E04D1CEDB20E4C6354ED
:102A880032F813C001F1020E5FFA8EFE04F805C099
:102A98000331C9B24FEA1C2C04F80EC00133DBB273
:102AA8008342E9D304498A784FF0FF33023203485E
:102AB8000068FFF762FA38BD440B0020C40B002001
:102AC8000EB410B583B006AB0193431EDBB21F2BC7
:102AD80024D8154B55225A701A70C21C9A701422A9
:102AE800DA701871002305220DE001990C1D01947C
:102AF80002F1010C91F800E00B4901F802E0013302
:102B0800DBB25FFA8CF28342EFD307498A784FF041
:102B1800FF33023205480068FFF72FFA03B0BDE81B
:102B2800104003B0704700BF440B0020C40B0020C6
:102B380010B5114B552159701970C11C9970142189
:102B4800D9701871002305210AE001F1010C12F86F
:102B580023E0094C04F801E00133DBB25FFA8CF1A1
:102B68008342F2D304498A784FF0FF330232034894
:102B78000068FFF702FA10BD440B0020C40B0020C8
:102B88000EB410B583B0164B55221A705A70C21C79
:102B98009A701522DA70187106AB0193002305228A
:102BA8000DE001990C1D019402F1010C91F800E06F
:102BB8000B4901F802E00133DBB25FFA8CF2834281
:102BC800EFD307498A784FF47A73023205480068D0
:102BD800FFF7D3F903B0BDE8104003B0704700BF5A
:102BE800440B0020C40B002070B506460D46012496
:102BF80014E006EBC4010022CB4BD1E90001FDF73C
:102C0800F5FD0022C94BFDF7C7FC0022C84BFDF7B4
:102C18000DFBFDF7D3FE25F8140001341E2C00F33C
:102C2800D182631E1D2BF8D801A252F823F000BFF1
:102C3800FB2B0008B12C0008DD2C0008072D00082C
:102C4800312D00085D2D0008892D0008B32D0008DE
:102C5800DF2D0008092E0008332E00085F2E00081B
:102C6800892E0008B32E0008DF2E0008552F000813
:102C78007F2F0008AB2F0008D52F0008FF2F000872
:102C880029300008533000087D300008A7300008BC
:102C9800D1300008FB300008253100084F3100080A
:102CA80079310008A331000806EBC40100229E4BCD
:102CB800D1E90001FDF79AFD93A3D3E90023FDF7BD
:102CC8006BFC00229B4BFDF7B1FAFDF777FE25F868
:102CD8001400A2E706EBC4010022934BD1E90001DE
:102CE800FDF784FD0022944BFDF756FC0022934B20
:102CF800FDF79CFAFDF762FE25F814008DE706EB58
:102D0800C4010022884BD1E90001FDF76FFD0022C4
:102D1800864BFDF741FC0022854BFDF787FAFDF74E
:102D28004DFE25F8140078E706EBC40100227E4B1F
:102D3800D1E90001FDF75AFD73A3D3E90023FDF79C
:102D48002BFC00227B4BFDF771FAFDF737FE25F8C7
:102D5800140062E706EBC4010022734BD1E90001BD
:102D6800FDF744FD68A3D3E90023FDF715FC002215
:102D7800734BFDF75BFAFDF721FE25F814004CE7CD
:102D880006EBC4010022684BD1E90001FDF72EFDD6
:102D98000022664BFDF700FC0022654BFDF746FA62
:102DA800FDF70CFE25F8140037E706EBC4010022F6
:102DB8005D4BD1E90001FDF719FD55A3D3E90023C7
:102DC800FDF7EAFB00225B4BFDF730FAFDF7F6FD55
:102DD80025F8140021E706EBC4010022524BD1E983
:102DE8000001FDF703FD0022534BFDF7D5FB002240
:102DF800544BFDF71BFAFDF7E1FD25F814000CE72D
:102E080006EBC4010022484BD1E90001FDF7EEFCB6
:102E18000022464BFDF7C0FB0022454BFDF706FAA2
:102E2800FDF7CCFD25F81400F7E606EBC4010022F7
:102E38003D4BD1E90001FDF7D9FC33A3D3E90023C9
:102E4800FDF7AAFB00223B4BFDF7F0F9FDF7B6FDB5
:102E580025F81400E1E606EBC4010022324BD1E963
:102E68000001FDF7C3FC0022334BFDF795FB002260
:102E7800354BFDF7DBF9FDF7A1FD25F81400CCE68D
:102E880006EBC4010022284BD1E90001FDF7AEFC96
:102E98000022264BFDF780FB0022244BFDF7C6F9E4
:102EA800FDF78CFD25F81400B7E606EBC4010022F7
:102EB8001D4BD1E90001FDF799FC13A3D3E90023C9
:102EC800FDF76AFB00221B4BFDF7B0F9FDF776FD15
:102ED80025F81400A1E606EBC4010022124BD1E943
:102EE8000001FDF783FC0CA3D3E90023FDF754FB95
:102EF8000BA3D3E90023FDF799F9FDF75FFD25F84A
:102F080014008AE6AFF3008000000000002077403C
:102F18000000000000F0774000000000001077403B
:102F28000000000000A066400080564000407F403E
:102F380000807B40000069400080764000005E40D1
:102F48000000684000E080400080514006EBC4016A
:102F580000229F4BD1E90001FDF748FC00229D4B60
:102F6800FDF71AFB00229C4BFDF760F9FDF726FDE3
:102F780025F8140051E606EBC4010022944BD1E970
:102F88000001FDF733FC90A3D3E90023FDF704FB10
:102F98000022924BFDF74AF9FDF710FD25F81400C1
:102FA8003BE606EBC4010022894BD1E90001FDF79D
:102FB8001DFC00228A4BFDF7EFFA0022894BFDF732
:102FC80035F9FDF7FBFC25F8140026E606EBC401ED
:102FD80000227F4BD1E90001FDF708FC0022804B5D
:102FE800FDF7DAFA00227F4BFDF720F9FDF7E6FC42
:102FF80025F8140011E606EBC4010022744BD1E950
:103008000001FDF7F3FB0022754BFDF7C5FA00221E
:10301800744BFDF70BF9FDF7D1FC25F81400FCE51E
:1030280006EBC40100226A4BD1E90001FDF7DEFB83
:1030380000226B4BFDF7B0FA00226A4BFDF7F6F859
:10304800FDF7BCFC25F81400E7E506EBC4010022F7
:103058005F4BD1E90001FDF7C9FB0022604BFDF78A
:103068009BFA00225F4BFDF7E1F8FDF7A7FC25F876
:103078001400D2E506EBC4010022554BD1E900014A
:10308800FDF7B4FB0022564BFDF786FA0022554B9C
:10309800FDF7CCF8FDF792FC25F81400BDE506EB2A
:1030A800C40100224A4BD1E90001FDF79FFB002231
:1030B8004B4BFDF771FA00224A4BFDF7B7F8FDF7C5
:1030C8007DFC25F81400A8E506EBC4010022404B5E
:1030D800D1E90001FDF78AFB0022414BFDF75CFABC
:1030E8000022404BFDF7A2F8FDF768FC25F8140014
:1030F80093E506EBC4010022354BD1E90001FDF749
:1031080075FB0022364BFDF747FA0022354BFDF7D9
:103118008DF8FDF753FC25F814007EE506EBC40195
:1031280000222B4BD1E90001FDF760FB00222C4B5C
:10313800FDF732FA00222B4BFDF778F8FDF73EFC3D
:1031480025F8140069E506EBC4010022204BD1E9FB
:103158000001FDF74BFB0022214BFDF71DFA002271
:10316800204BFDF763F8FDF729FC25F8140054E51A
:1031780006EBC4010022164BD1E90001FDF736FB2E
:103188000022174BFDF708FA0022164BFDF74EF800
:10319800FDF714FC25F814003FE506EBC4010022F6
:1031A8000B4BD1E90001FDF721FB00220C4BFDF789
:1031B800F3F900220B4BFDF739F8FDF7FFFB25F873
:1031C80014002AE570BD00BF000000000020774011
:1031D8000080564000407F4000807B4000006940EE
:1031E8000080764000408540014B1868704700BF5A
:1031F8000C00002070B50D4E0D4D761BB61006D094
:10320800002455F8043B01349847A642F9D1094EE9
:10321800094D02F08BFD761BB61006D0002455F838
:10322800043B01349847A642F9D170BDE05F00081D
:10323800E05F0008E85F0008E05F0008830730B53A
:1032480048D0541E002A3FD00346CAB201E0013CD0
:103258003AD303F8012B9D07F9D1032C2DD9CDB210
:1032680045EA05250F2C45EA054536D9A4F1100293
:1032780022F00F0C03F1200EE6444FEA121C03F172
:10328800100242E9045542E9025510327245F8D15C
:103298000CF1010214F00C0F03EB021204F00F0CF6
:1032A80013D0ACF1040323F003030433134442F8AE
:1032B800045B9342FBD10CF003042CB1CAB21C444A
:1032C80003F8012B9C42FBD130BD64461346002C09
:1032D800F4D1F9E703461446BFE71A46A446E0E7E7
:1032E800024B13B1024800F005B870470000000017
:1032F80009330008002301461A46184600F01AB898
:1033080038B5084B084D5B1B9C1007D0043B1D4487
:10331800013C55F804399847002CF9D1BDE83840EC
:1033280002F00ABDEC5F0008E85F0008704700BFC4
:10333800704700BF2DE9F047DFF87CA00646DAF8B1
:10334800000098460F469146FFF7F0FF1B4B1B689D
:10335800D3F8484124B365681F2D26DC5EB96B1C81
:103368000235DAF80000636044F82570FFF7E0FFE3
:103378000020BDE8F087012304EB8501C1F888909F
:10338800D4F88821AB401A43022EC4F88821C1F82A
:103398000881E4D1D4F88C211343C4F88C31DEE7DA
:1033A80003F5A674C3F84841D5E7DAF80000FFF73B
:1033B800BFFF4FF0FF30DCE738040020C05D000895
:1033C8002DE9F84FB84F21F00046BE4204460D469D
:1033D8008A461CDDB54B9E420DDC0AD0B44BB54A7B
:1033E800B54CBAF1000FD8BF134620461946BDE8C0
:1033F800F88F0028F2D022462B4620462946FCF7B3
:1034080015FF04460B4620461946BDE8F88FAB4B1E
:103418009E4200F3B080A3F1DE739E4240F39D808C
:103428004FF0FF3B22462B4620462946FDF7B4F8CD
:1034380002460B4680468946FDF7AEF882A3D3E9DB
:10344800002306460F46FDF7A7F881A3D3E900231A
:10345800FCF7ECFE32463B46FDF79EF87EA3D3E927
:103468000023FCF7E3FE32463B46FDF795F87CA3C4
:10347800D3E90023FCF7DAFE32463B46FDF78CF829
:1034880079A3D3E90023FCF7D1FE32463B46FDF78A
:1034980083F877A3D3E90023FCF7C8FE42464B46DE
:1034A800FDF77AF874A3D3E90023804689463046AD
:1034B8003946FDF771F872A3D3E90023FCF7B4FE8F
:1034C80032463B46FDF768F86FA3D3E90023FCF7C3
:1034D800ABFE32463B46FDF75FF86DA3D3E9002308
:1034E800FCF7A2FE32463B46FDF756F86AA3D3E93D
:1034F8000023FCF799FE32463B46FDF74DF8BBF139
:10350800FF3F02460B464046494653D0FCF78EFE25
:103518006B4E22462B46FDF73FF86A4B06EBCB066F
:103528004FEACB0B9B44DBE90023FCF77DFE2246E8
:103538002B46FCF779FE0B460246D6E90001FCF75C
:1035480073FEBAF1000F04460B46BFF64EAF01F109
:10355800004320461946BDE8F88F51A3D3E900235C
:10356800FCF764FE0022584BFDF7C6FA00283FF42A
:1035780057AF2B4639E700F003F9544B04469E42F7
:103588000D4629DCA3F550239E4250DC02460B462B
:10359800FCF74CFE00224C4BFCF746FE02460B465D
:1035A8002046294614461D464FF0000B00224FF0D6
:1035B800804326E0FCF73AFE22462B46FCF7ECFF58
:1035C80002460B4620462946FCF72EFE04460B46CB
:1035D80020461946BDE8F88F3D4B9E421CDA002272
:1035E8003C4BFCF721FE02460B4620462946144672
:1035F8001D460022374B4FF0020BFCF7CDFF00228F
:10360800314BFCF713FE02460B4620462946FDF7D0
:10361800EDF804460D4605E702460B4600202E4904
:10362800FDF7E4F84FF0030B04460D46FAE60022D6
:10363800254BFCF7F9FD02460B46204629464FF07C
:10364800010B14461D46DAE711DA22E33AAD903F42
:10365800EB0D76244B7BA93F513DD0A0660DB13FC1
:103668006E204CC5CD45B73FFF8300922449C23F29
:103678000D5555555555D53F2F6C6A2C44B4A2BFEE
:103688009AFDDE522DDEAD3F6D9A74AFF2B0B33FB6
:10369800711623FEC671BC3FC4EB98999999C93F2E
:1036A8009C7500883CE4377EFFFF0F440000F07FE4
:1036B800FB21F93FFB21F9BF182D4454FFFFDB3FE5
:1036C800C85D0008E85D00080000F03FFFFFF23F1A
:1036D800008003400000F83F0000F0BF10B5264C02
:1036E80021F00043A34286B021DD244A934209DD3C
:1036F80002460B46FCF798FD02460B461046194653
:1037080006B010BD02AA01F0D7F800F003000128A6
:1037180014D0022826D0E0B1DDE90423DDE9020156
:103728000124009402F008F902460B46E6E700225D
:10373800002306B0BDE8104001F0AEBBDDE904236C
:103748000090DDE9020102F0F7F8024601F10043BA
:10375800D4E7DDE90423DDE9020101F09DFB02461F
:103768000B46CBE7DDE90423DDE9020101F094FB18
:10377800024601F10043C1E7FB21E93FFFFFEF7F6C
:1037880021F00041704700BFF8B504460D4600F02F
:10379800BBF8224606460F462B4620462946FDF72B
:1037A800B5F940B920462946FFF7EAFF0022084B41
:1037B800FDF7A2F910B930463946F8BDFFF714FDF8
:1037C8002122034603481A60BDE8F84002F028BAEF
:1037D8000000F03F905D00082DE9F84314461D46AF
:1037E8008046894600F0E4FA224606460F462B46F4
:1037F80020462946FDF78AF978B900220023404679
:103808004946FDF751F9D8B1002200232046294640
:10381800FDF74AF928B10026254F30463946BDE85C
:10382800F8832046294602F079F90028F5D0204689
:10383800294600220023FDF741F90028EDD02CE0AD
:103848003046394602F06AF9A0B10022002330461A
:103858003946FDF729F90028DFD04046494602F0ED
:103868005DF90028D9D02046294602F057F90028EA
:10387800D3D012E04046494602F050F90028E4D07F
:103888002046294602F04AF90028DED032463B4657
:1038980030463946FDF73AF920B9FFF7A5FC22234F
:1038A8000360BAE7FFF7A0FC21230360B5E700BF78
:1038B8000000F03FF8B504460D4601F027FA22460D
:1038C80006460F462B4620462946FDF71FF930B914
:1038D8002046294600220023FDF7F0F810B93046AB
:1038E8003946F8BDFFF780FC002200232121016042
:1038F80010461946FCF77AFF06460F463046394609
:10390800F8BD00BF000000002DE9F84FC44E21F0BB
:103918000043B34204460D460DDD03F1404303F571
:103928008013034340F0B980002940F3C080002091
:103938000021BDE8F88FBB4EB34208DCBA4A934277
:1039480000F3BA809CA1D1E90001BDE8F88F0029F5
:10395800C0F2708102462B460020B449FCF764FC93
:103968000022B34BFCF718FE04460D4601F0CEF9D1
:1039780093A3D3E900238946804629462046FCF7CD
:103988000BFE91A3D3E90023FCF750FC22462B46FB
:10399800FCF702FE8EA3D3E90023FCF745FC224680
:1039A8002B46FCF7F9FD8CA3D3E90023FCF73EFC7A
:1039B80022462B46FCF7F0FD89A3D3E90023FCF748
:1039C80033FC22462B46FCF7E7FD87A3D3E9002307
:1039D800FCF72CFC22462B46FCF7DEFD84A3D3E93A
:1039E800002382468B4620462946FCF7D5FD82A354
:1039F800D3E90023FCF718FC22462B46FCF7CCFD44
:103A08007FA3D3E90023FCF711FC22462B46FCF7E1
:103A1800C3FD7DA3D3E90023FCF706FC22462B4611
:103A2800FCF7BAFD0022814BFCF700FC02460B466E
:103A380050465946FCF7DAFE42464B46FCF7ACFDC9
:103A4800002682468B4632464B4630464946FCF7AE
:103A5800A3FD02460B4620462946FCF7E5FB324605
:103A680004460D464B4640464946FCF7DFFB0246F6
:103A78000B4620462946FCF7B9FE02460B4650463F
:103A88005946FCF7D3FB32464B46FCF7CFFB0246C0
:103A98000B46FCF7CBFBBDE8F88F02460B46FCF75C
:103AA800C3FB02460B46FCF7A1FEBDE8F88F58A100
:103AB800D1E90001BDE8F88F02460B46FCF76CFD22
:103AC8003FA3D3E9002306460F46FCF765FD3EA356
:103AD800D3E90023FCF7AAFB32463B46FCF75CFD22
:103AE8003BA3D3E90023FCF79FFB32463B46FCF798
:103AF80053FD39A3D3E90023FCF798FB32463B4634
:103B0800FCF74AFD36A3D3E90023FCF78DFB3246C8
:103B18003B46FCF741FD34A3D3E90023FCF786FBC1
:103B280032463B46FCF738FD31A3D3E900238046F3
:103B3800894630463946FCF72FFD2FA3D3E90023E9
:103B4800FCF772FB32463B46FCF726FD2CA3D3E973
:103B58000023FCF76BFB32463B46FCF71DFD2AA30E
:103B6800D3E90023FCF760FB32463B46FCF714FD23
:103B780000222E4BFCF75AFB02460B4640464946AC
:103B8800FCF734FE22462B46FCF706FD02460B46A0
:103B980021A1D1E90001FCF747FB02460B4620466C
:103BA8002946FCF741FB02460B4603A1D1E9000177
:103BB800FCF73AFBBDE8F88F182D4454FB21F93F78
:103BC80009F7FD0DE13D023F88B20175E0EF493F7D
:103BD8003B8F68B52882A43F5544880E55C1C93F1C
:103BE8007D6FEB0312D6D43F555555555555C53FF6
:103BF80082922EB1C5B8B33F59018D1B6C06E63FC2
:103C0800C88A599CE52A00404B2D8A1C273A034054
:103C1800182D4454FB210940075C143326A6913C17
:103C2800FFFFEF3FFFFFDF3F0000603C0000F03F79
:103C38000000E03F00225C4BFCF7F8FA00225B4BE7
:103C4800FCF7AAFC40A3D3E9002304460D46FCF781
:103C5800A3FC3FA3D3E90023FCF7E8FA22462B464E
:103C6800FCF79AFC3CA3D3E90023FCF7DDFA2246D3
:103C78002B46FCF791FC3AA3D3E90023FCF7D6FACC
:103C880022462B46FCF788FC37A3D3E90023FCF730
:103C9800CBFA22462B46FCF77FFC35A3D3E9002359
:103CA800FCF7C4FA22462B46FCF776FC8046894688
:103CB8002046294601F02AF82FA3D3E90023064617
:103CC8000F4620462946FCF767FC2DA3D3E90023BD
:103CD800FCF7AAFA22462B46FCF75EFC2AA3D3E996
:103CE8000023FCF7A3FA22462B46FCF755FC28A331
:103CF800D3E90023FCF798FA22462B46FCF74CFC44
:103D08000022294BFCF792FA02460B4640464946E8
:103D1800FCF76CFD32463B46FCF73EFC1EA3D3E99C
:103D28000023FCF781FA32463B46FCF77FFA02464D
:103D38000B46FCF77BFA02460B4619A1D1E90001B4
:103D4800FCF772FABDE8F88F09F7FD0DE13D023F77
:103D580088B20175E0EF493F3B8F68B52882A43FE0
:103D68005544880E55C1C93F7D6FEB0312D6D43F29
:103D7800555555555555C53F82922EB1C5B8B33FD7
:103D880059018D1B6C06E63FC88A599CE52A0040FC
:103D98004B2D8A1C273A0340075C143326A6913C16
:103DA800182D4454FB2109400000F03F0000E03F7B
:103DB8002DE9F04F23F0004B80465BEA02001446E1
:103DC8001D460E4693B016D143467D49DB1886F44E
:103DD80000225241984271EB020324D24046224607
:103DE8002B463146FCF722FACDE90001DDE9000156
:103DF80013B0BDE8F08F1146724A26F0004991458C
:103E08009A463746434617DD07F1404707F58017BE
:103E18001F43E3D122196A4985F400235B41974285
:103E280071EB0303DAD30023674CCDE90034DDE9F5
:103E3800000113B0BDE8F08F40D0624A9345E3DC3F
:103E480000F09380002F73DB0022029279B95D4A5B
:103E5800934500F08E805C4A934500F0A280BAF149
:103E6800804F00F0A084594A924500F0C68340462E
:103E780031460493FFF784FC049BCDE900015BB352
:103E8800029AFB0F013B0A93134300F09380504BB7
:103E98009B4540F3A38003F104739B454D4B40F3CE
:103EA8001B84994540F39184BAF1000F40F3918443
:103EB800002013B0BDE8F04F01F02ABE002B8DD1D1
:103EC800BBE7404631460293FFF75AFC029BCDE917
:103ED8000001002B6ED10293B9F1000F04D03A4BC8
:103EE80027F040429A42CBD1BAF1000F07DADDE958
:103EF800002300203449FCF779FCCDE90001002FAC
:103F0800BFF674AF029B09F1404909F5801959EAD7
:103F1800030340F06E84DDE9002310461946FCF7E0
:103F280083F902460B46FCF761FCCDE900015DE729
:103F3800294A93452FDCA2F1547293450FDD4FEACD
:103F48002B52A2F2FF32142A40F34584C2F1340204
:103F580021FA02F000FA02F28A4200F07784002285
:103F6800029200293FF477AF81E700293FF46AAF56
:103F78004AE709F1404202F5801213433FF453AF78
:103F8800144B994540F36D83BAF1000FC0F2638377
:103F9800CDE900452AE70222029200293FF457AFF3
:103FA80065E7BAF1000FC0F2F48340463146CDE927
:103FB80000011BE74246404633463146AFE700BFA3
:103FC8000000F0FF0000F07F0000F03F0000E03F3D
:103FD8000000E041FFFFEF3FFFFF3F43D44B3B4072
:103FE800002B40F04783DDE900010022D14BFCF7AC
:103FF800D3FA6FF034028946CDE900014FEA29531C
:10400800A3F2FF339A18CC4BC9F3130949F07F5632
:1040180099450B9246F4401607DDC84B994540F385
:10402800F58301320B92A6F58016002200230020AA
:104038000027C349CDE90823CDE90601CDE91023BE
:10404800DDE90001DDE9062331468246FCF7ECF89C
:10405800DDE90623B3468046894650463146CDE918
:104068000CABFCF7E3F802460B460020B449FCF71A
:10407800BDFB8C46834663465A4640464946CDE9D1
:104088000EBCFCF789FA82468B46731043F0005346
:1040980003F50023D9190F465A465146002300203C
:1040A800CDE900120093064602463B46CDE904AB33
:1040B800DDE900AB50465946FCF76EFA02460B465E
:1040C80040464946FCF7B0F8DDE9062380468946B4
:1040D80030463946FCF7A8F802460B46DDE90C01E4
:1040E800FCF7A2F852465B46FCF756FA02460B4626
:1040F80040464946FCF798F8DDE90E23FCF74CFAF0
:10410800DDE90467CDE9060132463B4630463946CB
:10411800FCF742FA74A3D3E9002306460F46FCF7DE
:104128003BFA73A3D3E90023FCF780F832463B46F9
:10413800FCF732FA70A3D3E90023FCF777F832468C
:104148003B46FCF729FA6EA3D3E90023FCF76EF887
:1041580032463B46FCF720FA6BA3D3E90023FCF771
:1041680065F832463B46FCF717FA69A3D3E9002302
:10417800FCF75CF83246804689463B46304639466D
:10418800FCF70AFA02460B4640464946FCF704FA91
:1041980006460F46DDE9040152465B46FCF746F841
:1041A800DDE90623FCF7F8F932463B46FCF73EF812
:1041B8005246804689465B4650465946FCF7ECF91C
:1041C80002460B46CDE90C2300225E4BFCF72EF885
:1041D80042464B46FCF72AF800260F4632463B4635
:1041E80050465946FCF7D8F9002282468B4630469D
:1041F8003946544BFCF718F8DDE90C23FCF714F8A2
:1042080002460B4640464946FCF70EF8DDE9042312
:10421800FCF7C2F9324680468946DDE906013B468D
:10422800FCF7BAF902460B4640464946FBF7FEFF43
:1042380080468946002642464B4650465946FBF77B
:10424800F5FF35A3D3E9002330460F46FCF7A4F960
:1042580052465B4682468B4630463946FBF7E4FFBA
:1042680002460B4640464946FBF7DEFF2CA3D3E93E
:104278000023FCF791F902460B46304639461646AC
:104288001F4629A3D3E90023FCF786F902460B460B
:1042980030463946FBF7CAFFDDE91023FBF7C6FFB6
:1042A80006460B980F46FCF70DF9804689463246BC
:1042B8003B4650465946CDE904ABFBF7B7FFDDE96D
:1042C8000823FBF7B3FF4FF0000A42464B46FBF7C3
:1042D800ADFF42464B4650468B46FBF7A5FFDDE94E
:1042E8000823FBF7A1FF2FE0EF4E454A287ECA3F7F
:1042F80065DBC9934A86CD3F01411DA96074D13F52
:104308004D268F515555D53FFFAB6FDBB66DDB3F63
:10431800033333333333E33F000000E009C7EE3F94
:10432800FD033ADC09C7EE3FF5015B14E02F3EBE02
:104338000000F07F000040438E98030079B60B0020
:104348000000F03F00000840DDE90423FBF76CFFA4
:1043580002460B4630463946FBF766FF029B0A9A2F
:10436800013B13434FF000020CBFD54BD54BCDE9B1
:104378000045CDE9022300230093DDE90089CDE95A
:10438800040142464B4620462946FBF74DFF52465C
:104398005B46FCF701F9224606460F46DDE90401B3
:1043A8002B46FCF7F9F802460B4630463946FBF730
:1043B8003DFF42464B4606460F4650465946FCF7D7
:1043C800EBF804460D4630462B4639462246FBF7A5
:1043D8002DFFBD4B8046994289468A4640F3178196
:1043E80001F13F4303F5E003034340F02482A2A315
:1043F800D3E9002330463946FBF718FF02460B463F
:10440800404649469046994622462B46FBF70CFF04
:1044180002460B4640464946FCF76EFB002840F032
:104428000A82CAF30A534FF480120020A3F2FE3323
:1044380042FA03F35344A549C3F30A52A2F2FF32E6
:1044480041FA02FCC3F3130B23EA0C01C2F1140274
:104458004BF4801BBAF1000F0B464BFA02FB2946BE
:1044680002462046B8BFCBF1000BFBF7DDFE044641
:104478000D463046394622462B46FBF7D7FE89467D
:104488004FEA0B5A4FF000087DA3D3E900234046BA
:104498004946FCF781F822462B4604460D4640461D
:1044A8004946FBF7C1FE02460B4630463946FBF744
:1044B800BBFE75A3D3E90023FCF76EF874A3D3E918
:1044C800002306460F4640464946FCF765F8024673
:1044D8000B4630463946FBF7A9FE804689464246D8
:1044E8004B4620462946FBF7A1FE22462B460646A8
:1044F8000F46FBF799FE02460B4640464946FBF736
:1045080093FE3246804689463B4630463946FCF79C
:1045180043F861A3D3E9002304460D46FCF73CF8B1
:104528005FA3D3E90023FBF77FFE22462B46FCF767
:1045380033F85DA3D3E90023FBF778FE22462B4628
:10454800FCF72AF85AA3D3E90023FBF76DFE2246AD
:104558002B46FCF721F858A3D3E90023FBF766FEA6
:1045680022462B46FCF718F802460B4630463946D9
:10457800FBF75AFE04460D4622462B46304639467E
:10458800FCF70AF802460B462046294614461D4603
:1045980000224FF08043FBF747FE02460B462046B9
:1045A8002946FCF723F9424604460D464B46304659
:1045B8003946FBF7F1FF42464B46FBF737FE02460A
:1045C8000B4620462946FBF72FFE32463B46FBF7B3
:1045D8002BFE02460B4600203A49FBF725FE8A448B
:1045E800BAF5801FC0F223815146DDE90223FBF7AB
:1045F800D3FFCDE90001FFF7F9BB002FFFF637AC79
:104608004046314613B0BDE8F04F00F07FBBDFF8FD
:10461800C0C021F00043634540F3CF802D4B0B44CD
:1046280003430AD122462B46FBF7FEFD32463B46A2
:10463800FCF758FA00283FF4F4AEDDE90201002245
:104648000023FCF73BFA003818BF012013B0BDE87F
:10465800F04F01F057BA00230024CDE90034FFF7EA
:10466800C5BBBAF1000FF6DA05F1004300940193D7
:10467800FFF7BCBB0022C1E4FE822B654715973CBF
:1046880000000000432EE63FEF39FAFE422EE63FD7
:10469800396CA80C615C20BED0A4BE726937663E36
:1046A800F16BD2C541BDBB3E2CDE25AF6A56113F2A
:1046B80093BDBE166CC1663F3E5555555555C53F11
:1046C8000000F0BF0000F03FFFFF8F40FFFF0F002A
:1046D800FFCB904000346F3F994576DB724B99458C
:1046E8003FF7E2ABDDE9000100226F4BFBF79CFDD1
:1046F80061A3D3E9002306460F46FBF74DFF60A3ED
:10470800D3E9002382468B4630463946FBF744FFFF
:104718000022CDE90001654B30463946FBF73CFFE6
:1047280002460B4658A1D1E90001FBF77DFD324650
:104738003B46FBF731FF02460B4600205C49FBF77E
:1047480073FD32463B468046894630463946FBF77C
:1047580023FF02460B4640464946FBF71DFF4CA384
:10476800D3E90023FBF718FF02460B46DDE90001F9
:10477800FBF75AFD06460F465046594632463B4619
:10478800FBF754FD52464FF0000A5B4650468B46F5
:10479800DCE54246002033464349FCF727F8CDE9DB
:1047A8000001FFF723BB4246404633463146FBF73C
:1047B800F3FECDE90001FFF719BB3D4A934256DCF1
:1047C800DDE90023924693465CE6BAF1000FFFF656
:1047D8006FAB00203AE700297FF473ABC2F11402F3
:1047E8004BFA02F000FA02F25A4539D00291FFF76B
:1047F80032BB029B012B7FF4F9AADDE90045224672
:1048080005F10043CDE90023FFF7F0BA0022294B58
:104818004FF48027CDE906231FA3D3E90023CDE970
:1048280008231FA3D3E90023CDE9102308E45A463F
:1048380001F0FEF9D9E60022DDE902010023FCF7C8
:104848003DF9003818BF0120FFF733BB00F0010025
:10485800C0F10202029200293FF4FDAAFFF707BB4C
:1048680000F00100C0F102020292FFF7F4BA1B1532
:10487800D9E500BFAFF30080000000604715F73F9F
:1048880044DF5DF80BAE543E555555555555D53F4B
:10489800FE822B654715F73F0000004003B8E23F52
:1048A80006D0CF43EBFD4C3E0000F03F0000D03F68
:1048B8000000E03F0000F83F2DE9F04FDFF838C274
:1048C80021F000456545064614468FB040F38580C3
:1048D8008A4A0F46954226DC7DA3D3E900230029A6
:1048E80040F3C081FBF7A0FC854B80469D4289467A
:1048F80000F08A8078A3D3E90023FBF795FC0246F1
:104908000B464046C4E900234946FBF78DFC72A3D9
:10491800D3E90023FBF788FC0126C4E902013046ED
:104928000FB0BDE8F08F774A954240F38D80764A04
:1049380095425FDC4FEA2558A8F21648A5EB0851C6
:104948008B46FCF7F9F8FBF7BDFD02460B463046EF
:104958005946CDE90823FBF767FC00226B4BFBF7B0
:104968001BFE8B468246FCF7E7F80546FBF7AAFDD7
:1049780002460B4650465946CDE90A23FBF754FC3C
:104988000022624BFBF708FE02460B46CDE90C23DA
:1049980000220023FCF788F8002800F06181002D30
:1049A8000CBF01230223022559494246019108A858
:1049B8002146009500F098FB002F0646AFDAD4E9AF
:1049C800000505F10041C4E90001E168A26801F1B0
:1049D8000043C4E902237642A1E700264FF000080D
:1049E8004FF00009C2E900013046C2E902890FB060
:1049F800BDE8F08F02460B46FBF716FC0026C4E91B
:104A08000201C4E900018AE735A3D3E90023FBF7D3
:104A18000BFC35A3D3E9002380468946FBF704FC49
:104A280002460B464046C4E900234946FBF7FCFB17
:104A38002DA3D3E90023FBF7F7FB0126C4E9020104
:104A480030460FB0BDE8F08FFEF79AFE28A3D3E9F1
:104A5800002380468946FBF79FFD00222D4BFBF77C
:104A6800E5FBFCF769F80646FBF72CFD18A3D3E92C
:104A7800002382468B46CDE904ABFBF78DFD024649
:104A88000B4640464946FBF7CFFB13A3D3E9002367
:104A9800CDE9020150465946FBF77EFD1F2E8046A0
:104AA80089463BDC1C4B721E53F82230AB4235D092
:104AB80002460B46DDE90201FBF7B6FB02460B4650
:104AC80082468B46C4E90023AEE000BFAFF3008006
:104AD80000004054FB21F93F3163621A61B4D03DB4
:104AE8000000601A61B4D03D7370032E8A19A33B8D
:104AF80083C8C96D305FE43FFB21E93F7BD90240A1
:104B0800FB21F93FFB213941FFFFEF7F0000704196
:104B1800885E00080000E03F085E00082B15079338
:104B28004246DDE902014B46FBF77EFBC1F30A531F
:104B3800C3EB1555102D8B46824671DD68A3D3E96A
:104B48000023DDE90401FBF727FDDDE902AB804620
:104B5800894642464B4650465946FBF765FB024696
:104B68000B465046594692469B46FBF75DFB42462C
:104B78004B46FBF759FB5CA3D3E9002380468946E3
:104B8800DDE90401FBF708FD42464B46FBF74CFB09
:104B9800804689465046594642464B46CDE902ABC7
:104BA800FBF742FB079AC1F30A53D31A312B8B4602
:104BB800824635DD4EA3D3E90023DDE90401FBF786
:104BC800EBFCDDE902AB8046894642464B4650463F
:104BD8005946FBF729FB02460B4650465946924672
:104BE8009B46CDE902ABFBF71FFB42464B46FBF762
:104BF8001BFB41A3D3E9002380468946DDE9040174
:104C0800FBF7CAFC42464B46FBF70EFB804689463B
:104C18005046594642464B46FBF706FB8B468246B2
:104C280052465B46C4E90023DDE9020152465B4671
:104C3800FBF7FAFA42464B46FBF7F6FA02460B46F2
:104C4800002FC4E90223BFF66AAE0BF1004301F15D
:104C58000041A0606360E1607642C4F800A05EE6AF
:104C68000323A0E6FBF7E2FA274B80469D428946DC
:104C780016D023A3D3E90023FBF7D8FA02460B4644
:104C88004046C4E900234946FBF7CEFA1CA3D3E902
:104C98000023FBF7CBFA4FF0FF36C4E902013EE6EA
:104CA8000FA3D3E90023FBF7C1FA0FA3D3E900232D
:104CB80080468946FBF7BAFA02460B464046C4E9E5
:104CC80000234946FBF7B0FA07A3D3E90023FBF713
:104CD800ADFA4FF0FF36C4E9020120E6AFF30080D9
:104CE8000000601A61B4D03D7370032E8A19A33B8B
:104CF8000000002E8A19A33BC14920259A837B39DD
:104D08003163621A61B4D03DFB21F93F2DE9F843C4
:104D1800604E054636EA01020C4600F09E800029E6
:104D28000B46844654DD091562D0C3F31303C80744
:104D3800A1F2FF3743F4801304D45B0003EBDC7368
:104D48004FEA4C0C00264FEADC7202EB43034FF0AB
:104D5800160E4FF4001234467F104FEA4C0CA1187F
:104D6800994202DC5B1A8C1816445B00BEF1010EF6
:104D780003EBDC734FEA52024FEA4C0CEFD1754655
:104D880020204FF000420AE043D04FEADC7101389E
:104D980001EB43034FEA4C0C4FEA520242D0A342C4
:104DA80002EB0E01F0DD002901EB020E0ADBA04642
:104DB8001B1B614588BF03F1FF334446ACEB010C74
:104DC8001544E2E7BEF1000FF1DB04F10108EFE75B
:104DD80021F00042024336D000294CD14FEADC22B0
:104DE800134615394FEA4C5C002AF7D0D6024CD44A
:104DF80000205B00DD02044600F10100F9D51A46E7
:104E080063460CFA00FCC0F12000C340091B1343A1
:104E18008BE76145B9D8002901EB020ED2DB984631
:104E28000023CAE753EA0C0311D16808731003F191
:104E38007F5303F50013F20748BF40F0004003EB2F
:104E4800075905464C4628462146BDE8F883691CA3
:104E580016BF681C01364008E8E702460B46FBF718
:104E68009BFB2A462346FBF7E1F905460C462846F4
:104E78002146BDE8F8830246FBF7D6F902460B4601
:104E8800FBF7B4FC05460C46DDE7634620204FF0EF
:104E9800FF34BAE70000F07F2DE9F04F21F000461B
:104EA800B6F1795F92469B460C46054685B06DDAA9
:104EB800FBF742FE002800F0EB802A4623462846EE
:104EC8002146FBF769FB76A3D3E900238046894690
:104ED800FBF762FB74A3D3E90023FBF7A7F942466B
:104EE8004B46FBF759FB72A3D3E90023FBF79CF968
:104EF80042464B46FBF750FB6FA3D3E90023FBF771
:104F080095F942464B46FBF747FB6DA3D3E90023CF
:104F1800FBF78AF942464B46FBF73EFB6AA3D3E907
:104F28000023FBF783F942464B46FBF735FBCDE9F7
:104F38000001002240464946654BFBF72DFBDDE9A1
:104F4800002306460F4640464946FBF725FBA84680
:104F5800A14652465B4604460D4640464946FBF785
:104F68001BFB02460B4620462946FBF75DF9024625
:104F78000B4630463946FBF757F902460B460020E8
:104F88005449FBF751F905B0BDE8F08F02460B46CE
:104F9800FBF702FB42A3D3E9002380468946FBF7CF
:104FA800FBFA41A3D3E90023FBF740F942464B46FD
:104FB800FBF7F2FA3EA3D3E90023FBF735F94246A3
:104FC8004B46FBF7E9FA3CA3D3E90023FBF72EF99C
:104FD80042464B46FBF7E0FA39A3D3E90023FBF737
:104FE80023F942464B46FBF7D7FA37A3D3E9002308
:104FF800FBF71CF94B464246FBF7CEFA364BCDE998
:1050080000019E4295DD354B00229E423ADCA6F512
:10501800001300202F4916461F46FBF705F9CDE976
:105028000201002240464946294BFBF7B5FA3246B1
:105038003B46FBF7F9F8DDE9002306460F464046F4
:105048004946FBF7A9FAA846A14652465B460446DC
:105058000D4640464946FBF79FFA02460B46204656
:105068002946FBF7E1F802460B4630463946FBF77E
:10507800DBF802460B46DDE90201FBF7D5F805B07F
:10508800BDE8F08F164B0026CDE90223154FC8E77F
:105098000020104905B0BDE8F08F00BFAFF30080D5
:1050A800D43888BEE9FAA8BDC4B1B4BD9EEE213E8D
:1050B800AD529C804F7E923E9015CB19A001FA3ECE
:1050C8007751C1166CC1563F4C5555555555A53F9E
:1050D8000000E03F0000F03F3233D33F0000E93FDB
:1050E8000000E73F0000D23F2DE9F04FADF5197DF4
:1050F800B84CA29D089354F82540013B12F1140FB7
:10510800074605940B910393C0F24283B249D31E1C
:1051180081FB0301DB17C3EBA10307930133A3EB67
:105128008303DB00D3180693079A039BD61A059AC4
:1051380012EB03091BD409F1010900240025DDF84D
:105148008CA2B1440DF1800808E05AF82600FBF75C
:10515800B9F901364E45E8E8020108D0002EF4DA24
:105168002046294601364E45E8E80201F6D1059B5E
:10517800002BC0F2BC83089B20AA02EBC30ADA000A
:105188000292059AA7F108011A44DDF80C900491DF
:105198000DF5E07B019201EBC308039B002BC0F2E5
:1051A800AE81574600240025049E77E90223F6E9DC
:1051B8000201FBF7F1F902460B4620462946FBF7A8
:1051C80035F8464504460D46EFD1019B09F1010922
:1051D8009945EBE802450AF1080ADED1049BDDF89F
:1051E80008B00BAA9B44059B02EB83020A920CAA07
:1051F800019302EB8303083B0993019A98AB03EBF5
:10520800C203002A53E9284529DD0DF5E07A0DF19E
:1052180030090AEBC2080022704B20462946FBF7EA
:10522800BBF9FBF789FCFBF74DF900226C4B0646EE
:105238000F46FBF7B1F902460B4620462946FAF716
:10524800F3FFFBF779FC78E9022349F8040B3946A8
:105258003046FAF7EBFFD04504460D46DBD1DDF8C2
:105268001890204629464A4600F0E2FC00224FF0FA
:105278007F5304460D46FBF78FF900F055FC0022DA
:10528800584BFBF789F902460B4620462946FAF7A0
:10529800CBFF0D460446FBF74FFC8046FBF712F99F
:1052A8000B46024629462046FAF7BEFF4B46002B1E
:1052B80006460F4640F39880019A0CA9013A51F826
:1052C8002250C9F1180345FA03F101FA03F3ED1A64
:1052D8000CAB43F82250C9F117031D41002D884437
:1052E80000F38C800022002330463946FBF7DCFBB4
:1052F800002800F05482019B059A03F1FF3A5245B9
:1053080010DC002203F18043013B0CA90A9801EB51
:10531800830353F80419834242EA0102F9D1002AAF
:1053280040F0F080059B0CAA013B52F82330002B7B
:1053380040F0E0800123099A52F80419013300294A
:10534800FAD0019AD3180293531C9946DDF80480C9
:10535800089A9044079A02EB030A0AF1804AA39A32
:105368000AF1FF3A02EB8A0A20AA02EBC80870AADF
:1053780002EBC30301935AF8040FFBF7A3F8039B4E
:105388004746002B08F1080848E902011FDB002402
:105398000025049E083F01E077E80201F6E90223B0
:1053A800FBF7FAF802460B4620462946FAF73EFF75
:1053B8005E4504460D46EFD1019B09F10109E3E87A
:1053C80002450193029B9945D5DD019315E7002419
:1053D8000025F1E7D05F0008ABAAAA2A0000703EBA
:1053E80000007041000020406BD1019B0CAA013BDA
:1053F80052F82350ED15002D7FF774AF019B08F18B
:105408000108002B40F3C9810C9C002C51D1019B51
:10541800012B20D001220CAB53F8044F002C4BD0A9
:10542800531C0CA9C4F1807441F822400199994297
:1054380010DD0CAC0CAA52F823206FF07F4004EB6F
:10544800830304EB810100E01A68821A43F8042BF5
:105458008B42F9D10124069B002B0EDD012B00F0B5
:105468008C81022B09D1019B0CA95A1E0CAB53F855
:105478002230C3F3150341F82230022D7FF432AFF6
:1054880032463B4600207A49FAF7CEFE06460F46DA
:10549800002C3FF427AF069A0020754900F0C8FB9E
:1054A80002460B4630463946FAF7BEFE06460F4618
:1054B80018E701230022B4E7019901328A42ABD1EF
:1054C800C9E700226B4BFBF70DFB054600283FF4AC
:1054D80009AF019B08F10108002BC8BF022593DC26
:1054E80032463B4600206249FAF79EFE02250646F0
:1054F8000F46F7E6019B01339946029326E70024FD
:10550800002562E6069B0395A3F118020CAB53F83D
:105518002A30CDF81C80069273B9019B0CA903F1BF
:105528008043023B01EB830353F804190AF1FF3A65
:10553800183A0029F8D006920020069A4C4900F043
:1055480077FBBAF1000F04460D46C0F2D7814FF041
:10555800000870AB03EBCA0B0CAA0AF1010306930F
:1055680002EB8306DFF810914FEACA0304930BF1AC
:10557800080756F8040DFAF7A5FF22462B46FBF755
:105588000BF84B4667E90201424620462946FBF7DD
:1055980003F80CAB9E4204460D46EAD148ABCDE970
:1055A800013ADDF814A04FF00009BAF1000F2CDB26
:1055B8002DA3D3E900235F46002600240025DFF849
:1055C800BC8003E0B14510DBF8E80223F7E80201EC
:1055D800FAF7E2FF02460B4620462946FAF726FE6E
:1055E8000136B24504460D46ECDA019B029A03EBFC
:1055F800C9039145C3E90045ABF1080B09F1010363
:1056080006D0BAF1000F9946D2DA00240025ECE75B
:10561800A29BDDF808A0022B32DC002B00F3F280FD
:1056280018D1A29B049D1C46019E08353544184696
:1056380075E902232146FAF7F9FDAE4203460C4606
:10564800F5D1039A0AB104F10044184621460B9B90
:10565800C3E90001079B03F007000DF5197DBDE8BC
:10566800F08F00BFAFF3008000000040FB21F93F3E
:105678000000F03F0000E03F0000703E985F000827
:10568800A29B032BE6D1BAF1000F00F04D81019BDC
:10569800049A13449B46D3E900455BE90267204618
:1056A800294632463B46FAF7C1FDA046A9460446BC
:1056B8000D4622462B4630463946FAF7B5FD4B468D
:1056C8004246FAF7B3FDCBE900016BE90245019BBD
:1056D8005B45E2D1BAF1010F40F32681049B019AA0
:1056E8000DF5947B13449A46D3E9004502935AE991
:1056F80002672046294632463B46FAF797FDA04600
:10570800A94604460D4622462B4630463946FAF746
:105718008BFD42464B46FAF789FDCAE900016AE962
:105728000245D345E3D100231E46029C019A083462
:1057380002F11005184674E902233146FAF776FD9E
:10574800A54203460E46F5D1039A002A40F0A480EC
:10575800184631460B9C019BC4E90401D3E9022396
:10576800C4E90223DDE94823C4E90023079B03F0C9
:1057780007000DF5197DBDE8F08F019B0CA95A1E95
:105788000CAB53F82230C3F3160341F8223074E609
:1057980000216FF017030791C4E400245BE6069C20
:1057A8003046394662420395CDF81C8000F040FA35
:1057B80000225F4B06460F46FBF794F9002861D09C
:1057C80000225C4B1834304639460694FAF7E4FE5A
:1057D800FBF7B2F90446FAF775FE0022544BFAF7C4
:1057E800DBFE0B46024639463046FAF71DFDFBF74D
:1057F800A3F9019D0CAB05F1010A43F8250043F814
:105808002A4099E600263446019F069B07EBC3050C
:10581800304675E902232146FAF708FDAF420646ED
:105828000C46F5D1039B002B50D130462146234628
:105838000B9C3246C4E90001DDE94801FAF7F4FCA3
:10584800BAF1000F03460E4610DD012448AD184694
:10585800F5E902233146FAF7E9FC0134A24503468B
:105868000E46F4DA039A0AB106F1004618463146A4
:105878000B9BC3E90201079B03F007000DF5197D97
:10588800BDE8F08F30463946FBF756F9019B0CAA64
:105898009A4642F823004FE60B9D019C06F100460C
:1058A8006E6126462068A26864682B6104F1004195
:1058B800F468C5E9000104F10043C5E90223079B28
:1058C80003F007000DF5197DBDE8F08F0B9804F182
:1058D80000410660324623464160DDE94801FAF797
:1058E800A3FCBAF1000F03460E46AEDCBCE7A7F1F5
:1058F80008030493089BDB0002936FE4A29B022B2E
:1059080006DC002B0DDC7FF4A5AEA29B1C4698E6B6
:10591800A29B032B7FF49EAE002348AA1E46019249
:1059280012E7002634467DE700231E460CE700BF39
:10593800000070410000703E2DE9F04F85B0CDE9C0
:10594800022321F00043B3F1795F8246019104DA22
:10595800FBF7F2F8002800F08E80019B52461946AA
:105968005046FAF719FE04460D46019B2246194691
:1059780050462B46FAF710FE43A3D3E90023064608
:105988000F4620462946FAF707FE41A3D3E900232C
:10599800FAF74AFC22462B46FAF7FEFD3EA3D3E966
:1059A8000023FAF743FC22462B46FAF7F5FD3CA301
:1059B800D3E90023FAF738FC22462B46FAF7ECFD28
:1059C80039A3D3E90023FAF731FC0E9B80468946B8
:1059D800BBB3DDE902010022374BFAF7DDFD424691
:1059E8004B468046894630463946FAF7D5FD024689
:1059F8000B4640464946FAF717FC22462B46FAF76B
:105A0800CBFDDDE90223FAF70FFC29A3D3E9002334
:105A180004460D4630463946FAF7BEFD02460B46A7
:105A280020462946FAF702FC02460B4650460199E1
:105A3800FAF7FAFB82468B465046594605B0BDE850
:105A4800F08F02460B4620462946FAF7A5FD18A313
:105A5800D3E90023FAF7E8FB32463B46FAF79CFD08
:105A68005246019BFAF7E2FB82468B46504659465E
:105A780005B0BDE8F08FDDF804B05046594605B0D2
:105A8800BDE8F08FAFF300807CD5CF5A3AD9E53D19
:105A9800EB9C2B8AE6E55A3E7DFEB157E31DC73ED7
:105AA800D561C119A0012A3FA6F810111111813F33
:105AB800495555555555C53F0000E03FD0B50646F8
:105AC8000F461446FDF790FB0346394630461C60E6
