:020000040800F2
:1000000000000120E5060008C5050008C705000836
:10001000C9050008CB050008CD0500080000000058
:10002000000000000000000000000000CF050008F4
:10003000D105000800000000D3050008D505000820
:100040002D0700082D0700082D0700082D070008C0
:100050002D0700082D0700082D0700082D070008B0
:100060002D0700082D0700082D0700082D070008A0
:100070002D0700082D0700082D0700082D07000890
:100080002D0700082D0700082D0700082D07000880
:100090002D0700082D0700082D0700082D07000870
:1000A0002D0700082D0700082D0700082D07000860
:1000B0002D0700082D0700082D0700082D07000850
:1000C0002D0700082D0700082D0700082D07000840
:1000D0002D070008DD050008ED0500088D06000865
:1000E0002D0700082D0700082D0700082D07000820
:1000F0002D0700082D0700082D0700082D07000810
:100100002D0700082D0700082D0700082D070008FF
:100110002D0700082D0700082D0700082D070008EF
:100120002D0700082D0700082D0700082D070008DF
:1001300000000000000000000000000000000000BF
:1001400000000000000000000000000000000000AF
:10015000000000000000000000000000000000009F
:10016000000000000000000000000000000000008F
:10017000000000000000000000000000000000007F
:10018000000000000000000000000000000000006F
:10019000000000000000000000000000000000005F
:1001A000000000000000000000000000000000004F
:1001B000000000000000000000000000000000003F
:1001C000000000000000000000000000000000002F
:1001D000000000000000000000000000000000001F
:0401E0005FF8E0F1F3
:1001E40010B5054C237833B9044B13B10448AFF36D
:1001F40000800123237010BD3C0400200000000097
:10020400204C000808B5034B1BB103490348AFF366
:10021400008008BD0000000040040020204C0008BD
:1002240082B00A4B9A6942F004029A619A6902F018
:1002340004020092009A9A6942F008029A619B694A
:1002440003F008030193019B02B0704700100240C1
:1002540072B6FEE708B50A480A4B03604FF416531A
:10026400436000238360C36003610C2242618361A5
:10027400C36101F017F900B908BDFFF7E9FF00BF3A
:10028400E00400200038014008B50A480A4B036026
:100294004FF41653436000238360C36003610C2250
:1002A40042618361C36101F0FDF800B908BDFFF745
:1002B400CFFF00BF580400200044004008B50A489E
:1002C4000A4B03604FF41653436000238360C360FA
:1002D40003610C2242618361C36101F0E3F800B958
:1002E40008BDFFF7B5FF00BF9C0400200048004094
:1002F40000B591B02822002106A804F0CDFB00230C
:100304000193029303930493059302230693012319
:100314000A9310230B9306A800F0DEFC68B90F23A0
:1003240001930021029103910491059101A800F029
:1003340013FF20B911B05DF804FBFFF789FFFFF745
:1003440087FF000070B582B000F016FAFFF7D0FF07
:10035400FFF766FFFFF77EFFFFF796FFFFF7AEFF9D
:10036400264D4FF0FF3310222549284601F0C9F8E5
:1003740000260096234C23681A6800925A6800925B
:10038400009ADA6842F03002DA6064221E4920469C
:1003940001F011FB01962B681A6801925A680192C8
:1003A400019ADA6842F03002DA606422174928467A
:1003B40001F001FB204601F01BFB154B30221A8093
:1003C40001E001F067FB124B1B88313B032BFAD889
:1003D40001A252F823F000BFC7030008ED03000890
:1003E400F3030008F903000803F0EBFFEBE702F066
:1003F400B3F9E8E701F080FEE5E700BF5804002008
:10040400384C00089C040020F406002060050020FD
:10041400F006002082B00E4B9A6942F001029A6104
:100424009A6902F001020092009ADA6942F080525D
:10043400DA61DB6903F080530193019B054A536839
:1004440023F0E06343F00073536002B0704700BFD1
:10045400001002400000014030B58BB00023069329
:1004640007930893099303684F4A934207D04F4A6E
:10047400934236D04E4A934263D00BB030BD4D4BBD
:100484009A6942F480429A619A6902F48042009225
:10049400009A9A6942F004029A619B6903F004038A
:1004A4000193019B4FF400730693022307930323E4
:1004B4000993414D06A9284600F0D8FA4FF4806309
:1004C400069300240794089406A9284600F0CEFA5F
:1004D40022462146252000F099F9252000F0CEF986
:1004E400CBE7344BDA6942F40032DA61DA6902F4B8
:1004F40000320292029A9A6942F004029A619B695C
:1005040003F004030393039B04230693022307933A
:1005140003230993284D06A9284600F0A7FA0823C7
:10052400069300240794089406A9284600F09EFA2E
:1005340022462146262000F069F9262000F09EF983
:100544009BE71C4BDA6942F48022DA61DA6902F42F
:1005540080220492049A9A6942F008029A619B6983
:1005640003F008030593059B4FF48063069302236D
:10057400079303230993114D06A9284600F076FA40
:100584004FF40063069300240794089406A92846B0
:1005940000F06CFA22462146272000F037F9272084
:1005A40000F06CF969E700BF0038014000440040E6
:1005B400004800400010024000080140000C0140C7
:1005C400FEE7FEE7FEE7FEE7FEE770477047704789
:1005D40008B500F0E3F808BD08B5024801F0CEF80C
:1005E40008BD00BFE004002010B582B0104C2046C6
:1005F40001F0C4F823681A6812F0100F03D0DA6807
:1006040012F0100F01D102B010BD002201921A683D
:1006140001925B680193019B204600F0F7FF0549B6
:100624000A78054B1A806422204601F0C4F9EAE7EF
:100634005804002060050020F00600200378552BA4
:1006440000D070474378552BFBD110B590F802E0E9
:100654000EF1020EC378152B11D010BDC25C00EB55
:10066400030C9CF801109CF80240013A41EA042171
:10067400044C24F8121003337345EFDBEDE7052334
:10068400FAE700BF2405002030B583B0114C2046A2
:1006940001F074F823681A6812F0100F03D0DA68B6
:1006A40012F0100F01D103B030BD002201921A687C
:1006B40001925B680193019B204600F0A7FF064D61
:1006C4002846FFF7BBFF64222946204601F073F950
:1006D400E9E700BF9C040020F4060020704770473F
:1006E4000C480D490D4A002302E0D458C450043389
:1006F400C4188C42F9D30A4A0A4C002301E013605F
:100704000432A242FBD3FFF7EAFF04F0A1F9FFF79A
:1007140019FE7047000000203C040020884C0008AB
:100724003C04002010090020FEE7000010B5044638
:100734000E4B18784FF47A73B3FBF0F30C4A10683D
:10074400B0FBF3F000F0A8F868B90F2C01D9012030
:100754000AE0002221464FF0FF3000F057F8054B25
:100764001C60002000E0012010BD00BF0400002038
:10077400000000200800002008B5074A136843F071
:1007840010031360032000F02FF80F20FFF7CEFFB3
:10079400FFF740FE002008BD00200240034A116814
:1007A400034B1B780B441360704700BF8408002080
:1007B40004000020014B1868704700BF8408002023
:1007C40038B50446FFF7F6FF0546B4F1FF3F02D003
:1007D400044B1B781C44FFF7EDFF401BA042FAD3E7
:1007E40038BD00BF04000020074AD36823F4E06347
:1007F4001B041B0C000200F4E060034343F0BF63DE
:1008040043F40033D360704700ED00E000B5194BAA
:10081400DB68C3F30223C3F1070CBCF1040F28BF48
:100824004FF0040C03F1040EBEF1060F18D9033B7C
:100834004FF0FF3E0EFA0CFC21EA0C0199400EFA2F
:1008440003F322EA0303194300280BDB0901C9B2AD
:1008540000F1604000F5614080F800135DF804FB8E
:100864000023E5E700F00F000901C9B2024B195457
:10087400F4E700BF00ED00E014ED00E0002807DB22
:1008840000F01F02400901239340024A42F820303D
:10089400704700BF00E100E00138B0F1807F0BD267
:1008A4004FF0E0235861054AF02182F8231000201C
:1008B400986107221A6170470120704700ED00E03B
:1008C40090F82130022B06D004238363002380F8A0
:1008D4002030012070470268136823F00E03136070
:1008E4000268136823F001031360036CC16B0122D7
:1008F40002FA03F34B6080F82120002380F82030B3
:100904001846704708B590F82130022B03D0042311
:100914008363012008BD0268136823F00E0313608B
:100924000268136823F00103136003684B4A93427F
:100934004ED9783A934224D01432934230D01432B0
:1009440093422FD0143293422FD0143293422FD09B
:10095400143293422FD0143293422FD002F5627294
:1009640093422ED0143293422DD0143293422CD081
:100974001432934202D04FF4803203E04FF4805299
:1009840000E00122364B5A60012380F82130002315
:1009940080F82030436B002B5ED098470020B9E7E5
:1009A4001022EFE74FF48072ECE74FF48052E9E74E
:1009B4004FF48032E6E74FF48012E3E74FF08072A1
:1009C400E0E70122DEE71022DCE74FF48072D9E78A
:1009D400244A934224D01432934225D014329342B1
:1009E40024D01432934224D01432934224D01432AB
:1009F400934224D01432934224D002F5627293427B
:100A040023D01432934222D01432934221D0143290
:100A1400934202D04FF4803203E04FF4805200E05E
:100A24000122114B5A60AFE71022FAE74FF48072AB
:100A3400F7E74FF48052F4E74FF48032F1E74FF4D4
:100A44008012EEE74FF08072EBE70122E9E7102213
:100A5400E7E74FF48072E4E700205BE780000240A0
:100A640000040240080002400000024070B582B059
:100A74000024A446B0E0874DAA4210D007D9864D81
:100A8400AA420CD005F58035AA4208D013E0A5F59A
:100A94008015AA4203D005F57025AA4207D18A68B9
:100AA400002A62D0012A5BD04361082403E0A5F543
:100AB4008015AA42F3D0BEF1FF0F58D80646BEF106
:100AC400FF0F56D84FEA8C0233680F25954023EA6E
:100AD400050304FA02F2134333604B6813F0805F9A
:100AE40078D06E4B9A6942F001029A619B6903F0D7
:100AF40001030193019B4FEA9C02951C684B53F838
:100B040025600CF003039D000F23AB4026EA030687
:100B1400644B984233D003F58063984200F0988088
:100B240003F58063984200F0958003F58063984252
:100B340000F0928003F58063984200F08F8003F503
:100B44008063984219D006231AE0CC68B3E7CC68D6
:100B54000434B0E7CC680834ADE7CC680C34AAE7B9
:100B640003610824A7E70024A5E70424A3E7061DDE
:100B7400A5E7ACF108029200A6E7052300E00023F4
:100B8400AB4033430232464D45F822304B6813F4F0
:100B9400803F65D0444A136843EA0E0313604B68F0
:100BA40013F4003F62D0404A536843EA0E03536093
:100BB4004B6813F4801F5FD03B4A936843EA0E03EB
:100BC40093604B6813F4001F5CD0374AD36843EA40
:100BD4000E03D3600CF1010C0A6832FA0CF357D0FF
:100BE400012303FA0CF302EA030E33EA0202F1D101
:100BF4004A68122A3FF63FAF122A3FF65CAF01A5BE
:100C040055F822F0A30A00084F0B0008590B0008FE
:100C14006B0B0008BB0A0008BB0A0008BB0A0008EB
:100C2400BB0A0008BB0A0008BB0A0008BB0A00088C
:100C3400BB0A0008BB0A0008BB0A0008BB0A00087C
:100C4400BB0A0008BB0A0008530B00085F0B00082E
:100C5400012395E7022393E7032391E704238FE716
:100C6400114A136823EA0E03136098E70E4A536887
:100C740023EA0E0353609BE70B4A936823EA0E03AF
:100C840093609EE7084AD36823EA0E03D360A1E782
:100C940002B070BD000022100000311000100240AC
:100CA40000000140000801400004014082B0084BEC
:100CB4001B68084AA2FB03235B0A00FB03F30193AE
:100CC40000BF019B5A1E0192002BF9D102B070475C
:100CD40000000020D34D6210002800F0F18170B5AF
:100CE40082B00446036813F0010F2CD0994B5B6863
:100CF40003F00C03042B1DD0964B5B6803F00C032C
:100D0400082B12D06368B3F5803F41D0002B55D136
:100D140003F1804303F504331A6822F480321A6025
:100D24001A6822F480221A6037E08A4B5B6813F455
:100D3400803FE7D0874B1B6813F4003F03D0636800
:100D4400002B00F0BF81236813F0020F75D0814B94
:100D54005B6813F00C0F5FD07E4B5B6803F00C03F1
:100D6400082B54D02369002B00F08A807A4B01228F
:100D74001A60FFF71FFD0546764B1B6813F0020F40
:100D840075D1FFF717FD401B0228F5D903209EE11A
:100D9400704A136843F480331360636843B3FFF706
:100DA40009FD05466B4B1B6813F4003FCBD1FFF7DD
:100DB40001FD401B6428F5D9032088E1B3F5A02F79
:100DC40009D0644B1A6822F480321A601A6822F43B
:100DD40080221A60E1E703F18043A3F53C331A68EB
:100DE40042F480221A601A6842F480321A60D4E70E
:100DF400FFF7E0FC0546574B1B6813F4003FA2D0F5
:100E0400FFF7D8FC401B6428F5D903205FE1514B60
:100E14005B6813F4803FA5D14E4B1B6813F0020F9F
:100E240003D02369012B40F04F814A4A136823F011
:100E3400F803616943EAC1031360236813F0080FE0
:100E440033D0A369002B5CD0434B0122C3F8802428
:100E5400FFF7B0FC05463F4B5B6A13F0020F21D14C
:100E6400FFF7A8FC401B0228F5D903202FE1394ADB
:100E7400136823F0F803616943EAC1031360DCE7F4
:100E8400354B00221A60FFF795FC0546314B1B6871
:100E940013F0020FD1D0FFF78DFC401B0228F5D9C7
:100EA400032014E10120FFF701FF236813F0040F6E
:100EB40000F09680274BDB6913F0805F34D1254B1B
:100EC400DA6942F08052DA61DB6903F080530193FE
:100ED400019B0125214B1B6813F4807F26D0E36816
:100EE400012B3DD0002B53D103F1804303F5043390
:100EF4001A6A22F001021A621A6A22F004021A62C1
:100F040033E0154B0022C3F88024FFF753FC054659
:100F1400104B5B6A13F0020FC7D0FFF74BFC401B6A
:100F24000228F5D90320D2E00025D3E70B4A136841
:100F340043F480731360FFF73DFC0646074B1B68C0
:100F440013F4807FCBD1FFF735FC801B6428F5D9DF
:100F54000320BCE000100240000042420070004048
:100F64005F4A136A43F001031362E36833B3FFF784
:100F740021FC06465A4B1B6A13F0020F2FD1FFF7D0
:100F840019FC801B41F288339842F3D903209EE078
:100F9400052B09D0524B1A6A22F001021A621A6A0E
:100FA40022F004021A62E0E74D4B1A6A42F004028E
:100FB4001A621A6A42F001021A62D6E7FFF7FAFBD4
:100FC4000646474B1B6A13F0020F08D0FFF7F2FBEB
:100FD400801B41F288339842F3D9032077E0E5B9C6
:100FE400E369002B72D03E4A526802F00C02082AD0
:100FF40056D0022B17D03B4B00221A66FFF7DAFBC0
:101004000446374B1B6813F0007F47D0FFF7D2FB31
:10101400001B0228F5D9032059E0314AD36923F093
:101024008053D361DCE72F4B00221A66FFF7C2FB23
:1010340005462B4B1B6813F0007F06D0FFF7BAFB65
:10104400401B0228F5D9032041E0236AB3F5803F11
:101054001AD023494B6823F47413226A606A02434A
:1010640013434B601F4B01221A66FFF7A3FB044690
:101074001B4B1B6813F0007F0ED1FFF79BFB001B7B
:101084000228F5D9032022E0154A536823F40033DB
:10109400A1680B435360DCE7002018E0002016E051
:1010A400012B16D00E4B5B6803F48031226A914207
:1010B40011D103F47013626A93420ED1002006E04A
:1010C40001207047012002E0012000E0002002B06E
:1010D40070BD0120FBE70120F9E70120F7E700BF1D
:1010E400001002400000424286B0174B0FCB0DF1B6
:1010F400180C0CE90F0040F20123ADF80430134B37
:101104005B6803F00C02082A02D0114806B070474D
:10111400C3F3834218326A4412F8100C13F4803F6C
:101124000DD00A4B5B68C3F3404318336B4413F888
:10113400143C074A02FB00F0B0FBF3F0E6E7054B72
:1011440003FB00F0E2E700BF644C0008001002401B
:1011540000127A0000093D00002800F0A08070B55C
:101164000D460446524B1B6803F007038B420BD217
:101174004F4A136823F007030B431360136803F00B
:1011840007038B4240F08D80236813F0020F17D0C1
:1011940013F0040F04D0474A536843F4E0635360E8
:1011A400236813F0080F04D0424A536843F4605391
:1011B4005360404A536823F0F003A1680B43536023
:1011C400236813F0010F31D06368012B20D0022B68
:1011D40025D0384A126812F0020F64D035494A68A3
:1011E40022F0030213434B60FFF7E4FA0646314B47
:1011F4005B6803F00C036268B3EB820F16D0FFF751
:10120400D9FA801B41F288339842F0D9032045E093
:10121400284A126812F4003FE0D101203EE0254A3A
:10122400126812F0007FD9D1012037E0204B1B68EF
:1012340003F00703AB420AD91D4A136823F00703DE
:101244002B431360136803F00703AB422DD12368CB
:1012540013F0040F06D0174A536823F4E063E168DF
:101264000B435360236813F0080F07D0114A5368E7
:1012740023F46053216943EAC1035360FFF734FF49
:101284000C4B5B68C3F303130B4AD35CD8400B4B82
:1012940018600B4B1868FFF749FA002070BD012055
:1012A40070470120FAE70120F8E70120F6E700BFC4
:1012B40000200240001002404C4C000800000020B6
:1012C40008000020014B1868704700BF0000002090
:1012D40008B5FFF7F7FF044B5B68C3F30223034A27
:1012E400D35CD84008BD00BF001002405C4C00082D
:1012F40008B5FFF7E7FF044B5B68C3F3C223034A57
:10130400D35CD84008BD00BF001002405C4C00080C
:101314000268D36823F49073D3600268536923F09E
:1013240001035361036B012B05D0202380F83E3069
:101334000023036370470268D36823F01003D3606B
:10134400F3E790F83D30DBB2212B01D00220704747
:101354008368B3F5805F17D0036A5A1C02621A7857
:1013640003685A60C38C9BB2013B9BB2C3844BB9E4
:101374000268D36823F08003D3600268D36843F023
:101384004003D360002070470369002BE4D1036A53
:101394001B880268C3F308035360036A02330362C1
:1013A400E0E7000010B504460268136923F44053D3
:1013B400C1680B43136183680269134342691A438A
:1013C4000168CB6823F4B05323F00C031343CB60C0
:1013D4000268536923F4407381690B4353610268C3
:1013E400134B9A4220D0FFF773FF024602EB8202AE
:1013F40002EB820263689B00B2FBF3F20D48A0FB90
:1014040002314909642303FB11231B013233A0FB7E
:1014140003235B0903F0F00202EB011203F00F0354
:10142400216813448B6010BDFFF762FF0246DDE7BD
:10143400003801401F85EB512DE9F84305460F465E
:1014440016469946DDF820802C68246837EA0403A0
:101454000CBF4FF0010C4FF0000CB4451FD1B8F194
:10146400FF3FF1D0B8F1000F05D0FFF7A3F9A0EBCF
:1014740009004045E8D92A68D36823F4D073D360BF
:101484002A68536923F001035361202385F83D3012
:1014940085F83E30002385F83C30032000E000202E
:1014A400BDE8F88358B310B5044690F83D300BB34B
:1014B400242384F83D302268D36823F40053D36096
:1014C4002046FFF76FFF2268136923F490431361EA
:1014D4002268536923F02A0353612268D36843F4D2
:1014E4000053D36000202064202384F83D3084F826
:1014F4003E3010BD80F83C30FEF7AEFFD8E7012047
:1015040070472DE9F04182B01E4690F83D30DBB2C1
:10151400202B54D104460D469046002953D0002A6E
:1015240053D090F83C30012B51D0012380F83C304B
:1015340000230364212380F83D30FFF73BF907467D
:10154400A4F82480A4F82680A368B3F5805F05D0AE
:101554004FF00008002384F83C3012E0236913B1F3
:101564004FF00008F6E7A8460025F3E738F8023BF9
:101574002268C3F308035360E28C92B2013A92B238
:10158400E284E38C9BB273B100963B460022802137
:101594002046FFF751FFE0B9002DE7D015F8012BE5
:1015A40023685A60E8E700963B4600224021204623
:1015B400FFF742FF78B9202384F83D3000E0022091
:1015C40002B0BDE8F0810120FAE70120F8E702202B
:1015D400F6E70320F4E70320F2E7704708B5016853
:1015E400CA6822F04002CA60202280F83D20FFF73A
:1015F400F4FF002008BD704708B5406A0023C38586
:10160400C384FFF7F8FF08BD7047000010B5044617
:101614000268D36823F49073D3600268536923F09B
:1016240001035361036B012B14D023685A6912F030
:10163400400F1FD05A6922F040025A61A36B7BB15C
:10164400124A5A63A06BFFF75DF9E0B1A06B436BDC
:10165400984718E00268D36823F01003D360E4E7E6
:101664000023E385202284F83E2023632046FFF7ED
:10167400CBFF08E00023E385202284F83E20236387
:101684002046FFF7C1FF002010BD00BF95160008DB
:1016940008B5406A0023C385202280F83E200363F6
:1016A400FFF7B2FF08BD704790F83E30DBB2222B43
:1016B40060D18368B3F5805F46D0826AB3F5805FFA
:1016C40004D0002B4DD10369002B4AD103685B6819
:1016D4001370836A01338362C38D9BB2013B9BB257
:1016E400C385002B48D100B583B00268D36823F0CA
:1016F4002003D3600268D36823F48073D360026844
:10170400536923F001035361202380F83E30036BB7
:10171400012B2CD1002303630268D36823F0100348
:10172400D36003681A6812F0100F06D000220192E9
:101734001A6801925B680193019B818DFFF7B3FFE7
:10174400002003B05DF804FB0269002AB5D1826A67
:1017540003685B68C3F308031380836A02338362FC
:10176400BAE703685B6803F07F031370B1E7FEF721
:10177400B5FFE5E7022070470020704730B583B01D
:10178400044602681368D068516913F00F0505D147
:1017940013F0200F02D010F0200F19D12DB111F049
:1017A400010119D110F4907F16D1216B012975D054
:1017B40013F0800F03D010F0800F40F0D78013F0A7
:1017C400400F03D010F0400F40F0D48003B030BD80
:1017D4002046FFF769FFF9E713F0010F06D010F474
:1017E400807F03D0226C42F00102226413F0040FC4
:1017F40004D019B1226C42F00202226413F0020FE9
:1018040004D019B1226C42F00402226413F0080FD0
:1018140007D010F0200F00D119B1226C42F0080259
:101824002264226C002AD1D013F0200F02D010F0D1
:10183400200F21D123685B6903F04003226C12F06E
:10184400080F00D123B32046FFF762FD23685A69CD
:1018540012F0400F18D05A6922F040025A61A36B6B
:1018640073B1464A5A63A06BFFF74CF80028ADD019
:10187400A06B436B9847A9E72046FFF715FFD9E70C
:101884002046FFF7B8FEA1E72046FFF7B4FE9DE728
:101894002046FFF7B0FE0023236497E713F0100FF0
:1018A40086D010F0100F83D00023019313680193A6
:1018B40053680193019B536913F0400F32D0A16B1D
:1018C4000B685B689BB2002B80D0A08D98427FF69A
:1018D4007DAFE3858B69202B08D1A18DE38D9BB26D
:1018E400C91A89B22046FFF7DEFE6FE7D36823F4F6
:1018F4008073D3602268536923F001035361226823
:10190400536923F040035361202384F83E300023BD
:1019140023632268D36823F01003D360A06BFEF71F
:10192400CFFFDAE7A18DE38D9BB2C91A89B2E38DAB
:101934009BB2002B3FF44AAF00293FF447AFD36872
:1019440023F49073D3602268536923F00103536135
:10195400202384F83E30002323632268D36823F0D5
:101964001003D3602046FFF79EFE2FE72046FFF7C3
:10197400E8FC2BE72046FFF731FE27E7FD150008BA
:10198400034681628285C28500201864222283F87E
:101994003E2083F83C001968CA6842F48072CA6029
:1019A40019684A6942F001024A611A68D36843F02F
:1019B4002003D360704708B590F83E30DBB2202B8B
:1019C4000DD171B17AB190F83C30012B0DD00123C7
:1019D40080F83C3000230363FFF7D2FF00E00220CD
:1019E40008BD0120FCE70120FAE70220F8E7000027
:1019F400014B1860704700BF080900200EB430B5D1
:101A040082B005AB33F8042B0193431EDBB21F2BCA
:101A140037D81E4B55215970197000EB4001053120
:101A240099700321D97018715A71120A9A714FF082
:101A3400000E07231AE001990A1D019203F1010C1B
:101A44005FFA8CFC0D78114CE55401F10802019207
:101A54004A68991CC9B204F80C200333DBB2C2F300
:101A6400072262540EF101025FFA82FE8645E2D338
:101A740006498A784FF0FF33023205480068FFF7C1
:101A840040FD02B0BDE8304003B070478808002034
:101A9400080900202DE9F04FA3B040F20D33219343
:101AA400122520954FF4FF731F934FF01108CDF8C2
:101AB40078804FF4F8711D9110271C9740F2DD23B4
:101AC4001B9309231A9340F2AF2319930822189207
:101AD4004FF4F77117910721169140F21B131593D8
:101AE4000F20149040F2012313930E2412944FF408
:101AF400DA7611960D26109640F217130F930C24E4
:101B04000E944FF41E730D934FF00B0ECDF830E08E
:101B14004FF4FA79CDF82C904FF00A09CDF82890BB
:101B24004FF40C7309934FF0060ACDF820A040F24D
:101B3400EF1BCDF81CB04FF0050BCDF818B04FF4E7
:101B4400F47ACDF814A04FF0040ACDF810A04FF4A5
:101B5400AA7303934FF0030BCDF808B040F27A2335
:101B64000193022600964FF4F07301222146284681
:101B7400FFF744FF2046FEF723FE4FF448732193FA
:101B8400209540F20329CDF87C90CDF8788040F27E
:101B9400E71CCDF874C01C974FF42D7ECDF86CE093
:101BA40009231A9340F2822CCDF864C008221892BB
:101BB40040F2FD1ECDF85CE00721169140F20B13B4
:101BC40015930F20149040F2FB1CCDF84CC04FF03D
:101BD4000E0CCDF848C04FF4D67011904FF00D0C98
:101BE400CDF840C0FC230F930E9440F24D230D9387
:101BF4004FF00B0ECDF830E040F2EB1ECDF82CE0A8
:101C04000A230A9340F22F2009900622089240F2F8
:101C1400EF1007900521069140F2F71ECDF814E06D
:101C2400CDF810A04FF48B730393CDF808B040F2B5
:101C34004A23019300964FF4EC730122214628466F
:101C4400FFF7DCFE2046FEF7BBFD40F23133219363
:101C5400209540F2062ECDF87CE0CDF878804FF444
:101C6400EF711D911C9740F266201B9009231A9373
:101C740040F2362CCDF864C00822189240F20D23AD
:101C8400179307211691F72315930F2014904FF4FF
:101C9400FA7013904FF00E0ECDF848E040F2A51301
:101CA40011934FF00D0CCDF840C0BD230F930E944B
:101CB400CDF834904FF00B09CDF830904FF4F17318
:101CC4000B934FF00A09CDF8289040F22E29CDF855
:101CD40024900622089240F2EF1307934FF005096F
:101CE400CDF8189040F207230593CDF810A0A9234E
:101CF4000393CDF808B040F2F919CDF8049000969A
:101D040040F2D113012221462846FFF777FE2046F0
:101D1400FEF756FD40F28233219320954FF414735D
:101D24001F93CDF8788040F2E719CDF874901C9792
:101D34004FF41A79CDF86C9009231A9340F2362C9B
:101D4400CDF864C00822189240F2FD1217920721C0
:101D5400169140F2591315934FF00F0CCDF850C063
:101D640040F2492313934FF00E0ECDF848E04FF4A0
:101D7400D67211920D211091B0230F930E944FF44B
:101D840000730D930B200C9040F2EB120B924FF06A
:101D94000A0ECDF828E04FF420720992062008902C
:101DA40040F23A2207924FF0050CCDF818C040F2E9
:101DB400F7120592CDF810A0BF220392CDF808B017
:101DC400019300964FF4EC73012221462846FFF755
:101DD40015FE2046FEF7F4FC40F2A533219320952E
:101DE40040F27B231F93CDF878804FF4F8731D9352
:101DF4001C97CDF86C9009231A9340F2372319935A
:101E0400082218924FF4F7731793072016904FF493
:101E1400C87315934FF00F0CCDF850C04FF41F73D7
:101E240013934FF00E0ECDF848E04FF4DA7311938C
:101E34000D211091A2230F930E944FF4FE730D9372
:101E44000B220C924FF4FA700B904FF00A0ECDF85F
:101E540028E040F2AB2309930620089040F2662064
:101E640007904FF0050CCDF818C04FF4F4710591AC
:101E7400CDF810A0D1230393CDF808B040F2062E7C
:101E8400CDF804E000964FF4F07301222146284671
:101E9400FFF7B4FD2046FEF793FC40F25D33219337
:101EA40020954FF412731F93CDF8788040F2F71207
:101EB4001D921C97CDF86C9009231A9340F2362991
:101EC400CDF86490082118914FF4EF79CDF85C9027
:101ED4000720169040F2751315934FF00F0CCDF8B0
:101EE40050C040F25229CDF84C904FF00E0ECDF870
:101EF40048E04FF4DE79CDF844900D2310939123FC
:101F04000F930E944FF4FB730D930B220C9240F23B
:101F1400FB1CCDF82CC04FF00A0ECDF828E04FF48E
:101F2400207CCDF824C00620089040F23A2CCDF84D
:101F34001CC04FF0050CCDF818C04FF4EC7CCDF864
:101F440014C0CDF810A0E1230393CDF808B040F2FB
:101F54000A23019300964FF4F47301222146284684
:101F6400FFF74CFD2046FEF72BFC40F2DE232193C5
:101F7400209540F2F1131F93CDF878804FF4FF724F
:101F84001D921C9740F266201B9009221A9240F27F
:101F940036211991082118914FF4E77217920720FE
:101FA400169040F2371215924FF00F0CCDF850C036
:101FB4004FF4027213924FF00E0ECDF848E040F247
:101FC400C51211920D2210927E220F920E944FF49C
:101FD400F7710D910B210C9140F202220B924FF0FC
:101FE4000A0ECDF828E040F22E210991062008902F
:101FF40040F2EF1107914FF0050CCDF818C04FF4E3
:10200400E4720592CDF810A0F0220392CDF808B046
:102014004FF4037201920096012221462846FFF7ED
:10202400EDFC2046FEF7CCFB40F2F72321932095EC
:1020340040F2F9131F93CDF8788040F2F718CDF8E9
:1020440074801C974FF42D731B9309221A9240F24B
:1020540082231993082118914FF4EF78CDF85C800E
:10206400072016904FF4957315934FF00F0CCDF88D
:1020740050C040F2062713974FF00E0ECDF848E0FB
:10208400CDF844900D221092DF230F930E944FF459
:1020940011730D930B210C9140F2FB120B924FF034
:1020A4000A0ECDF828E040F22F220992062008906B
:1020B40040F2EF1107914FF0050CCDF818C04FF422
:1020C400EC7CCDF814C0CDF810A040F23513039386
:1020D400CDF808B040F25229CDF8049000964FF4A0
:1020E400F473012221462846FFF788FC2046FEF7B8
:1020F40067FB23B0BDE8F08F2DE9F04FA3B040F2A9
:102104000D332193122520954FF4FF731F934FF045
:102114001108CDF878804FF4F8721D9210231C93A7
:1021240040F2A7231B9309221A924FF41D731993AB
:10213400082118914FF4F77017900720169040F279
:102144001B1315930F24149440F2012313930E26AA
:1021540012964FF4DA7711970D2710974FF0E10993
:10216400CDF83C900C240E9440F23B230D934FF099
:102174000B09CDF830904FF4FA7ACDF82CA04FF03B
:102184000A0ACDF828A04FF40C7309934FF0060BFC
:10219400CDF820B040F2EF1607964FF0050ACDF8BF
:1021A40018A04FF4F47BCDF814B04FF0040BCDF825
:1021B40010B040F2171303930327029740F2412310
:1021C4000193022600964FF4F0730122214628461B
:1021D400FFF714FC2046FEF7F3FA4FF448732193FB
:1021E400209540F20329CDF87C90CDF8788040F218
:1021F400E71ECDF874E010231C9340F29F2CCDF819
:102204006CC009221A924FF41B7ECDF864E00821B9
:10221400189140F2FD1017900720169040F20B130E
:1022240015934FF00F0CCDF850C040F2FB1CCDF8C5
:102234004CC04FF00E0CCDF848C04FF4D67ECDF80C
:1022440044E04FF00D0ECDF840E0E6230F930E94DA
:1022540040F237230D934FF00B0ECDF830E040F2EF
:10226400EB1CCDF82CC00A230A9340F22F2ECDF894
:1022740024E00622089240F2EF110791CDF818A04D
:1022840040F2F71CCDF814C0CDF810B0FE23039330
:10229400029740F23523019300964FF4EC73012228
:1022A40021462846FFF7AAFB2046FEF789FA40F2AA
:1022B40031332193209540F2062ECDF87CE0CDF801
:1022C40078804FF4EF731D9310231C9340F2662023
:1022D4001B9009221A9240F2362ECDF864E00821B0
:1022E400189140F20D23179307201690F7231593A6
:1022F4004FF00F0ECDF850E04FF4FA7013904FF0FA
:102304000E0CCDF848C040F2A51311930D20109087
:10231400BD230F930E94CDF834904FF00B09CDF8F4
:1023240030904FF4F1730B934FF00A09CDF82890D5
:1023340040F22E29CDF824900622089240F2EF199B
:10234400CDF81C90CDF818A040F207230593CDF8E2
:1023540010B0A9230393029740F2F919CDF8049021
:10236400009640F2D113012221462846FFF746FB8E
:102374002046FEF725FA40F266332193209540F279
:1023840039231F93CDF8788040F2E7111D91102373
:102394001C934FF41A79CDF86C9009221A9240F2EA
:1023A400362319930821189140F2FD1117914FF02B
:1023B400070CCDF858C040F2431315934FF00F0E9D
:1023C400CDF850E040F2332313930E2112914FF4D1
:1023D400D67111910D201090B0230F930E944FF4E9
:1023E40000730D934FF00B0ECDF830E040F2EB117B
:1023F4000B914FF00A0CCDF828C040F269210991E5
:10240400062008904FF409710791CDF818A040F206
:10241400F7110591CDF810B0BF22039202970193F2
:1024240000964FF4EC73012221462846FFF7E6FAA2
:102434002046FEF7C5F940F25F332193209540F220
:102444003E231F93CDF878804FF4F8721D92102329
:102454001C93CDF86C9009221A9240F237221992FB
:10246400082018904FF4F77217924FF0070CCDF82C
:1024740058C04FF4AD7315934FF00F0ECDF850E0E4
:102484004FF4107313930E2112914FF4DA721192D8
:102494000D221092A2230F930E944FF4FE730D930A
:1024A4004FF00B0ECDF830E04FF4FA7CCDF82CC091
:1024B4004FF00A0CCDF828C040F27223099306208D
:1024C40008904FF40B730793CDF818A04FF4F472EF
:1024D4000592CDF810B0D1230393029740F2062E53
:1024E400CDF804E000964FF4F0730122214628460B
:1024F400FFF784FA2046FEF763F940F24133219353
:10250400209540F231231F93CDF8788040F2F711E3
:102514001D9110231C93CDF86C9009211A9140F25F
:1025240036231993082018904FF4EF79CDF85C9076
:102534004FF0070CCDF858C04FF4B07315934FF01B
:102544000F0ECDF850E04FF40F7313934FF00E09B4
:10255400CDF848904FF4DE79CDF844900D231093D4
:1025640091230F930E944FF4FB730D934FF00B0EC6
:10257400CDF830E040F2FB130B934FF00A0CCDF88A
:1025840028C040F269220992062008904FF409728B
:102594000792CDF818A04FF4EC720592CDF810B064
:1025A4004FF0E10CCDF80CC0029740F20A230193DE
:1025B40000964FF4F473012221462846FFF71EFAD1
:1025C4002046FEF7FDF840F2DE232193209540F2E9
:1025D400F1131F93CDF878804FF4FF711D911022F1
:1025E4001C9240F266211B9109211A9140F2362275
:1025F4001992082018904FF4E77217924FF0070CC5
:10260400CDF858C040F2371215924FF00F0ECDF8A6
:1026140050E04FF4027213920E22129240F2C5124D
:1026240011920D2110917E220F920E944FF4F770A7
:102634000D904FF00B0ECDF830E040F202220B92D9
:102644004FF00A0CCDF828C040F22E200990062045
:10265400089040F2EF120792CDF818A04FF4E472FC
:102664000592CDF810B0F022039202974FF4037252
:1026740001920096012221462846FFF7BFF9204621
:10268400FEF79EF840F2F7232193209540F2F913C8
:102694001F93CDF8788040F2F718CDF8748010229B
:1026A4001C9240F29F28CDF86C8009211A914FF4B6
:1026B4001B78CDF86480082018904FF4EF78CDF89B
:1026C4005C804FF0070CCDF858C04FF49573159308
:1026D4004FF00F0ECDF850E040F20628CDF84C80B4
:1026E4000E221292CDF844900D211091CA230F931B
:1026F4000E9440F22E210D914FF00B0ECDF830E0E8
:1027040040F2FB130B934FF00A0CCDF828C040F2B3
:102714002F2ECDF824E00620089040F2EF12079205
:10272400CDF818A04FF4EC720592CDF810B04FF428
:102734008F730393029740F23D23019300964FF465
:10274400F473012221462846FFF758F92046FEF784
:1027540037F823B0BDE8F08F2DE9F04FA3B040F275
:10276400E7232193122520954FF4ED731F9311262F
:102774001E9640F20B231D934FF01008CDF8708085
:1027840040F227221B924FF00909CDF8689040F2DD
:10279400E91319934FF0080BCDF860B04FF4F773B9
:1027A40017934FF0070ACDF858A0FE2315930F2373
:1027B400149340F2DD1713970E2312934FF4CC7148
:1027C40011910D221092BD240F940C210E9140F210
:1027D40022240D940B240C940B970A270A9740F299
:1027E400652ECDF824E0062208924FF40D74079468
:1027F400052206924FF4F473059304210491EF2308
:1028040003930327029740F229230193022400949F
:102814004FF4FB73012221462846FFF7EFF82046C8
:10282400FDF7CEFF40F2DA20219020954FF4E77CAB
:10283400CDF87CC01E964FF402701D90CDF87080C8
:102844004FF40A731B93CDF8689040F2EB1CCDF85B
:1028540064C0CDF860B040F2E71ECDF85CE0CDF87E
:1028640058A04FF4847315930F20149040F2E91E7E
:10287400CDF84CE00E23129340F2971CCDF844C0DF
:102884004FF00D0CCDF840C0C4220F924FF00C0E47
:10289400CDF838E04FF40B7ECDF834E00B200C90EB
:1028A4004FF4F0730B934FF00A0CCDF828C04FF49B
:1028B400197309930622089240F2332307930522E1
:1028C40006924FF4F673059304210491E7230393CE
:1028D400029740F21F230193009440F2F91301225E
:1028E40021462846FFF78AF82046FDF769FF40F2A3
:1028F400CF212191209540F2C3131F931E9640F2DD
:1029040005231D93CDF870804FF40B7ECDF86CE059
:10291400CDF8689040F2EF131993CDF860B04FF4FE
:10292400F1731793CDF858A04FF4897315930F20C2
:1029340014904FF4FB7313930E23129340F2971CDD
:10294400CDF844C04FF00D0CCDF840C0CA210F9112
:102954004FF00C0ECDF838E04FF40D710D910B20B3
:102964000C9040F2E3130B934FF00A0CCDF828C0FF
:1029740040F262230993062208924FF40C730793E2
:10298400052206924FF4F871059104210491DD2388
:10299400039302974FF4057CCDF804C0009440F2F1
:1029A400FB13012221462846FFF728F82046FDF7AD
:1029B40007FF40F2C5212191209540F2BB101F90E2
:1029C4001E964FF400711D91CDF8708040F23120B5
:1029D4001B90CDF8689040F2F51ECDF864E0CDF878
:1029E40060B040F2DD111791CDF858A04FF48E730A
:1029F40015930F20149040F2032CCDF84CC00E23F5
:102A0400129340F2971311934FF00D0CCDF840C080
:102A14004FF0CE0ECDF83CE04FF00C0ECDF838E080
:102A240040F23B220D920B200C9040F2E7130B93E3
:102A34004FF00A0CCDF828C040F25F21099106221C
:102A440008924FF40B7ECDF81CE0052206924FF459
:102A5400FA730593042104914FF0D20CCDF80CC005
:102A640002974FF40270019000944FF4FE73012218
:102A740021462846FEF7C2FF2046FDF7A1FE40F29C
:102A8400BE2ECDF884E020954FF4DA711F911E9686
:102A940040F2FB1ECDF874E0CDF8708040F239238B
:102AA4001B93CDF8689040F2FD131993CDF860B0F4
:102AB4004FF4EC711791CDF858A04FF4937315931C
:102AC4000F2014904FF4047313930E2312934FF4B6
:102AD400CC7CCDF844C04FF00D0CCDF840C04FF085
:102AE400D20CCDF83CC04FF00C0ECDF838E04FF4CA
:102AF400107CCDF834C00B200C9040F2EB1CCDF8C8
:102B04002CC04FF00A0CCDF828C040F25A23099388
:102B14000622089240F225230793052206924FF4D9
:102B2400FC72059204210491C723039302974FF486
:102B3400FE7CCDF804C00094634601222146284659
:102B4400FEF75CFF2046FDF73BFE40F2B9212191E0
:102B540020954FF4D87ECDF87CE01E964FF4FB739D
:102B64001D93CDF8708040F241231B93CDF86890FB
:102B740040F207231993CDF860B040F2D5131793B0
:102B8400CDF858A04FF4977315930F2014904FF479
:102B9400077CCDF84CC00E2312934FF4CD731193E0
:102BA4004FF00D0CCDF840C0D4210F914FF00C0E16
:102BB400CDF838E040F243210D910B200C9040F207
:102BC400EF100B904FF00A0CCDF828C04FF415739A
:102BD40009930622089240F21D23079305220692C8
:102BE40040F2FB1ECDF814E004210491BC230393AE
:102BF4000297019000944FF4FE7301222146284667
:102C0400FEF7FCFE2046FDF7DBFD4FF42E73219307
:102C1400209540F2AF1CCDF87CC01E964FF4F8709E
:102C24001D90CDF8708040F24B231B93CDF8689033
:102C340040F213231993CDF860B04FF4E970179064
:102C4400CDF858A04FF49B7315930F20149040F2C5
:102C5400272213920E23129340F29D1311934FF0E7
:102C64000D0CCDF840C0D4210F914FF00C0ECDF8CF
:102C740038E04FF411700D900B200C904FF4FA7360
:102C84000B934FF00A0CCDF828C040F24D23099362
:102C9400062208924FF4057CCDF81CC0052206924A
:102CA4004FF4FF73059304210491B0230393029717
:102CB4004FF4F2710191009440F2FB13012221467A
:102CC4002846FEF79BFE2046FDF77AFD40F2B92226
:102CD400219220954FF4D8721F921E9640F2E91E5D
:102CE400CDF874E0CDF8708040F255231B93CDF8F5
:102CF400689040F21F221992CDF860B040F2D111D1
:102D04001791CDF858A040F23D1315930F2014905D
:102D140040F2312213920E2312934FF4D073119385
:102D24004FF00D0CCDF840C04FF0D40ECDF83CE080
:102D34004FF00C0ECDF838E040F243200D900B20FC
:102D44000C904FF4FC720B924FF00A0CCDF828C093
:102D54004FF4117ECDF824E00622089240F20923B4
:102D640007930522069240F201230593042104915E
:102D7400A6230393029740F2D913019300944FF4CE
:102D8400FC73012221462846FEF738FE2046FDF753
:102D940017FD40F2BE20219020954FF4DA701F9069
:102DA4001E964FF4F2711D91CDF8708040F25F22AF
:102DB4001B92CDF868904FF40B7ECDF864E0CDF80B
:102DC40060B040F2D1111791CDF858A040F24313EE
:102DD40015930F20149040F2392013900E23129370
:102DE40040F2A31311934FF00D0CCDF840C0D22341
:102DF4000F934FF00C0ECDF838E04FF410730D9391
:102E04000B200C904FF4FE700B904FF00A0CCDF891
:102E140028C040F23B220992062208924FF4FF7325
:102E240007930522069240F2032CCDF814C0042126
:102E340004919C230393029740F2CF1301930094CF
:102E440040F2F513012221462846FEF7D7FD20461D
:102E5400FDF7B6FC40F2C52CCDF884C0209540F2B5
:102E6400BB1CCDF87CC01E9640F2DF131D93CDF839
:102E7400708040F269231B93CDF868904FF40E7371
:102E84001993CDF860B040F2D1111791CDF858A044
:102E94004FF4A47315930F2014904FF410731393ED
:102EA4000E23129340F2A71311934FF00D0CCDF89B
:102EB40040C04FF0CE0CCDF83CC04FF00C0ECDF816
:102EC40038E040F23B220D920B200C904FF400713D
:102ED4000B914FF00A0CCDF828C040F23122099230
:102EE4000622089240F2F1130793052206924FF44A
:102EF400017105910421049194230393029740F2F4
:102F0400C713019300944FF4F87301222146284615
:102F1400FEF774FD2046FDF753FC40F2CF222192C8
:102F2400209540F2C3121F921E964FF4ED701D902F
:102F3400CDF8708040F273231B93CDF8689040F273
:102F440045231993CDF860B04FF4E97CCDF85CC00B
:102F5400CDF858A040F24B1215920F201490139301
:102F64000E23129340F2AB1311934FF00D0CCDF8D6
:102F740040C0CA230F934FF00C0ECDF838E04FF445
:102F84000D7ECDF834E00B200C904FF401710B91C1
:102F94004FF00A0CCDF828C040F2262309930622EC
:102FA400089240F2E5130793052206920591042145
:102FB40004918E230393029740F2C113019300946A
:102FC40040F2EB13012221462846FEF717FD204666
:102FD400FDF7F6FB40F2DA2ECDF884E020954FF4AD
:102FE400E77ECDF87CE01E9640F2D71ECDF874E063
:102FF400CDF8708040F27B231B93CDF8689040F2AB
:1030040051231993CDF860B04FF4EA7CCDF85CC03D
:10301400CDF858A040F24D1315930F2014904FF49F
:10302400127313930E23129340F2AF1011904FF0CA
:103034000D0CCDF840C0C4220F924FF00C0ECDF809
:1030440038E04FF40B7ECDF834E00B200C9040F2C6
:10305400072ECDF82CE04FF00A0CCDF828C04FF421
:10306400077ECDF824E0062208924FF4EC7ECDF8DA
:103074001CE0052206924FF401710591042104918C
:103084008A230393029740F2BD13019300944FF4F3
:10309400F373012221462846FEF7B0FC2046FDF7D3
:1030A4008FFB40F2E723219320954FF4ED721F929A
:1030B4001E964FF4EA7CCDF874C0CDF8708040F2CF
:1030C40083231B93CDF8689040F25B231993CDF8CA
:1030D40060B040F2D71ECDF85CE0CDF858A04FF4B4
:1030E400A77315930F20149040F2492313930E23D2
:1030F40012934FF4DA7111914FF00D0CCDF840C0DA
:10310400BD210F914FF00C0ECDF838E040F2222192
:103114000D910B200C9040F20A230B934FF00A0CF4
:10312400CDF828C040F211230993062308934FF4E5
:10313400E67307930522069240F2032CCDF814C0DF
:10314400042104918823039302974FF4DE730193BF
:1031540000944FF4F073012221462846FEF74EFCFA
:103164002046FDF72DFB4FF43D73219320954FF43A
:10317400F3731F931E9640F2D3131D93CDF8708002
:1031840040F28A231B93CDF8689040F26527199783
:10319400CDF860B04FF4ED761796CDF858A040F214
:1031A4004D1615960F2614964FF4127313930E238F
:1031B40012934FF4DC7711974FF00D09CDF840903E
:1031C400B5230F934FF00C0ACDF838A040F2172323
:1031D4000D930B270C9740F20D2BCDF82CB04FF02C
:1031E4000A0BCDF828B040F2072509954FF00608E0
:1031F400CDF8208040F2C1140794052206924FF4C2
:1032040000740594042104918A23039303240294F3
:1032140040F2BD1301930224009440F2D913012219
:1032240021461220FEF7EAFB2046FDF7C9FA40F2D8
:10323400013321931225209540F2F3101F9011239E
:103244001E9340F2D3121D924FF0100ECDF870E091
:103254004FF4247CCDF86CC009221A9240F26D2CF4
:10326400CDF864C00821189140F2DD1017900720B2
:10327400169040F24B131593149640F2452CCDF85A
:103284004CC00E2312934FF4DE731193CDF840908B
:10329400AC230F93CDF838A040F20B230D930C9779
:1032A40040F20F230B93CDF828B04FF4FF7309932A
:1032B400CDF8208040F2B71CCDF81CC00522069240
:1032C40040F2FD130593042104918E2203924FF0E2
:1032D400030CCDF808C040F2C112019200944FF4DF
:1032E400EA73012221462846FEF788FB2046FDF7B3
:1032F40067FA40F20E33219320954FF400711F9129
:1033040011231E9340F2D3121D924FF0100ECDF8EC
:1033140070E040F295221B9209221A924FF41D7E0E
:10332400CDF864E00821189140F2E11117910720CB
:1033340016904FF4A473159314964FF410731393CB
:103344000E2312934FF4E0731193CDF84090A2230F
:103354000F93CDF838A04FF4FF730D930C974FF4EF
:1033640004710B91CDF828B04FF4FB730993CDF899
:10337400208040F2AF1CCDF81CC0052206924FF409
:10338400FC72059204210491942303934FF0030CDF
:10339400CDF808C040F2C7120192009440F2CF1356
:1033A400012221462846FEF729FB2046FDF708FAAC
:1033B40040F21A332193209540F20D231F931123D9
:1033C4001E934FF4EA731D934FF0100ECDF870E086
:1033D4004FF426731B9309221A924FF41E73199308
:1033E4000821189140F2E51317930720169040F234
:1033F40043131593149640F2392313930E23129317
:103404004FF4E2701190CDF8409098230F93CDF8CB
:1034140038A040F2F1120D920C974FF404700B9007
:10342400CDF828B00992CDF8208040F2A910079079
:103434000522069240F2F3100590042104919C2386
:1034440003934FF0030CCDF808C040F2CF1301935F
:1034540000944FF4E573012221462846FEF7CEFA84
:103464002046FDF7ADF940F226332193209540F232
:1034740019231F9311231E934FF4EB731D934FF0E5
:10348400100ECDF870E040F29A2CCDF86CC00922F1
:103494001A9240F27B2319930821189140F2E91CF7
:1034A400CDF85CC00720169040F23D131593149696
:1034B40040F2312313930E23129340F2C712119258
:1034C400CDF840908E200F90CDF838A04FF4F270D4
:1034D4000D900C974FF404710B91CDF828B040F285
:1034E400ED110991CDF8208040F2A51CCDF81CC047
:1034F400052206924FF4F772059204210491A62343
:1035040003934FF0030CCDF808C040F2D91001909A
:10351400009440F2C713012221462846FEF76EFAB2
:103524002046FDF74DF94FF44C732193209540F25A
:1035340025231F9311231E9340F2D9101D904FF0A1
:10354400100ECDF870E040F29B231B9309221A92CF
:103554004FF41F731993082118914FF4F7721792BF
:10356400072016904FF49B731593149640F227236B
:1035740013930E2312934FF4E5731193CDF84090F7
:1035840084230F93CDF838A040F2D71ECDF834E051
:103594000C9740F20F2ECDF82CE0CDF828B04FF464
:1035A400F6730993CDF8208040F2A3130793052204
:1035B40006924FF4F47ECDF814E004210491B02374
:1035C40003934FF0030CCDF808C04FF4F270019050
:1035D40000944FF4E273012221462846FEF70EFAC6
:1035E4002046FDF7EDF840F239332193209540F25F
:1035F4002E231F9311231E934FF4EE701D904FF052
:10360400100ECDF870E040F29A201B9009221A9215
:1036140040F27B2ECDF864E0082118914FF4F97341
:103624001793072016904FF49773159314964FF43D
:10363400077ECDF84CE00E23129340F2CD13119384
:10364400CDF840907A230F93CDF838A04FF4E67E5E
:10365400CDF834E00C974FF403730B93CDF828B0F6
:1036640040F2ED110991CDF8208040F2A51CCDF86F
:103674001CC00522069240F2E11ECDF814E004219C
:103684000491BC2303934FF0030CCDF808C040F21F
:10369400EF130193009440F2C313012221462846FC
:1036A400FEF7ACF92046FDF78BF840F24133219345
:1036B400209540F237231F9311231E9340F2DF130A
:1036C4001D934FF0100ECDF870E04FF4267ECDF828
:1036D4006CE009221A924FF41E7ECDF864E00821B2
:1036E40018914FF4FB731793072016904FF49373BC
:1036F400159314964FF4047013900E23129340F212
:10370400CF101190CDF8409072230F93CDF838A0CC
:1037140040F2C11CCDF834C00C9740F2092ECDF80C
:103724002CE0CDF828B040F2F1120992CDF82080B7
:1037340040F2A9100790052206924FF4EE7005900E
:1037440004210491C72303934FF0030CCDF808C060
:103754004FF4FE730193009440F2C31301222146F7
:103764002846FEF74BF92046FDF72AF840F2473386
:103774002193209540F23E231F9311231E9340F280
:10378400E3131D934FF0100ECDF870E040F2952234
:103794001B9209221A924FF41D7219920821189152
:1037A4004FF4FD721792072016904FF48E73159301
:1037B400149640F2032313930E2312934FF4E87CE0
:1037C400CDF844C0CDF840906A230F93CDF838A0CB
:1037D4004FF4DC7ECDF834E00C974FF401700B907D
:1037E400CDF828B04FF4FB730993CDF8208040F254
:1037F400AF1107910522069240F2D71105910421D9
:103804000491D22303934FF0030CCDF808C04FF476
:1038140002730193009440F2C31301222146284607
:10382400FEF7ECF82046FCF7CBFF40F24B3ECDF818
:1038340084E0209540F2432CCDF87CC011231E93E4
:1038440040F2E7131D934FF0100ECDF870E04FF4E3
:1038540024711B9109221A9240F26D2119910821B9
:1038640018914FF4FF7ECDF85CE0072016904FF4DA
:103874008973159314964FF4FB7313930E231293C9
:103884004FF4E87CCDF844C0CDF8409065210F9109
:10389400CDF838A04FF4D9700D900C9740F2FF1377
:1038A4000B93CDF828B0CDF824E0CDF8208040F279
:1038B400B7110791052206924FF4E9730593042189
:1038C4000491DD2303934FF0030CCDF808C04FF4AB
:1038D4000573019300944FF4E273012221462846B4
:1038E400FEF78CF82046FCF76BFF40F24E31219135
:1038F400209540F246231F9311231E9340F2EB13AD
:103904001D934FF0100ECDF870E040F28A231B9304
:1039140009221A9240F2652319930821189140F262
:1039240001231793072016904FF48473159314966C
:1039340040F2E91313930E2312934FF4E873119397
:10394400CDF840904FF0610CCDF83CC0CDF838A0D4
:103954004FF4D7730D930C974FF4FD7CCDF82CC026
:10396400CDF828B040F207230993CDF8208040F227
:10397400C11107910522069240F2CF11059104214D
:103984000491E72303934FF0030CCDF808C040F2F1
:103994001F23019300944FF4E37301222146284628
:1039A400FEF72CF82046FCF70BFF40F24F3321932F
:1039B400209540F247231F9311231E934FF4F8736D
:1039C4001D934FF0100ECDF870E040F283231B934B
:1039D40009221A9240F25B231993082118914FF49B
:1039E4000170179007201690FE231593149640F249
:1039F400DD1013900E23129340F2CF101190CDF8E6
:103A0400409060230F93CDF838A04FF4D6730D93F4
:103A14000C974FF4FA700B90CDF828B040F21123B4
:103A24000993CDF820804FF4E6730793052206929C
:103A3400059304210491EF2303934FF0030CCDF875
:103A440008C040F229230193009440F2C9130122D3
:103A540021462846FDF7D2FF2046FCF7B1FE40F28E
:103A64004E312191209540F246201F9011231E9340
:103A74004FF4FA701D904FF0100ECDF870E040F244
:103A84007B201B9009221A9240F25123199308219A
:103A9400189140F20723179307201690F4231593E7
:103AA400149640F2D11313930E2312934FF4E6733A
:103AB4001193CDF8409061200F90CDF838A04FF4C9
:103AC400D7700D900C9740F2ED130B93CDF828B0FE
:103AD4004FF407700990CDF820804FF4EC730793EE
:103AE4000522069240F2CB13059304210491F72397
:103AF40003934FF0030CCDF808C040F23223019336
:103B040000944FF4E673012221462846FDF776FF20
:103B14002046FCF755FE40F24B342194209540F2A8
:103B240043251F9511241E944FF4FC741D941025F5
:103B34001C9540F273231B9309221A9240F24524E8
:103B440019940821189140F2092517950724169411
:103B5400EC231593149640F2C71613960E23129372
:103B640040F2C9131193CDF8409065260F96CDF815
:103B740038A04FF4D9760D960C974FF4F4770B9741
:103B8400CDF828B040F226230993CDF8208040F2E6
:103B9400E51607960527069740F2CB18CDF8148052
:103BA400042604964FF0FE0BCDF80CB04FF0030B37
:103BB400CDF808B040F23A29CDF8049002240094DC
:103BC40040F2CF13012221461220FDF717FF2046B1
:103BD400FCF7F6FD40F2473321931225209540F27D
:103BE4003E231F934FF01109CDF878904FF4FE73E4
:103BF4001D934FF0100ACDF870A040F269231B9377
:103C040009221A924FF40E7319930821189140F265
:103C14000A29CDF85C904FF0070ACDF858A04FF070
:103C2400E40ACDF854A00F2014904FF4DF731393DB
:103C34000E2312934FF4E27311934FF00D0CCDF851
:103C440040C06A230F934FF00C0ECDF838E04FF4C8
:103C5400DC7ACDF834A00B220C9240F2E31ACDF8B2
:103C64002CA00A210A9140F2312ACDF824A04FF069
:103C7400060ACDF820A040F2F11207920697CDF87B
:103C84001480049640F20318CDF80C80CDF808B0E7
:103C940040F24128CDF80480009440F2D31301226D
:103CA40021462846FDF7AAFE2046FCF789FD40F28E
:103CB40041332193209540F237231F934FF011088D
:103CC400CDF878804FF400731D934FF01008CDF8B1
:103CD400708040F25F28CDF86C804FF00908CDF871
:103CE40068804FF40B7219924FF0080ECDF860E023
:103CF400CDF85C90072016904FF0DF0CCDF854C03F
:103D04000F2014904FF4DC7013900E23129340F2A2
:103D1400BF1311934FF00D0CCDF840C072230F93D5
:103D24004FF00C0ECDF838E040F2C1130D930B2286
:103D34000C924FF4EF730B930A210A9140F23B2348
:103D44000993CDF820A04FF4FF7CCDF81CC0069752
:103D54004FF4E678CDF81480049640F207110391ED
:103D6400CDF808B040F245200190009440F2D713FA
:103D7400012221462846FDF741FE2046FCF720FD9E
:103D840040F239332193209540F22E231F931122C0
:103D94001E9240F2032CCDF874C010211C9140F205
:103DA40055231B9309231A9340F21F2319934FF0B1
:103DB400080ECDF860E0CDF85C904FF00709CDF81F
:103DC40058904FF0DB09CDF854900F2014904FF425
:103DD400DA79CDF84C900E2312934FF4DD731193DE
:103DE4004FF00D0CCDF840C07A230F934FF00C0E1A
:103DF400CDF838E0CDF834800B220C9240F2DB137E
:103E04000B930A210A914FF411730993CDF820A062
:103E140040F2092ECDF81CE006974FF4E7730593A2
:103E2400049640F209110391CDF808B04FF41273CF
:103E34000193009440F2DB13012221462846FDF74A
:103E4400DDFD2046FCF7BCFC4FF44C732193209518
:103E540040F2252CCDF87CC04FF01108CDF87880C5
:103E640040F206221D924FF01008CDF8708040F207
:103E74004B231B934FF00908CDF8688040F21323BD
:103E840019934FF0080ECDF860E040F2092ECDF8FA
:103E94005CE007201690DA2315930F20149040F26B
:103EA400B31313930E231293CDF844904FF00D0CDB
:103EB400CDF840C084230F934FF00C0ECDF838E0BA
:103EC40040F2D718CDF834800B220C924FF4EC73E7
:103ED4000B930A210A9140F24D230993CDF820A0B7
:103EE4004FF405730793069740F2D1110591049698
:103EF4004FF485730393CDF808B040F2492301933E
:103F040000944FF4F073012221462846FDF776FD14
:103F14002046FCF755FC40F226332193209540F2CD
:103F240019231F9311231E9340F2092ECDF874E038
:103F340010211C9140F2412ECDF86CE009221A9216
:103F440040F2072319934FF0080ECDF860E040F2D9
:103F5400062ECDF85CE0072016904FF0DB0ECDF86E
:103F640054E00F201490CDF84C904FF00E09CDF88A
:103F7400489040F2AD1311934FF00D0CCDF840C0B2
:103F84008E230F934FF00C0ECDF838E04FF4F273FC
:103F94000D930B220C92CDF82C800A210A914FF438
:103FA40015720992CDF820A040F21D2207920697BF
:103FB4004FF4EA720592049640F2091ECDF80CE023
:103FC400CDF808B04FF4127ECDF804E0009401223D
:103FD40021462846FDF712FD2046FCF7F1FB40F28E
:103FE4001A332193209540F20D231F9311231E931E
:103FF40040F20B231D9310211C9140F239231B9393
:1040040009221A9240F2FD1319934FF0080ECDF8CD
:1040140060E040F2032CCDF85CC0072016904FF00E
:10402400DF0CCDF854C00F2014904FF4DC701390C3
:10403400CDF848904FF4D47311934FF00D0CCDF894
:1040440040C098230F934FF00C0ECDF838E040F2A7
:10405400F119CDF834900B220C92CDF82C800A2162
:104064000A9140F25A230993CDF820A040F2252961
:10407400CDF81C900697CDF81480049640F2071CE6
:10408400CDF80CC0CDF808B040F24529CDF8049025
:1040940000944FF4F473012221462846FDF7AEFC48
:1040A4002046FCF78DFB40F20E33219320954FF40C
:1040B4000079CDF87C9011231E934FF40379CDF849
:1040C400749010211C9140F231231B9309221A92FF
:1040D40040F2F51319934FF0080ECDF860E04FF459
:1040E400FF7217924FF0070CCDF858C0E4201590DA
:1040F4000F2014904FF4DF7013900E23129340F2AC
:10410400A31311934FF00D0CCDF840C0A2230F93CD
:104114004FF00C0ECDF838E00D920B220C92CDF836
:104124002C800A210A9140F25F28CDF82480CDF832
:1041340020A04FF40B78CDF81C80069740F2DB10DA
:104144000590049640F20318CDF80C80CDF808B021
:1041540040F24128CDF8048000944FF4F673012214
:1041640021462846FDF74AFC2046FCF729FB40F28D
:1041740001332193209540F2F318CDF87C8011236C
:104184001E93CDF8749010211C914FF40B731B9364
:1041940009201A9040F2EF1319934FF0080ECDF84E
:1041A40060E040F2F91317934FF0070CCDF858C0B4
:1041B400EC2315930F20149040F2C71313930E238E
:1041C40012934FF4CF7311934FF00D0CCDF840C000
:1041D400AC230F934FF00C0ECDF838E040F20B23D4
:1041E4000D930B220C924FF4EC720B920A210A915C
:1041F40040F262230993CDF820A04FF40C73079387
:10420400069740F2DF1305930496FE220392CDF83D
:1042140008B040F23A22019200944FF4F87301225C
:1042240021462846FDF7EAFB2046FCF7C9FA4FF47D
:104234003D73219320954FF4F3731F9311221E9223
:10424400CDF874904FF01009CDF870904FF40A73C4
:104254001B9309201A9040F2EB1319934FF0080EA8
:10426400CDF860E04FF4FA7317934FF0070CCDF8D4
:1042740058C0F42315930F20149040F2D1111391D8
:104284000E23129340F29B1311934FF00D0CCDF8B3
:1042940040C0B5230F934FF00C0ECDF838E040F238
:1042A40017230D930B210C914FF4ED79CDF82C903D
:1042B4000A230A934FF419730993CDF820A040F20E
:1042C40033230793069740F2E31105910496F723ED
:1042D4000393CDF808B040F232230193009443468F
:1042E400012221462846FDF789FB2046FCF768FA9F
:1042F40040F2E72321932095CDF87C904FF01108EC
:10430400CDF8788040F20B29CDF874904FF0100965
:10431400CDF8709040F227231B934FF00908CDF895
:10432400688040F2E91319934FF00808CDF86080D3
:104334004FF4F77317934FF00708CDF858804FF0F8
:10434400FE08CDF854800F20149040F2DD1313932F
:104354000E2212924FF4CC7211924FF00D0CCDF844
:1043640040C0BD220F924FF00C0ECDF838E040F261
:1043740022220D920B210C910B930A230A9340F2F3
:1043840065230993CDF820A04FF40D730793069786
:104394004FF4F47305930496EF230393CDF808B018
:1043A40040F22923019300944FF4FB730122214628
:1043B4002846FDF723FB2046FCF702FA23B0BDE8AC
:1043C400F08F2DE9F04FA3B040F20B332193122567
:1043D40020954FF4FF731F934FF01108CDF87880A8
:1043E40040F2CF121D924FF01009CDF8709040F2B8
:1043F40067221B9209231A9340F23622199208224B
:10440400189240F20E231793072416944FF48D76D6
:1044140015960F26149640F2012713970E2712972C
:1044240040F2931311934FF00D0ACDF840A04FF0D2
:10443400A00BCDF83CB00C240E9440F2FB100D9070
:104444004FF00B0BCDF830B04FF405730B930A20EB
:104454000A9040F22F2ECDF824E00626089640F26A
:10446400EF1ECDF81CE00527069740F2C71305930D
:104474004FF0040BCDF810B04FF0D00ACDF80CA0DB
:104484000327029740F2052ACDF804A002260096DD
:104494004FF40073012221462846FDF7AFFA204667
:1044A400FCF78EF940F2563CCDF884C0209540F2DA
:1044B400372ACDF87CA0CDF8788040F2DF18CDF80B
:1044C4007480CDF870904FF41A79CDF86C9009216E
:1044D4001A9140F2362CCDF864C0082018904FF49D
:1044E400FF78CDF85C804FF0070CCDF858C040F24F
:1044F4005318CDF854804FF00F0ECDF850E040F231
:104504003928CDF84C800E23129340F2A310119059
:104514000D2210924FF0A108CDF83C800E944FF478
:10452400FE78CDF834800B210C914FF401700B9080
:104534000A200A9040F26B2ECDF824E04FF0060CCE
:10454400CDF820C040F2252107914FF0050ECDF89B
:1045540018E040F2D7100590CDF810B0D1220392A4
:10456400029740F20620019000964FF4F87301225E
:1045740021462846FDF742FA2046FCF721F940F28D
:104584006133219320954FF410731F9311231E93CD
:104594004FF4F8711D9110221C92CDF86C900921F2
:1045A4001A91CDF864A0082018904FF4F77ECDF846
:1045B4005CE04FF0070CCDF858C04FF4AE73159380
:1045C4004FF00F0ECDF850E040F2412313930E2329
:1045D40012934FF4DA7311930D221092A2230F93C6
:1045E4000E94CDF834800B210C914FF4FA730B9395
:1045F4000A200A9040F2732309934FF0060CCDF879
:1046040020C040F22D2307934FF0050ECDF818E09B
:104614004FF4F47ECDF814E0CDF810B0D12203921B
:10462400029740F20620019000964FF4F0730122A5
:1046340021462846FDF7E2F92046FCF7C1F840F28E
:10464400563CCDF884C02095CDF87CA011231E9350
:104654004FF4007ACDF874A010221C92CDF86C901F
:1046640009211A9140F2362ACDF864A00820189046
:1046740040F2DD1ACDF85CA04FF0070CCDF858C01D
:1046840040F25319CDF854904FF00F0ECDF850E08E
:1046940040F23929CDF84C904FF00E09CDF84890EE
:1046A4004FF4E279CDF844900D2210924FF0A10C12
:1046B400CDF83CC00E94CDF834804FF00B08CDF803
:1046C400308040F2E318CDF82C800A200A9040F2A2
:1046D4006B2CCDF824C04FF0060CCDF820C040F26E
:1046E400252CCDF81CC04FF0050ECDF818E04FF482
:1046F400FC7CCDF814C0CDF810B0D12203920297FF
:1047040040F206200190009640F2CF130122214688
:104714002846FDF773F92046FCF752F840F20B33B4
:10472400219320954FF4FF731F9311231E934FF48D
:1047340004731D9310221C9240F267211B910921DE
:104744001A9140F2362CCDF864C00820189040F23B
:10475400CD1317934FF0070CCDF858C04FF48D715B
:1047640015914FF00F0ECDF850E040F20121139156
:104774000E2312934FF4EA7311930D221092A02288
:104784000F920E9440F2FB120D920B210C9140F209
:10479400D3130B930A200A9040F22F2209924FF070
:1047A400060CCDF820C040F2EF1ECDF81CE04FF00F
:1047B400050ECDF818E04FF402730593CDF810B050
:1047C400D0220392029740F205220192009640F211
:1047D400BF13012221462846FDF710F92046FBF7B6
:1047E400EFFF4FF44372219220954FF4FF721F9212
:1047F40011231E934FF4007CCDF874C010221C9238
:104804004FF4287CCDF86CC009211A9140F26D2335
:10481400199308201890CDF85CA04FF0070CCDF840
:1048240058C040F21B1ACDF854A04FF00F0ECDF82B
:1048340050E040F2012013900E231293CDF84490DF
:104844004FF00D09CDF840904FF0DA09CDF83C90C7
:104854000E944FF40D79CDF834900B210C91CDF8D2
:104864002C804FF00A08CDF828804FF40C78CDF84E
:1048740024804FF0060CCDF820C040F2EF1ECDF896
:104884001CE04FF0050ECDF818E04FF4FC7CCDF899
:1048940014C0CDF810B04FF4887CCDF80CC002974A
:1048A40040F23A2CCDF804C0009640F2CF13012216
:1048B40021462846FDF7A2F82046FBF781FF40F287
:1048C4000D33219320954FF4FF721F9211231E93F1
:1048D4004FF4F8711D9110221C9240F2A9231B93EE
:1048E40009211A9140F275231993082018904FF466
:1048F400F77117914FF0070CCDF858C0CDF854A0BC
:104904004FF00F0ECDF850E040F2012013900E232B
:1049140012934FF4DA7111910D221092E2230F9346
:104924000E944FF40F730D930B210C914FF4FA7105
:104934000B910A200A90CDF824804FF0060CCDF894
:1049440020C040F2EF1ECDF81CE04FF0050ECDF86C
:1049540018E04FF4F4710591CDF810B040F219133A
:104964000393029740F24223019300964FF4F073AD
:10497400012221462846FDF741F82046FBF720FF97
:104984004FF44371219120954FF4FF7CCDF87CC006
:1049940011231E9340F2DF131D9310221C924FF437
:1049A40028721B9209211A9140F26D211991082055
:1049B4001890CDF85CC04FF0070CCDF858C0CDF876
:1049C40054A04FF00F0ECDF850E040F2012ACDF87C
:1049D4004CA00E23129340F2A31ACDF844A00D224A
:1049E40010924FF0DA0ACDF83CA00E94CDF8349032
:1049F4000B210C914FF401720B920A200A90CDF80E
:104A040024804FF0060CCDF820C040F2EF1307933A
:104A14004FF0050ECDF818E040F2D7100590CDF810
:104A240010B04FF4887CCDF80CC0029740F23A2CB9
:104A3400CDF804C000964FF4F873012221462846AD
:104A4400FCF7DCFF2046FBF7BBFE23B0BDE8F08F8C
:104A540070B50D4E0D4D761BB61006D0002455F8DA
:104A6400043B01349847A642F9D1094E094D00F0A0
:104A7400D5F8761BB61006D0002455F8043B013453
:104A84009847A642F9D170BD7C4C00087C4C0008C4
:104A9400844C00087C4C0008830730B548D0541E71
:104AA400002A3FD00346CAB201E0013C3AD303F8DE
:104AB400012B9D07F9D1032C2DD9CDB245EA05254B
:104AC4000F2C45EA054536D9A4F1100222F00F0C4B
:104AD40003F1200EE6444FEA121C03F1100242E9EE
:104AE400045542E9025510327245F8D10CF1010225
:104AF40014F00C0F03EB021204F00F0C13D0ACF102
:104B0400040323F003030433134442F8045B934285
:104B1400FBD10CF003042CB1CAB21C4403F8012BE2
:104B24009C42FBD130BD64461346002CF4D1F9E716
:104B340003461446BFE71A46A446E0E7024B13B106
:104B4400024800F005B8704700000000614B0008FF
:104B5400002301461A46184600F01AB838B5084B27
:104B6400084D5B1B9C1007D0043B1D44013C55F8C9
:104B740004399847002CF9D1BDE8384000F054B806
:104B8400884C0008844C0008704700BF704700BF81
:104B94002DE9F047DFF87CA00646DAF800009846D5
:104BA4000F469146FFF7F0FF1B4B1B68D3F84841B3
:104BB40024B365681F2D26DC5EB96B1C0235DAF858
:104BC4000000636044F82570FFF7E0FF0020BDE8B3
:104BD400F087012304EB8501C1F88890D4F888217B
:104BE400AB401A43022EC4F88821C1F80881E4D1ED
:104BF400D4F88C211343C4F88C31DEE703F5A67492
:104C0400C3F84841D5E7DAF80000FFF7BFFF4FF0DB
:104C1400FF30DCE738040020784C0008F8B500BF0A
:104C2400F8BC08BC9E467047F8B500BFF8BC08BC89
:044C34009E467047E1
:104C380053746D20696E69742E2E2E2E2E2E0A0046
:104C48000000000000000000000000000102030452
:104C58000607080900000000010203040203040516
:104C6800060708090A0B0C0D0E0F101000000000B3
:044C78001000002008
:084C7C00414B00080902000889
:044C8400E50100083E
:104C88000024F400010000001000000000000000F3
:104C980000000000FC02002064030020CC03002078
:104CA80000000000000000000000000000000000FC
:104CB80000000000000000000000000000000000EC
:104CC80000000000000000000000000000000000DC
:104CD80000000000000000000000000000000000CC
:104CE80000000000000000000000000000000000BC
:104CF80000000000000000000000000000000000AC
:104D0800000000000000000000000000000000009B
:104D1800000000000000000000000000000000008B
:104D2800000000000000000000000000000000007B
:104D3800000000000000000001000000000000006A
:104D48000E33CDAB34126DE6ECDE05000B0000002F
:104D5800000000000000000000000000000000004B
:104D6800000000000000000000000000000000003B
:104D7800000000000000000000000000000000002B
:104D8800000000000000000000000000000000001B
:0C50B80000000000000000000C090020B7
:04000005080006E504
:00000001FF
